{
  "_format": "hh-sol-artifact-1",
  "contractName": "KamonNFT",
  "sourceName": "contracts/kamonNFT.sol",
  "abi": [
    {
      "inputs": [
        {
          "internalType": "address",
          "name": "_erc20",
          "type": "address"
        },
        {
          "internalType": "address",
          "name": "_fundAddress",
          "type": "address"
        }
      ],
      "stateMutability": "nonpayable",
      "type": "constructor"
    },
    {
      "anonymous": false,
      "inputs": [
        {
          "indexed": true,
          "internalType": "address",
          "name": "owner",
          "type": "address"
        },
        {
          "indexed": true,
          "internalType": "address",
          "name": "approved",
          "type": "address"
        },
        {
          "indexed": true,
          "internalType": "uint256",
          "name": "tokenId",
          "type": "uint256"
        }
      ],
      "name": "Approval",
      "type": "event"
    },
    {
      "anonymous": false,
      "inputs": [
        {
          "indexed": true,
          "internalType": "address",
          "name": "owner",
          "type": "address"
        },
        {
          "indexed": true,
          "internalType": "address",
          "name": "operator",
          "type": "address"
        },
        {
          "indexed": false,
          "internalType": "bool",
          "name": "approved",
          "type": "bool"
        }
      ],
      "name": "ApprovalForAll",
      "type": "event"
    },
    {
      "anonymous": false,
      "inputs": [
        {
          "indexed": false,
          "internalType": "address",
          "name": "_owner",
          "type": "address"
        },
        {
          "indexed": false,
          "internalType": "uint256",
          "name": "_tokenId",
          "type": "uint256"
        }
      ],
      "name": "BoughtMemberShipNFT",
      "type": "event"
    },
    {
      "anonymous": false,
      "inputs": [
        {
          "indexed": false,
          "internalType": "address",
          "name": "_by",
          "type": "address"
        },
        {
          "indexed": false,
          "internalType": "uint256",
          "name": "_at",
          "type": "uint256"
        }
      ],
      "name": "CheckedAnswer",
      "type": "event"
    },
    {
      "anonymous": false,
      "inputs": [
        {
          "indexed": false,
          "internalType": "address",
          "name": "_by",
          "type": "address"
        },
        {
          "indexed": false,
          "internalType": "uint256",
          "name": "_amount",
          "type": "uint256"
        }
      ],
      "name": "ClaimedToken",
      "type": "event"
    },
    {
      "anonymous": false,
      "inputs": [
        {
          "indexed": true,
          "internalType": "address",
          "name": "previousOwner",
          "type": "address"
        },
        {
          "indexed": true,
          "internalType": "address",
          "name": "newOwner",
          "type": "address"
        }
      ],
      "name": "OwnershipTransferred",
      "type": "event"
    },
    {
      "anonymous": false,
      "inputs": [
        {
          "indexed": true,
          "internalType": "address",
          "name": "from",
          "type": "address"
        },
        {
          "indexed": true,
          "internalType": "address",
          "name": "to",
          "type": "address"
        },
        {
          "indexed": true,
          "internalType": "uint256",
          "name": "tokenId",
          "type": "uint256"
        }
      ],
      "name": "Transfer",
      "type": "event"
    },
    {
      "inputs": [
        {
          "internalType": "uint256",
          "name": "",
          "type": "uint256"
        }
      ],
      "name": "_tokenURIs",
      "outputs": [
        {
          "internalType": "string",
          "name": "",
          "type": "string"
        }
      ],
      "stateMutability": "view",
      "type": "function"
    },
    {
      "inputs": [
        {
          "internalType": "address",
          "name": "_to",
          "type": "address"
        },
        {
          "internalType": "string",
          "name": "_role",
          "type": "string"
        }
      ],
      "name": "addRole",
      "outputs": [],
      "stateMutability": "nonpayable",
      "type": "function"
    },
    {
      "inputs": [
        {
          "internalType": "address",
          "name": "to",
          "type": "address"
        },
        {
          "internalType": "uint256",
          "name": "tokenId",
          "type": "uint256"
        }
      ],
      "name": "approve",
      "outputs": [],
      "stateMutability": "nonpayable",
      "type": "function"
    },
    {
      "inputs": [
        {
          "internalType": "address",
          "name": "owner",
          "type": "address"
        }
      ],
      "name": "balanceOf",
      "outputs": [
        {
          "internalType": "uint256",
          "name": "",
          "type": "uint256"
        }
      ],
      "stateMutability": "view",
      "type": "function"
    },
    {
      "inputs": [
        {
          "internalType": "uint256",
          "name": "_tokenId",
          "type": "uint256"
        }
      ],
      "name": "burn",
      "outputs": [],
      "stateMutability": "nonpayable",
      "type": "function"
    },
    {
      "inputs": [
        {
          "internalType": "string",
          "name": "_keyword",
          "type": "string"
        }
      ],
      "name": "checkAnswer",
      "outputs": [],
      "stateMutability": "nonpayable",
      "type": "function"
    },
    {
      "inputs": [],
      "name": "claimToken",
      "outputs": [],
      "stateMutability": "nonpayable",
      "type": "function"
    },
    {
      "inputs": [],
      "name": "contractURI",
      "outputs": [
        {
          "internalType": "string",
          "name": "",
          "type": "string"
        }
      ],
      "stateMutability": "view",
      "type": "function"
    },
    {
      "inputs": [],
      "name": "fundAddress",
      "outputs": [
        {
          "internalType": "address",
          "name": "",
          "type": "address"
        }
      ],
      "stateMutability": "view",
      "type": "function"
    },
    {
      "inputs": [
        {
          "internalType": "uint256",
          "name": "tokenId",
          "type": "uint256"
        }
      ],
      "name": "getApproved",
      "outputs": [
        {
          "internalType": "address",
          "name": "",
          "type": "address"
        }
      ],
      "stateMutability": "view",
      "type": "function"
    },
    {
      "inputs": [
        {
          "internalType": "address",
          "name": "_to",
          "type": "address"
        },
        {
          "internalType": "uint256",
          "name": "_point",
          "type": "uint256"
        },
        {
          "internalType": "uint256",
          "name": "_claimableToken",
          "type": "uint256"
        }
      ],
      "name": "giveAwayPoint",
      "outputs": [],
      "stateMutability": "nonpayable",
      "type": "function"
    },
    {
      "inputs": [
        {
          "internalType": "address",
          "name": "_address",
          "type": "address"
        },
        {
          "internalType": "string",
          "name": "_role",
          "type": "string"
        }
      ],
      "name": "hasRoleOf",
      "outputs": [
        {
          "internalType": "bool",
          "name": "",
          "type": "bool"
        }
      ],
      "stateMutability": "view",
      "type": "function"
    },
    {
      "inputs": [],
      "name": "henkakuToken",
      "outputs": [
        {
          "internalType": "contract IERC20",
          "name": "",
          "type": "address"
        }
      ],
      "stateMutability": "view",
      "type": "function"
    },
    {
      "inputs": [
        {
          "internalType": "address",
          "name": "owner",
          "type": "address"
        },
        {
          "internalType": "address",
          "name": "operator",
          "type": "address"
        }
      ],
      "name": "isApprovedForAll",
      "outputs": [
        {
          "internalType": "bool",
          "name": "",
          "type": "bool"
        }
      ],
      "stateMutability": "view",
      "type": "function"
    },
    {
      "inputs": [
        {
          "internalType": "string",
          "name": "_tokenURI",
          "type": "string"
        },
        {
          "internalType": "string[]",
          "name": "_roles",
          "type": "string[]"
        },
        {
          "internalType": "address",
          "name": "_to",
          "type": "address"
        }
      ],
      "name": "mint",
      "outputs": [
        {
          "internalType": "uint256",
          "name": "",
          "type": "uint256"
        }
      ],
      "stateMutability": "nonpayable",
      "type": "function"
    },
    {
      "inputs": [
        {
          "internalType": "string",
          "name": "_tokenURI",
          "type": "string"
        },
        {
          "internalType": "uint256",
          "name": "_amount",
          "type": "uint256"
        }
      ],
      "name": "mintWithHenkaku",
      "outputs": [],
      "stateMutability": "nonpayable",
      "type": "function"
    },
    {
      "inputs": [],
      "name": "name",
      "outputs": [
        {
          "internalType": "string",
          "name": "",
          "type": "string"
        }
      ],
      "stateMutability": "view",
      "type": "function"
    },
    {
      "inputs": [],
      "name": "owner",
      "outputs": [
        {
          "internalType": "address",
          "name": "",
          "type": "address"
        }
      ],
      "stateMutability": "view",
      "type": "function"
    },
    {
      "inputs": [
        {
          "internalType": "uint256",
          "name": "tokenId",
          "type": "uint256"
        }
      ],
      "name": "ownerOf",
      "outputs": [
        {
          "internalType": "address",
          "name": "",
          "type": "address"
        }
      ],
      "stateMutability": "view",
      "type": "function"
    },
    {
      "inputs": [],
      "name": "price",
      "outputs": [
        {
          "internalType": "uint256",
          "name": "",
          "type": "uint256"
        }
      ],
      "stateMutability": "view",
      "type": "function"
    },
    {
      "inputs": [],
      "name": "renounceOwnership",
      "outputs": [],
      "stateMutability": "nonpayable",
      "type": "function"
    },
    {
      "inputs": [],
      "name": "rewardHenkaku",
      "outputs": [
        {
          "internalType": "uint256",
          "name": "",
          "type": "uint256"
        }
      ],
      "stateMutability": "view",
      "type": "function"
    },
    {
      "inputs": [],
      "name": "rewardPoint",
      "outputs": [
        {
          "internalType": "uint256",
          "name": "",
          "type": "uint256"
        }
      ],
      "stateMutability": "view",
      "type": "function"
    },
    {
      "inputs": [
        {
          "internalType": "address",
          "name": "",
          "type": "address"
        },
        {
          "internalType": "uint256",
          "name": "",
          "type": "uint256"
        }
      ],
      "name": "roles",
      "outputs": [
        {
          "internalType": "string",
          "name": "",
          "type": "string"
        }
      ],
      "stateMutability": "view",
      "type": "function"
    },
    {
      "inputs": [
        {
          "internalType": "address",
          "name": "from",
          "type": "address"
        },
        {
          "internalType": "address",
          "name": "to",
          "type": "address"
        },
        {
          "internalType": "uint256",
          "name": "tokenId",
          "type": "uint256"
        }
      ],
      "name": "safeTransferFrom",
      "outputs": [],
      "stateMutability": "nonpayable",
      "type": "function"
    },
    {
      "inputs": [
        {
          "internalType": "address",
          "name": "from",
          "type": "address"
        },
        {
          "internalType": "address",
          "name": "to",
          "type": "address"
        },
        {
          "internalType": "uint256",
          "name": "tokenId",
          "type": "uint256"
        },
        {
          "internalType": "bytes",
          "name": "_data",
          "type": "bytes"
        }
      ],
      "name": "safeTransferFrom",
      "outputs": [],
      "stateMutability": "nonpayable",
      "type": "function"
    },
    {
      "inputs": [
        {
          "internalType": "address",
          "name": "operator",
          "type": "address"
        },
        {
          "internalType": "bool",
          "name": "approved",
          "type": "bool"
        }
      ],
      "name": "setApprovalForAll",
      "outputs": [],
      "stateMutability": "nonpayable",
      "type": "function"
    },
    {
      "inputs": [
        {
          "internalType": "string",
          "name": "uri",
          "type": "string"
        }
      ],
      "name": "setContractURI",
      "outputs": [],
      "stateMutability": "nonpayable",
      "type": "function"
    },
    {
      "inputs": [
        {
          "internalType": "address",
          "name": "_fundAddress",
          "type": "address"
        }
      ],
      "name": "setFundAddress",
      "outputs": [],
      "stateMutability": "nonpayable",
      "type": "function"
    },
    {
      "inputs": [
        {
          "internalType": "bytes32",
          "name": "_keyword",
          "type": "bytes32"
        },
        {
          "internalType": "uint256",
          "name": "startedAt",
          "type": "uint256"
        }
      ],
      "name": "setKeyword",
      "outputs": [],
      "stateMutability": "nonpayable",
      "type": "function"
    },
    {
      "inputs": [
        {
          "internalType": "uint256",
          "name": "_price",
          "type": "uint256"
        }
      ],
      "name": "setPrice",
      "outputs": [],
      "stateMutability": "nonpayable",
      "type": "function"
    },
    {
      "inputs": [
        {
          "internalType": "uint256",
          "name": "_rewardHenkaku",
          "type": "uint256"
        }
      ],
      "name": "setRewardHenkaku",
      "outputs": [],
      "stateMutability": "nonpayable",
      "type": "function"
    },
    {
      "inputs": [
        {
          "internalType": "uint256",
          "name": "_rewardPoint",
          "type": "uint256"
        }
      ],
      "name": "setRewardPoint",
      "outputs": [],
      "stateMutability": "nonpayable",
      "type": "function"
    },
    {
      "inputs": [
        {
          "internalType": "address",
          "name": "_to",
          "type": "address"
        },
        {
          "internalType": "string[]",
          "name": "_roles",
          "type": "string[]"
        }
      ],
      "name": "setRoles",
      "outputs": [],
      "stateMutability": "nonpayable",
      "type": "function"
    },
    {
      "inputs": [
        {
          "internalType": "address",
          "name": "_erc20",
          "type": "address"
        }
      ],
      "name": "setTokenAddr",
      "outputs": [],
      "stateMutability": "nonpayable",
      "type": "function"
    },
    {
      "inputs": [
        {
          "internalType": "bytes4",
          "name": "interfaceId",
          "type": "bytes4"
        }
      ],
      "name": "supportsInterface",
      "outputs": [
        {
          "internalType": "bool",
          "name": "",
          "type": "bool"
        }
      ],
      "stateMutability": "view",
      "type": "function"
    },
    {
      "inputs": [],
      "name": "symbol",
      "outputs": [
        {
          "internalType": "string",
          "name": "",
          "type": "string"
        }
      ],
      "stateMutability": "view",
      "type": "function"
    },
    {
      "inputs": [
        {
          "internalType": "address",
          "name": "",
          "type": "address"
        }
      ],
      "name": "tokenIdOf",
      "outputs": [
        {
          "internalType": "uint256",
          "name": "",
          "type": "uint256"
        }
      ],
      "stateMutability": "view",
      "type": "function"
    },
    {
      "inputs": [
        {
          "internalType": "uint256",
          "name": "tokenId",
          "type": "uint256"
        }
      ],
      "name": "tokenURI",
      "outputs": [
        {
          "internalType": "string",
          "name": "",
          "type": "string"
        }
      ],
      "stateMutability": "view",
      "type": "function"
    },
    {
      "inputs": [],
      "name": "totalSupply",
      "outputs": [
        {
          "internalType": "uint256",
          "name": "",
          "type": "uint256"
        }
      ],
      "stateMutability": "view",
      "type": "function"
    },
    {
      "inputs": [
        {
          "internalType": "address",
          "name": "_from",
          "type": "address"
        },
        {
          "internalType": "address",
          "name": "_to",
          "type": "address"
        },
        {
          "internalType": "uint256",
          "name": "_tokenId",
          "type": "uint256"
        }
      ],
      "name": "transferFrom",
      "outputs": [],
      "stateMutability": "nonpayable",
      "type": "function"
    },
    {
      "inputs": [
        {
          "internalType": "address",
          "name": "newOwner",
          "type": "address"
        }
      ],
      "name": "transferOwnership",
      "outputs": [],
      "stateMutability": "nonpayable",
      "type": "function"
    },
    {
      "inputs": [
        {
          "internalType": "uint256",
          "name": "tokenId",
          "type": "uint256"
        },
        {
          "internalType": "string",
          "name": "finalTokenUri",
          "type": "string"
        }
      ],
      "name": "updateNFT",
      "outputs": [],
      "stateMutability": "nonpayable",
      "type": "function"
    },
    {
      "inputs": [
        {
          "internalType": "uint256",
          "name": "tokenId",
          "type": "uint256"
        },
        {
          "internalType": "string",
          "name": "finalTokenUri",
          "type": "string"
        }
      ],
      "name": "updateOwnNFT",
      "outputs": [],
      "stateMutability": "nonpayable",
      "type": "function"
    },
    {
      "inputs": [
        {
          "internalType": "address",
          "name": "",
          "type": "address"
        }
      ],
      "name": "userAttribute",
      "outputs": [
        {
          "internalType": "uint256",
          "name": "point",
          "type": "uint256"
        },
        {
          "internalType": "uint256",
          "name": "claimableToken",
          "type": "uint256"
        },
        {
          "internalType": "uint256",
          "name": "answeredAt",
          "type": "uint256"
        }
      ],
      "stateMutability": "view",
      "type": "function"
    },
    {
      "inputs": [],
      "name": "withdraw",
      "outputs": [],
      "stateMutability": "nonpayable",
      "type": "function"
    }
  ],
  "bytecode": "0x60806040523480156200001157600080fd5b506040516200646338038062006463833981810160405281019062000037919062000733565b6040518060400160405280600c81526020017f48656e6b616b752076302e3200000000000000000000000000000000000000008152506040518060400160405280600781526020017f68656e6b616b75000000000000000000000000000000000000000000000000008152508160009080519060200190620000bb9291906200066c565b508060019080519060200190620000d49291906200066c565b505050620000f7620000eb6200016760201b60201c565b6200016f60201b60201c565b62000108826200023560201b60201c565b62000122683635c9adc5dea000006200030860201b60201c565b620001346064620003ef60201b60201c565b6200014e68056bc75e2d631000006200048860201b60201c565b6200015f816200056f60201b60201c565b50506200091c565b600033905090565b6000600660009054906101000a900473ffffffffffffffffffffffffffffffffffffffff16905081600660006101000a81548173ffffffffffffffffffffffffffffffffffffffff021916908373ffffffffffffffffffffffffffffffffffffffff1602179055508173ffffffffffffffffffffffffffffffffffffffff168173ffffffffffffffffffffffffffffffffffffffff167f8be0079c531659141344cd1fd0a4f28419497f9722a3daafe3b4186f6b6457e060405160405180910390a35050565b620002456200016760201b60201c565b73ffffffffffffffffffffffffffffffffffffffff166200026b6200064260201b60201c565b73ffffffffffffffffffffffffffffffffffffffff1614620002c4576040517f08c379a0000000000000000000000000000000000000000000000000000000008152600401620002bb90620007c2565b60405180910390fd5b80600860006101000a81548173ffffffffffffffffffffffffffffffffffffffff021916908373ffffffffffffffffffffffffffffffffffffffff16021790555050565b620003186200016760201b60201c565b73ffffffffffffffffffffffffffffffffffffffff166200033e6200064260201b60201c565b73ffffffffffffffffffffffffffffffffffffffff161462000397576040517f08c379a00000000000000000000000000000000000000000000000000000000081526004016200038e90620007c2565b60405180910390fd5b670de0b6b3a7640000811015620003e5576040517f08c379a0000000000000000000000000000000000000000000000000000000008152600401620003dc90620007e4565b60405180910390fd5b8060098190555050565b620003ff6200016760201b60201c565b73ffffffffffffffffffffffffffffffffffffffff16620004256200064260201b60201c565b73ffffffffffffffffffffffffffffffffffffffff16146200047e576040517f08c379a00000000000000000000000000000000000000000000000000000000081526004016200047590620007c2565b60405180910390fd5b80600a8190555050565b620004986200016760201b60201c565b73ffffffffffffffffffffffffffffffffffffffff16620004be6200064260201b60201c565b73ffffffffffffffffffffffffffffffffffffffff161462000517576040517f08c379a00000000000000000000000000000000000000000000000000000000081526004016200050e90620007c2565b60405180910390fd5b670de0b6b3a764000081101562000565576040517f08c379a00000000000000000000000000000000000000000000000000000000081526004016200055c90620007e4565b60405180910390fd5b80600b8190555050565b6200057f6200016760201b60201c565b73ffffffffffffffffffffffffffffffffffffffff16620005a56200064260201b60201c565b73ffffffffffffffffffffffffffffffffffffffff1614620005fe576040517f08c379a0000000000000000000000000000000000000000000000000000000008152600401620005f590620007c2565b60405180910390fd5b80600c60006101000a81548173ffffffffffffffffffffffffffffffffffffffff021916908373ffffffffffffffffffffffffffffffffffffffff16021790555050565b6000600660009054906101000a900473ffffffffffffffffffffffffffffffffffffffff16905090565b8280546200067a906200084b565b90600052602060002090601f0160209004810192826200069e5760008555620006ea565b82601f10620006b957805160ff1916838001178555620006ea565b82800160010185558215620006ea579182015b82811115620006e9578251825591602001919060010190620006cc565b5b509050620006f99190620006fd565b5090565b5b8082111562000718576000816000905550600101620006fe565b5090565b6000815190506200072d8162000902565b92915050565b600080604083850312156200074757600080fd5b600062000757858286016200071c565b92505060206200076a858286016200071c565b9150509250929050565b60006200078360208362000806565b91506200079082620008b0565b602082019050919050565b6000620007aa60108362000806565b9150620007b782620008d9565b602082019050919050565b60006020820190508181036000830152620007dd8162000774565b9050919050565b60006020820190508181036000830152620007ff816200079b565b9050919050565b600082825260208201905092915050565b600062000824826200082b565b9050919050565b600073ffffffffffffffffffffffffffffffffffffffff82169050919050565b600060028204905060018216806200086457607f821691505b602082108114156200087b576200087a62000881565b5b50919050565b7f4e487b7100000000000000000000000000000000000000000000000000000000600052602260045260246000fd5b7f4f776e61626c653a2063616c6c6572206973206e6f7420746865206f776e6572600082015250565b7f4d55535420424520475445203165313800000000000000000000000000000000600082015250565b6200090d8162000817565b81146200091957600080fd5b50565b615b37806200092c6000396000f3fe608060405234801561001057600080fd5b506004361061028a5760003560e01c806381c95fd21161015c578063a53696ac116100ce578063e82bef2911610087578063e82bef291461077f578063e8a3d4851461079d578063e985e9c5146107bb578063f0723d97146107eb578063f2fde38b1461081b578063fc70d5fd146108375761028a565b8063a53696ac146106ab578063b52bd9c6146106dd578063b88d4fde146106f9578063c318d8f814610715578063c68b9dfa14610731578063c87b56dd1461074f5761028a565b8063938e3d7b11610120578063938e3d7b146105ff57806395d89b411461061b5780639bd68fa4146106395780639c0a71de14610655578063a035b1fe14610671578063a22cb4651461068f5761028a565b806381c95fd21461057157806385dc30041461058d5780638da5cb5b146105a957806391b7f5ed146105c757806391c55855146105e35761028a565b806342842e0e1161020057806370a08231116101b957806370a08231146104b1578063715018a6146104e157806374cc31f2146104eb578063773c02d4146105075780637d72aa6514610537578063809a6cd6146105535761028a565b806342842e0e146103f357806342966c681461040f5780634451d89f1461042b5780635d764b3e146104355780636352211e146104655780636e8b2a48146104955761028a565b806318160ddd1161025257806318160ddd1461035957806320d83a061461037757806323b872dd146103955780632ebd1e28146103b15780633451eee8146103cd5780633ccfd60b146103e95761028a565b806301ffc9a71461028f57806306fdde03146102bf578063081812fc146102dd578063095ea7b31461030d5780630bb78ec114610329575b600080fd5b6102a960048036038101906102a491906145ad565b610867565b6040516102b69190614d04565b60405180910390f35b6102c7610949565b6040516102d49190614d3a565b60405180910390f35b6102f760048036038101906102f29190614713565b6109db565b6040516103049190614c3d565b60405180910390f35b610327600480360381019061032291906144bd565b610a60565b005b610343600480360381019061033e9190614713565b610b78565b6040516103509190614d3a565b60405180910390f35b610361610c18565b60405161036e919061509c565b60405180910390f35b61037f610c29565b60405161038c919061509c565b60405180910390f35b6103af60048036038101906103aa919061430f565b610c2f565b005b6103cb60048036038101906103c691906142aa565b610cbb565b005b6103e760048036038101906103e29190614713565b610d7b565b005b6103f1610e01565b005b61040d6004803603810190610408919061430f565b611045565b005b61042960048036038101906104249190614713565b611065565b005b6104336110ed565b005b61044f600480360381019061044a9190614469565b61142a565b60405161045c9190614d04565b60405180910390f35b61047f600480360381019061047a9190614713565b6115cb565b60405161048c9190614c3d565b60405180910390f35b6104af60048036038101906104aa91906146bf565b61167d565b005b6104cb60048036038101906104c691906142aa565b611a06565b6040516104d8919061509c565b60405180910390f35b6104e9611abe565b005b61050560048036038101906105009190614571565b611b46565b005b610521600480360381019061051c91906142aa565b611bf4565b60405161052e919061509c565b60405180910390f35b610551600480360381019061054c9190614469565b611c0c565b005b61055b611d53565b6040516105689190614d1f565b60405180910390f35b61058b60048036038101906105869190614713565b611d79565b005b6105a760048036038101906105a291906142aa565b611e4a565b005b6105b1611f0a565b6040516105be9190614c3d565b60405180910390f35b6105e160048036038101906105dc9190614713565b611f34565b005b6105fd60048036038101906105f891906143d9565b612005565b005b610619600480360381019061061491906145ff565b612127565b005b6106236121bd565b6040516106309190614d3a565b60405180910390f35b610653600480360381019061064e9190614765565b61224f565b005b61066f600480360381019061066a91906144f9565b6122d3565b005b610679612454565b604051610686919061509c565b60405180910390f35b6106a960048036038101906106a4919061442d565b61245a565b005b6106c560048036038101906106c091906142aa565b612470565b6040516106d4939291906150b7565b60405180910390f35b6106f760048036038101906106f291906145ff565b61249a565b005b610713600480360381019061070e919061435e565b61275a565b005b61072f600480360381019061072a9190614765565b6127bc565b005b610739612846565b604051610746919061509c565b60405180910390f35b61076960048036038101906107649190614713565b61284c565b6040516107769190614d3a565b60405180910390f35b61078761293b565b6040516107949190614c3d565b60405180910390f35b6107a5612961565b6040516107b29190614d3a565b60405180910390f35b6107d560048036038101906107d091906142d3565b6129f3565b6040516107e29190614d04565b60405180910390f35b610805600480360381019061080091906144bd565b612a87565b6040516108129190614d3a565b60405180910390f35b610835600480360381019061083091906142aa565b612b40565b005b610851600480360381019061084c9190614640565b612c38565b60405161085e919061509c565b60405180910390f35b60007f80ac58cd000000000000000000000000000000000000000000000000000000007bffffffffffffffffffffffffffffffffffffffffffffffffffffffff1916827bffffffffffffffffffffffffffffffffffffffffffffffffffffffff1916148061093257507f5b5e139f000000000000000000000000000000000000000000000000000000007bffffffffffffffffffffffffffffffffffffffffffffffffffffffff1916827bffffffffffffffffffffffffffffffffffffffffffffffffffffffff1916145b80610942575061094182612d17565b5b9050919050565b60606000805461095890615352565b80601f016020809104026020016040519081016040528092919081815260200182805461098490615352565b80156109d15780601f106109a6576101008083540402835291602001916109d1565b820191906000526020600020905b8154815290600101906020018083116109b457829003601f168201915b5050505050905090565b60006109e682612d81565b610a25576040517f08c379a0000000000000000000000000000000000000000000000000000000008152600401610a1c90614f3c565b60405180910390fd5b6004600083815260200190815260200160002060009054906101000a900473ffffffffffffffffffffffffffffffffffffffff169050919050565b6000610a6b826115cb565b90508073ffffffffffffffffffffffffffffffffffffffff168373ffffffffffffffffffffffffffffffffffffffff161415610adc576040517f08c379a0000000000000000000000000000000000000000000000000000000008152600401610ad390614ffc565b60405180910390fd5b8073ffffffffffffffffffffffffffffffffffffffff16610afb612ded565b73ffffffffffffffffffffffffffffffffffffffff161480610b2a5750610b2981610b24612ded565b6129f3565b5b610b69576040517f08c379a0000000000000000000000000000000000000000000000000000000008152600401610b6090614e7c565b60405180910390fd5b610b738383612df5565b505050565b60106020528060005260406000206000915090508054610b9790615352565b80601f0160208091040260200160405190810160405280929190818152602001828054610bc390615352565b8015610c105780601f10610be557610100808354040283529160200191610c10565b820191906000526020600020905b815481529060010190602001808311610bf357829003601f168201915b505050505081565b6000610c246007612eae565b905090565b600b5481565b610c37612ded565b73ffffffffffffffffffffffffffffffffffffffff16610c55611f0a565b73ffffffffffffffffffffffffffffffffffffffff1614610cab576040517f08c379a0000000000000000000000000000000000000000000000000000000008152600401610ca290614f7c565b60405180910390fd5b610cb6838383612ebc565b505050565b610cc3612ded565b73ffffffffffffffffffffffffffffffffffffffff16610ce1611f0a565b73ffffffffffffffffffffffffffffffffffffffff1614610d37576040517f08c379a0000000000000000000000000000000000000000000000000000000008152600401610d2e90614f7c565b60405180910390fd5b80600860006101000a81548173ffffffffffffffffffffffffffffffffffffffff021916908373ffffffffffffffffffffffffffffffffffffffff16021790555050565b610d83612ded565b73ffffffffffffffffffffffffffffffffffffffff16610da1611f0a565b73ffffffffffffffffffffffffffffffffffffffff1614610df7576040517f08c379a0000000000000000000000000000000000000000000000000000000008152600401610dee90614f7c565b60405180910390fd5b80600a8190555050565b610e09612ded565b73ffffffffffffffffffffffffffffffffffffffff16610e27611f0a565b73ffffffffffffffffffffffffffffffffffffffff1614610e7d576040517f08c379a0000000000000000000000000000000000000000000000000000000008152600401610e7490614f7c565b60405180910390fd5b6000600860009054906101000a900473ffffffffffffffffffffffffffffffffffffffff1673ffffffffffffffffffffffffffffffffffffffff166370a08231306040518263ffffffff1660e01b8152600401610eda9190614c3d565b60206040518083038186803b158015610ef257600080fd5b505afa158015610f06573d6000803e3d6000fd5b505050506040513d601f19601f82011682018060405250810190610f2a919061473c565b90506000600860009054906101000a900473ffffffffffffffffffffffffffffffffffffffff1673ffffffffffffffffffffffffffffffffffffffff1663a9059cbb600c60009054906101000a900473ffffffffffffffffffffffffffffffffffffffff16846040518363ffffffff1660e01b8152600401610fad929190614cdb565b602060405180830381600087803b158015610fc757600080fd5b505af1158015610fdb573d6000803e3d6000fd5b505050506040513d601f19601f82011682018060405250810190610fff9190614548565b905080611041576040517f08c379a000000000000000000000000000000000000000000000000000000000815260040161103890614d5c565b60405180910390fd5b5050565b6110608383836040518060200160405280600081525061275a565b505050565b61106d612ded565b73ffffffffffffffffffffffffffffffffffffffff1661108b611f0a565b73ffffffffffffffffffffffffffffffffffffffff16146110e1576040517f08c379a00000000000000000000000000000000000000000000000000000000081526004016110d890614f7c565b60405180910390fd5b6110ea81613123565b50565b3360006110f982611a06565b141561113a576040517f08c379a00000000000000000000000000000000000000000000000000000000081526004016111319061507c565b60405180910390fd5b6000601260003373ffffffffffffffffffffffffffffffffffffffff1673ffffffffffffffffffffffffffffffffffffffff168152602001908152602001600020600101549050600081116111c4576040517f08c379a00000000000000000000000000000000000000000000000000000000081526004016111bb90614dbc565b60405180910390fd5b80600860009054906101000a900473ffffffffffffffffffffffffffffffffffffffff1673ffffffffffffffffffffffffffffffffffffffff166370a08231306040518263ffffffff1660e01b81526004016112209190614c3d565b60206040518083038186803b15801561123857600080fd5b505afa15801561124c573d6000803e3d6000fd5b505050506040513d601f19601f82011682018060405250810190611270919061473c565b10156112b1576040517f08c379a00000000000000000000000000000000000000000000000000000000081526004016112a890614f9c565b60405180910390fd5b6000600860009054906101000a900473ffffffffffffffffffffffffffffffffffffffff1673ffffffffffffffffffffffffffffffffffffffff1663a9059cbb33846040518363ffffffff1660e01b8152600401611310929190614cdb565b602060405180830381600087803b15801561132a57600080fd5b505af115801561133e573d6000803e3d6000fd5b505050506040513d601f19601f820116820180604052508101906113629190614548565b9050806113a4576040517f08c379a000000000000000000000000000000000000000000000000000000000815260040161139b90614d5c565b60405180910390fd5b6000601260003373ffffffffffffffffffffffffffffffffffffffff1673ffffffffffffffffffffffffffffffffffffffff168152602001908152602001600020600101819055507f9f2482fecb753a122941f19538876a5b4fdc080a83d01c5f28edde774561cc74338360405161141d929190614cdb565b60405180910390a1505050565b600080601160008573ffffffffffffffffffffffffffffffffffffffff1673ffffffffffffffffffffffffffffffffffffffff168152602001908152602001600020805480602002602001604051908101604052809291908181526020016000905b828210156115385783829060005260206000200180546114ab90615352565b80601f01602080910402602001604051908101604052809291908181526020018280546114d790615352565b80156115245780601f106114f957610100808354040283529160200191611524565b820191906000526020600020905b81548152906001019060200180831161150757829003601f168201915b50505050508152602001906001019061148c565b50505050905060005b81518110156115be57838051906020012082828151811061158b577f4e487b7100000000000000000000000000000000000000000000000000000000600052603260045260246000fd5b60200260200101518051906020012014156115ab576001925050506115c5565b80806115b6906153b5565b915050611541565b5060009150505b92915050565b6000806002600084815260200190815260200160002060009054906101000a900473ffffffffffffffffffffffffffffffffffffffff169050600073ffffffffffffffffffffffffffffffffffffffff168173ffffffffffffffffffffffffffffffffffffffff161415611674576040517f08c379a000000000000000000000000000000000000000000000000000000000815260040161166b90614efc565b60405180910390fd5b80915050919050565b33600061168982611a06565b146116c9576040517f08c379a00000000000000000000000000000000000000000000000000000000081526004016116c090614e9c565b60405180910390fd5b600083511161170d576040517f08c379a000000000000000000000000000000000000000000000000000000000815260040161170490614fbc565b60405180910390fd5b600954821015611752576040517f08c379a000000000000000000000000000000000000000000000000000000000815260040161174990614dbc565b60405180910390fd5b6000600860009054906101000a900473ffffffffffffffffffffffffffffffffffffffff1673ffffffffffffffffffffffffffffffffffffffff166323b872dd3330866040518463ffffffff1660e01b81526004016117b393929190614c58565b602060405180830381600087803b1580156117cd57600080fd5b505af11580156117e1573d6000803e3d6000fd5b505050506040513d601f19601f820116820180604052508101906118059190614548565b905080611847576040517f08c379a000000000000000000000000000000000000000000000000000000000815260040161183e90614d5c565b60405180910390fd5b6000600267ffffffffffffffff81111561188a577f4e487b7100000000000000000000000000000000000000000000000000000000600052604160045260246000fd5b6040519080825280602002602001820160405280156118bd57816020015b60608152602001906001900390816118a85790505b5090506040518060400160405280600681526020017f4d454d424552000000000000000000000000000000000000000000000000000081525081600081518110611930577f4e487b7100000000000000000000000000000000000000000000000000000000600052603260045260246000fd5b60200260200101819052506040518060400160405280600681526020017f4d494e5445520000000000000000000000000000000000000000000000000000815250816001815181106119ab577f4e487b7100000000000000000000000000000000000000000000000000000000600052603260045260246000fd5b602002602001018190525060006119c3868333613240565b90507f0ba0a4f7c9cffadda8819a89af023adc6cea0f94e3b91ec4dd2544993a2ad8d833826040516119f6929190614cdb565b60405180910390a1505050505050565b60008073ffffffffffffffffffffffffffffffffffffffff168273ffffffffffffffffffffffffffffffffffffffff161415611a77576040517f08c379a0000000000000000000000000000000000000000000000000000000008152600401611a6e90614edc565b60405180910390fd5b600360008373ffffffffffffffffffffffffffffffffffffffff1673ffffffffffffffffffffffffffffffffffffffff168152602001908152602001600020549050919050565b611ac6612ded565b73ffffffffffffffffffffffffffffffffffffffff16611ae4611f0a565b73ffffffffffffffffffffffffffffffffffffffff1614611b3a576040517f08c379a0000000000000000000000000000000000000000000000000000000008152600401611b3190614f7c565b60405180910390fd5b611b44600061335e565b565b611b4e612ded565b73ffffffffffffffffffffffffffffffffffffffff16611b6c611f0a565b73ffffffffffffffffffffffffffffffffffffffff1614611bc2576040517f08c379a0000000000000000000000000000000000000000000000000000000008152600401611bb990614f7c565b60405180910390fd5b604051806040016040528082815260200183815250600e60008201518160000155602082015181600101559050505050565b60136020528060005260406000206000915090505481565b611c14612ded565b73ffffffffffffffffffffffffffffffffffffffff16611c32611f0a565b73ffffffffffffffffffffffffffffffffffffffff1614611c88576040517f08c379a0000000000000000000000000000000000000000000000000000000008152600401611c7f90614f7c565b60405180910390fd5b816000611c9482611a06565b1415611cd5576040517f08c379a0000000000000000000000000000000000000000000000000000000008152600401611ccc9061507c565b60405180910390fd5b601160008473ffffffffffffffffffffffffffffffffffffffff1673ffffffffffffffffffffffffffffffffffffffff16815260200190815260200160002082908060018154018082558091505060019003906000526020600020016000909190919091509080519060200190611d4d929190613e05565b50505050565b600860009054906101000a900473ffffffffffffffffffffffffffffffffffffffff1681565b611d81612ded565b73ffffffffffffffffffffffffffffffffffffffff16611d9f611f0a565b73ffffffffffffffffffffffffffffffffffffffff1614611df5576040517f08c379a0000000000000000000000000000000000000000000000000000000008152600401611dec90614f7c565b60405180910390fd5b670de0b6b3a7640000811015611e40576040517f08c379a0000000000000000000000000000000000000000000000000000000008152600401611e3790614fdc565b60405180910390fd5b80600b8190555050565b611e52612ded565b73ffffffffffffffffffffffffffffffffffffffff16611e70611f0a565b73ffffffffffffffffffffffffffffffffffffffff1614611ec6576040517f08c379a0000000000000000000000000000000000000000000000000000000008152600401611ebd90614f7c565b60405180910390fd5b80600c60006101000a81548173ffffffffffffffffffffffffffffffffffffffff021916908373ffffffffffffffffffffffffffffffffffffffff16021790555050565b6000600660009054906101000a900473ffffffffffffffffffffffffffffffffffffffff16905090565b611f3c612ded565b73ffffffffffffffffffffffffffffffffffffffff16611f5a611f0a565b73ffffffffffffffffffffffffffffffffffffffff1614611fb0576040517f08c379a0000000000000000000000000000000000000000000000000000000008152600401611fa790614f7c565b60405180910390fd5b670de0b6b3a7640000811015611ffb576040517f08c379a0000000000000000000000000000000000000000000000000000000008152600401611ff290614fdc565b60405180910390fd5b8060098190555050565b61200d612ded565b73ffffffffffffffffffffffffffffffffffffffff1661202b611f0a565b73ffffffffffffffffffffffffffffffffffffffff1614612081576040517f08c379a000000000000000000000000000000000000000000000000000000000815260040161207890614f7c565b60405180910390fd5b81600061208d82611a06565b14156120ce576040517f08c379a00000000000000000000000000000000000000000000000000000000081526004016120c59061507c565b60405180910390fd5b81601160008573ffffffffffffffffffffffffffffffffffffffff1673ffffffffffffffffffffffffffffffffffffffff1681526020019081526020016000209080519060200190612121929190613e8b565b50505050565b61212f612ded565b73ffffffffffffffffffffffffffffffffffffffff1661214d611f0a565b73ffffffffffffffffffffffffffffffffffffffff16146121a3576040517f08c379a000000000000000000000000000000000000000000000000000000000815260040161219a90614f7c565b60405180910390fd5b80600d90805190602001906121b9929190613e05565b5050565b6060600180546121cc90615352565b80601f01602080910402602001604051908101604052809291908181526020018280546121f890615352565b80156122455780601f1061221a57610100808354040283529160200191612245565b820191906000526020600020905b81548152906001019060200180831161222857829003601f168201915b5050505050905090565b3373ffffffffffffffffffffffffffffffffffffffff1661226f836115cb565b73ffffffffffffffffffffffffffffffffffffffff16146122c5576040517f08c379a00000000000000000000000000000000000000000000000000000000081526004016122bc9061503c565b60405180910390fd5b6122cf8282613424565b5050565b6122db612ded565b73ffffffffffffffffffffffffffffffffffffffff166122f9611f0a565b73ffffffffffffffffffffffffffffffffffffffff161461234f576040517f08c379a000000000000000000000000000000000000000000000000000000000815260040161234690614f7c565b60405180910390fd5b82600061235b82611a06565b141561239c576040517f08c379a00000000000000000000000000000000000000000000000000000000081526004016123939061507c565b60405180910390fd5b82601260008673ffffffffffffffffffffffffffffffffffffffff1673ffffffffffffffffffffffffffffffffffffffff16815260200190815260200160002060000160008282546123ee91906151e4565b9250508190555081601260008673ffffffffffffffffffffffffffffffffffffffff1673ffffffffffffffffffffffffffffffffffffffff168152602001908152602001600020600101600082825461244791906151e4565b9250508190555050505050565b60095481565b61246c612465612ded565b838361349a565b5050565b60126020528060005260406000206000915090508060000154908060010154908060020154905083565b3360006124a682611a06565b14156124e7576040517f08c379a00000000000000000000000000000000000000000000000000000000081526004016124de9061507c565b60405180910390fd5b816040516020016124f89190614c26565b60405160208183030381529060405280519060200120600e6001015414612554576040517f08c379a000000000000000000000000000000000000000000000000000000000815260040161254b90614ebc565b60405180910390fd5b600e60000154601260003373ffffffffffffffffffffffffffffffffffffffff1673ffffffffffffffffffffffffffffffffffffffff1681526020019081526020016000206002015411156125de576040517f08c379a00000000000000000000000000000000000000000000000000000000081526004016125d59061505c565b60405180910390fd5b600a54601260003373ffffffffffffffffffffffffffffffffffffffff1673ffffffffffffffffffffffffffffffffffffffff168152602001908152602001600020600001600082825461263291906151e4565b92505081905550600b54601260003373ffffffffffffffffffffffffffffffffffffffff1673ffffffffffffffffffffffffffffffffffffffff168152602001908152602001600020600101600082825461268d91906151e4565b9250508190555042601260003373ffffffffffffffffffffffffffffffffffffffff1673ffffffffffffffffffffffffffffffffffffffff168152602001908152602001600020600201819055507f6d60c7436b41e3e4b19b35cdca2fc514b81aac6096d8aa0729c8ab3585f7f93b33601260003373ffffffffffffffffffffffffffffffffffffffff1673ffffffffffffffffffffffffffffffffffffffff1681526020019081526020016000206002015460405161274e929190614cdb565b60405180910390a15050565b61276b612765612ded565b83613607565b6127aa576040517f08c379a00000000000000000000000000000000000000000000000000000000081526004016127a19061501c565b60405180910390fd5b6127b6848484846136e5565b50505050565b6127c4612ded565b73ffffffffffffffffffffffffffffffffffffffff166127e2611f0a565b73ffffffffffffffffffffffffffffffffffffffff1614612838576040517f08c379a000000000000000000000000000000000000000000000000000000000815260040161282f90614f7c565b60405180910390fd5b6128428282613424565b5050565b600a5481565b60608161285881612d81565b612897576040517f08c379a000000000000000000000000000000000000000000000000000000000815260040161288e90614f5c565b60405180910390fd5b6010600084815260200190815260200160002080546128b590615352565b80601f01602080910402602001604051908101604052809291908181526020018280546128e190615352565b801561292e5780601f106129035761010080835404028352916020019161292e565b820191906000526020600020905b81548152906001019060200180831161291157829003601f168201915b5050505050915050919050565b600c60009054906101000a900473ffffffffffffffffffffffffffffffffffffffff1681565b6060600d805461297090615352565b80601f016020809104026020016040519081016040528092919081815260200182805461299c90615352565b80156129e95780601f106129be576101008083540402835291602001916129e9565b820191906000526020600020905b8154815290600101906020018083116129cc57829003601f168201915b5050505050905090565b6000600560008473ffffffffffffffffffffffffffffffffffffffff1673ffffffffffffffffffffffffffffffffffffffff16815260200190815260200160002060008373ffffffffffffffffffffffffffffffffffffffff1673ffffffffffffffffffffffffffffffffffffffff16815260200190815260200160002060009054906101000a900460ff16905092915050565b60116020528160005260406000208181548110612aa357600080fd5b90600052602060002001600091509150508054612abf90615352565b80601f0160208091040260200160405190810160405280929190818152602001828054612aeb90615352565b8015612b385780601f10612b0d57610100808354040283529160200191612b38565b820191906000526020600020905b815481529060010190602001808311612b1b57829003601f168201915b505050505081565b612b48612ded565b73ffffffffffffffffffffffffffffffffffffffff16612b66611f0a565b73ffffffffffffffffffffffffffffffffffffffff1614612bbc576040517f08c379a0000000000000000000000000000000000000000000000000000000008152600401612bb390614f7c565b60405180910390fd5b600073ffffffffffffffffffffffffffffffffffffffff168173ffffffffffffffffffffffffffffffffffffffff161415612c2c576040517f08c379a0000000000000000000000000000000000000000000000000000000008152600401612c2390614d9c565b60405180910390fd5b612c358161335e565b50565b6000612c42612ded565b73ffffffffffffffffffffffffffffffffffffffff16612c60611f0a565b73ffffffffffffffffffffffffffffffffffffffff1614612cb6576040517f08c379a0000000000000000000000000000000000000000000000000000000008152600401612cad90614f7c565b60405180910390fd5b816000612cc282611a06565b14612d02576040517f08c379a0000000000000000000000000000000000000000000000000000000008152600401612cf990614e9c565b60405180910390fd5b612d0d858585613240565b9150509392505050565b60007f01ffc9a7000000000000000000000000000000000000000000000000000000007bffffffffffffffffffffffffffffffffffffffffffffffffffffffff1916827bffffffffffffffffffffffffffffffffffffffffffffffffffffffff1916149050919050565b60008073ffffffffffffffffffffffffffffffffffffffff166002600084815260200190815260200160002060009054906101000a900473ffffffffffffffffffffffffffffffffffffffff1673ffffffffffffffffffffffffffffffffffffffff1614159050919050565b600033905090565b816004600083815260200190815260200160002060006101000a81548173ffffffffffffffffffffffffffffffffffffffff021916908373ffffffffffffffffffffffffffffffffffffffff160217905550808273ffffffffffffffffffffffffffffffffffffffff16612e68836115cb565b73ffffffffffffffffffffffffffffffffffffffff167f8c5be1e5ebec7d5bd14f71427d1e84f3dd0314c0f7b2291e5b200ac8c7c3b92560405160405180910390a45050565b600081600001549050919050565b8273ffffffffffffffffffffffffffffffffffffffff16612edc826115cb565b73ffffffffffffffffffffffffffffffffffffffff1614612f32576040517f08c379a0000000000000000000000000000000000000000000000000000000008152600401612f2990614ddc565b60405180910390fd5b600073ffffffffffffffffffffffffffffffffffffffff168273ffffffffffffffffffffffffffffffffffffffff161415612fa2576040517f08c379a0000000000000000000000000000000000000000000000000000000008152600401612f9990614e1c565b60405180910390fd5b612fad838383613741565b612fb8600082612df5565b6001600360008573ffffffffffffffffffffffffffffffffffffffff1673ffffffffffffffffffffffffffffffffffffffff1681526020019081526020016000206000828254613008919061523a565b925050819055506001600360008473ffffffffffffffffffffffffffffffffffffffff1673ffffffffffffffffffffffffffffffffffffffff168152602001908152602001600020600082825461305f91906151e4565b92505081905550816002600083815260200190815260200160002060006101000a81548173ffffffffffffffffffffffffffffffffffffffff021916908373ffffffffffffffffffffffffffffffffffffffff160217905550808273ffffffffffffffffffffffffffffffffffffffff168473ffffffffffffffffffffffffffffffffffffffff167fddf252ad1be2c89b69c2b068fc378daa952ba7f163c4a11628f55a4df523b3ef60405160405180910390a461311e838383613746565b505050565b600061312e826115cb565b905061313c81600084613741565b613147600083612df5565b6001600360008373ffffffffffffffffffffffffffffffffffffffff1673ffffffffffffffffffffffffffffffffffffffff1681526020019081526020016000206000828254613197919061523a565b925050819055506002600083815260200190815260200160002060006101000a81549073ffffffffffffffffffffffffffffffffffffffff021916905581600073ffffffffffffffffffffffffffffffffffffffff168273ffffffffffffffffffffffffffffffffffffffff167fddf252ad1be2c89b69c2b068fc378daa952ba7f163c4a11628f55a4df523b3ef60405160405180910390a461323c81600084613746565b5050565b600033600061324e82611a06565b1461328e576040517f08c379a000000000000000000000000000000000000000000000000000000000815260040161328590614e9c565b60405180910390fd5b61329860076139e2565b60006132a46007612eae565b90506132b084826139f8565b80601360008673ffffffffffffffffffffffffffffffffffffffff1673ffffffffffffffffffffffffffffffffffffffff1681526020019081526020016000208190555084601160008673ffffffffffffffffffffffffffffffffffffffff1673ffffffffffffffffffffffffffffffffffffffff1681526020019081526020016000209080519060200190613347929190613e8b565b506133528187613424565b80925050509392505050565b6000600660009054906101000a900473ffffffffffffffffffffffffffffffffffffffff16905081600660006101000a81548173ffffffffffffffffffffffffffffffffffffffff021916908373ffffffffffffffffffffffffffffffffffffffff1602179055508173ffffffffffffffffffffffffffffffffffffffff168173ffffffffffffffffffffffffffffffffffffffff167f8be0079c531659141344cd1fd0a4f28419497f9722a3daafe3b4186f6b6457e060405160405180910390a35050565b8161342e81612d81565b61346d576040517f08c379a000000000000000000000000000000000000000000000000000000000815260040161346490614f5c565b60405180910390fd5b81601060008581526020019081526020016000209080519060200190613494929190613e05565b50505050565b8173ffffffffffffffffffffffffffffffffffffffff168373ffffffffffffffffffffffffffffffffffffffff161415613509576040517f08c379a000000000000000000000000000000000000000000000000000000000815260040161350090614e3c565b60405180910390fd5b80600560008573ffffffffffffffffffffffffffffffffffffffff1673ffffffffffffffffffffffffffffffffffffffff16815260200190815260200160002060008473ffffffffffffffffffffffffffffffffffffffff1673ffffffffffffffffffffffffffffffffffffffff16815260200190815260200160002060006101000a81548160ff0219169083151502179055508173ffffffffffffffffffffffffffffffffffffffff168373ffffffffffffffffffffffffffffffffffffffff167f17307eab39ab6107e8899845ad3d59bd9653f200f220920489ca2b5937696c31836040516135fa9190614d04565b60405180910390a3505050565b600061361282612d81565b613651576040517f08c379a000000000000000000000000000000000000000000000000000000000815260040161364890614e5c565b60405180910390fd5b600061365c836115cb565b90508073ffffffffffffffffffffffffffffffffffffffff168473ffffffffffffffffffffffffffffffffffffffff1614806136cb57508373ffffffffffffffffffffffffffffffffffffffff166136b3846109db565b73ffffffffffffffffffffffffffffffffffffffff16145b806136dc57506136db81856129f3565b5b91505092915050565b6136f0848484612ebc565b6136fc84848484613a16565b61373b576040517f08c379a000000000000000000000000000000000000000000000000000000000815260040161373290614d7c565b60405180910390fd5b50505050565b505050565b601160008473ffffffffffffffffffffffffffffffffffffffff1673ffffffffffffffffffffffffffffffffffffffff168152602001908152602001600020601160008473ffffffffffffffffffffffffffffffffffffffff1673ffffffffffffffffffffffffffffffffffffffff1681526020019081526020016000209080546137d2929190613eeb565b50601360008473ffffffffffffffffffffffffffffffffffffffff1673ffffffffffffffffffffffffffffffffffffffff16815260200190815260200160002054601360008473ffffffffffffffffffffffffffffffffffffffff1673ffffffffffffffffffffffffffffffffffffffff16815260200190815260200160002081905550601260008473ffffffffffffffffffffffffffffffffffffffff1673ffffffffffffffffffffffffffffffffffffffff168152602001908152602001600020601260008473ffffffffffffffffffffffffffffffffffffffff1673ffffffffffffffffffffffffffffffffffffffff168152602001908152602001600020600082015481600001556001820154816001015560028201548160020155905050601160008473ffffffffffffffffffffffffffffffffffffffff1673ffffffffffffffffffffffffffffffffffffffff16815260200190815260200160002060006139409190613f53565b601360008473ffffffffffffffffffffffffffffffffffffffff1673ffffffffffffffffffffffffffffffffffffffff16815260200190815260200160002060009055601260008473ffffffffffffffffffffffffffffffffffffffff1673ffffffffffffffffffffffffffffffffffffffff168152602001908152602001600020600080820160009055600182016000905560028201600090555050505050565b6001816000016000828254019250508190555050565b613a12828260405180602001604052806000815250613bad565b5050565b6000613a378473ffffffffffffffffffffffffffffffffffffffff16613c08565b15613ba0578373ffffffffffffffffffffffffffffffffffffffff1663150b7a02613a60612ded565b8786866040518563ffffffff1660e01b8152600401613a829493929190614c8f565b602060405180830381600087803b158015613a9c57600080fd5b505af1925050508015613acd57506040513d601f19601f82011682018060405250810190613aca91906145d6565b60015b613b50573d8060008114613afd576040519150601f19603f3d011682016040523d82523d6000602084013e613b02565b606091505b50600081511415613b48576040517f08c379a0000000000000000000000000000000000000000000000000000000008152600401613b3f90614d7c565b60405180910390fd5b805181602001fd5b63150b7a0260e01b7bffffffffffffffffffffffffffffffffffffffffffffffffffffffff1916817bffffffffffffffffffffffffffffffffffffffffffffffffffffffff191614915050613ba5565b600190505b949350505050565b613bb78383613c2b565b613bc46000848484613a16565b613c03576040517f08c379a0000000000000000000000000000000000000000000000000000000008152600401613bfa90614d7c565b60405180910390fd5b505050565b6000808273ffffffffffffffffffffffffffffffffffffffff163b119050919050565b600073ffffffffffffffffffffffffffffffffffffffff168273ffffffffffffffffffffffffffffffffffffffff161415613c9b576040517f08c379a0000000000000000000000000000000000000000000000000000000008152600401613c9290614f1c565b60405180910390fd5b613ca481612d81565b15613ce4576040517f08c379a0000000000000000000000000000000000000000000000000000000008152600401613cdb90614dfc565b60405180910390fd5b613cf060008383613741565b6001600360008473ffffffffffffffffffffffffffffffffffffffff1673ffffffffffffffffffffffffffffffffffffffff1681526020019081526020016000206000828254613d4091906151e4565b92505081905550816002600083815260200190815260200160002060006101000a81548173ffffffffffffffffffffffffffffffffffffffff021916908373ffffffffffffffffffffffffffffffffffffffff160217905550808273ffffffffffffffffffffffffffffffffffffffff16600073ffffffffffffffffffffffffffffffffffffffff167fddf252ad1be2c89b69c2b068fc378daa952ba7f163c4a11628f55a4df523b3ef60405160405180910390a4613e0160008383613746565b5050565b828054613e1190615352565b90600052602060002090601f016020900481019282613e335760008555613e7a565b82601f10613e4c57805160ff1916838001178555613e7a565b82800160010185558215613e7a579182015b82811115613e79578251825591602001919060010190613e5e565b5b509050613e879190613f74565b5090565b828054828255906000526020600020908101928215613eda579160200282015b82811115613ed9578251829080519060200190613ec9929190613e05565b5091602001919060010190613eab565b5b509050613ee79190613f91565b5090565b828054828255906000526020600020908101928215613f425760005260206000209182015b82811115613f41578282908054613f2690615352565b613f31929190613fb5565b5091600101919060010190613f10565b5b509050613f4f9190613f91565b5090565b5080546000825590600052602060002090810190613f719190613f91565b50565b5b80821115613f8d576000816000905550600101613f75565b5090565b5b80821115613fb15760008181613fa89190614042565b50600101613f92565b5090565b828054613fc190615352565b90600052602060002090601f016020900481019282613fe35760008555614031565b82601f10613ff45780548555614031565b8280016001018555821561403157600052602060002091601f016020900482015b82811115614030578254825591600101919060010190614015565b5b50905061403e9190613f74565b5090565b50805461404e90615352565b6000825580601f10614060575061407f565b601f01602090049060005260206000209081019061407e9190613f74565b5b50565b600061409561409084615113565b6150ee565b905080838252602082019050828560208602820111156140b457600080fd5b60005b858110156140fe57813567ffffffffffffffff8111156140d657600080fd5b8086016140e38982614256565b855260208501945060208401935050506001810190506140b7565b5050509392505050565b600061411b6141168461513f565b6150ee565b90508281526020810184848401111561413357600080fd5b61413e848285615310565b509392505050565b600061415961415484615170565b6150ee565b90508281526020810184848401111561417157600080fd5b61417c848285615310565b509392505050565b60008135905061419381615a8e565b92915050565b600082601f8301126141aa57600080fd5b81356141ba848260208601614082565b91505092915050565b6000813590506141d281615aa5565b92915050565b6000815190506141e781615aa5565b92915050565b6000813590506141fc81615abc565b92915050565b60008135905061421181615ad3565b92915050565b60008151905061422681615ad3565b92915050565b600082601f83011261423d57600080fd5b813561424d848260208601614108565b91505092915050565b600082601f83011261426757600080fd5b8135614277848260208601614146565b91505092915050565b60008135905061428f81615aea565b92915050565b6000815190506142a481615aea565b92915050565b6000602082840312156142bc57600080fd5b60006142ca84828501614184565b91505092915050565b600080604083850312156142e657600080fd5b60006142f485828601614184565b925050602061430585828601614184565b9150509250929050565b60008060006060848603121561432457600080fd5b600061433286828701614184565b935050602061434386828701614184565b925050604061435486828701614280565b9150509250925092565b6000806000806080858703121561437457600080fd5b600061438287828801614184565b945050602061439387828801614184565b93505060406143a487828801614280565b925050606085013567ffffffffffffffff8111156143c157600080fd5b6143cd8782880161422c565b91505092959194509250565b600080604083850312156143ec57600080fd5b60006143fa85828601614184565b925050602083013567ffffffffffffffff81111561441757600080fd5b61442385828601614199565b9150509250929050565b6000806040838503121561444057600080fd5b600061444e85828601614184565b925050602061445f858286016141c3565b9150509250929050565b6000806040838503121561447c57600080fd5b600061448a85828601614184565b925050602083013567ffffffffffffffff8111156144a757600080fd5b6144b385828601614256565b9150509250929050565b600080604083850312156144d057600080fd5b60006144de85828601614184565b92505060206144ef85828601614280565b9150509250929050565b60008060006060848603121561450e57600080fd5b600061451c86828701614184565b935050602061452d86828701614280565b925050604061453e86828701614280565b9150509250925092565b60006020828403121561455a57600080fd5b6000614568848285016141d8565b91505092915050565b6000806040838503121561458457600080fd5b6000614592858286016141ed565b92505060206145a385828601614280565b9150509250929050565b6000602082840312156145bf57600080fd5b60006145cd84828501614202565b91505092915050565b6000602082840312156145e857600080fd5b60006145f684828501614217565b91505092915050565b60006020828403121561461157600080fd5b600082013567ffffffffffffffff81111561462b57600080fd5b61463784828501614256565b91505092915050565b60008060006060848603121561465557600080fd5b600084013567ffffffffffffffff81111561466f57600080fd5b61467b86828701614256565b935050602084013567ffffffffffffffff81111561469857600080fd5b6146a486828701614199565b92505060406146b586828701614184565b9150509250925092565b600080604083850312156146d257600080fd5b600083013567ffffffffffffffff8111156146ec57600080fd5b6146f885828601614256565b925050602061470985828601614280565b9150509250929050565b60006020828403121561472557600080fd5b600061473384828501614280565b91505092915050565b60006020828403121561474e57600080fd5b600061475c84828501614295565b91505092915050565b6000806040838503121561477857600080fd5b600061478685828601614280565b925050602083013567ffffffffffffffff8111156147a357600080fd5b6147af85828601614256565b9150509250929050565b6147c28161526e565b82525050565b6147d181615280565b82525050565b60006147e2826151a1565b6147ec81856151b7565b93506147fc81856020860161531f565b6148058161548b565b840191505092915050565b614819816152ec565b82525050565b600061482a826151ac565b61483481856151c8565b935061484481856020860161531f565b61484d8161548b565b840191505092915050565b6000614863826151ac565b61486d81856151d9565b935061487d81856020860161531f565b80840191505092915050565b60006148966009836151c8565b91506148a18261549c565b602082019050919050565b60006148b96032836151c8565b91506148c4826154c5565b604082019050919050565b60006148dc6026836151c8565b91506148e782615514565b604082019050919050565b60006148ff6013836151c8565b915061490a82615563565b602082019050919050565b60006149226025836151c8565b915061492d8261558c565b604082019050919050565b6000614945601c836151c8565b9150614950826155db565b602082019050919050565b60006149686024836151c8565b915061497382615604565b604082019050919050565b600061498b6019836151c8565b915061499682615653565b602082019050919050565b60006149ae602c836151c8565b91506149b98261567c565b604082019050919050565b60006149d16038836151c8565b91506149dc826156cb565b604082019050919050565b60006149f46013836151c8565b91506149ff8261571a565b602082019050919050565b6000614a17600c836151c8565b9150614a2282615743565b602082019050919050565b6000614a3a602a836151c8565b9150614a458261576c565b604082019050919050565b6000614a5d6029836151c8565b9150614a68826157bb565b604082019050919050565b6000614a806020836151c8565b9150614a8b8261580a565b602082019050919050565b6000614aa3602c836151c8565b9150614aae82615833565b604082019050919050565b6000614ac6602c836151c8565b9150614ad182615882565b604082019050919050565b6000614ae96020836151c8565b9150614af4826158d1565b602082019050919050565b6000614b0c6012836151c8565b9150614b17826158fa565b602082019050919050565b6000614b2f6010836151c8565b9150614b3a82615923565b602082019050919050565b6000614b526010836151c8565b9150614b5d8261594c565b602082019050919050565b6000614b756021836151c8565b9150614b8082615975565b604082019050919050565b6000614b986031836151c8565b9150614ba3826159c4565b604082019050919050565b6000614bbb600d836151c8565b9150614bc682615a13565b602082019050919050565b6000614bde6010836151c8565b9150614be982615a3c565b602082019050919050565b6000614c01600e836151c8565b9150614c0c82615a65565b602082019050919050565b614c20816152e2565b82525050565b6000614c328284614858565b915081905092915050565b6000602082019050614c5260008301846147b9565b92915050565b6000606082019050614c6d60008301866147b9565b614c7a60208301856147b9565b614c876040830184614c17565b949350505050565b6000608082019050614ca460008301876147b9565b614cb160208301866147b9565b614cbe6040830185614c17565b8181036060830152614cd081846147d7565b905095945050505050565b6000604082019050614cf060008301856147b9565b614cfd6020830184614c17565b9392505050565b6000602082019050614d1960008301846147c8565b92915050565b6000602082019050614d346000830184614810565b92915050565b60006020820190508181036000830152614d54818461481f565b905092915050565b60006020820190508181036000830152614d7581614889565b9050919050565b60006020820190508181036000830152614d95816148ac565b9050919050565b60006020820190508181036000830152614db5816148cf565b9050919050565b60006020820190508181036000830152614dd5816148f2565b9050919050565b60006020820190508181036000830152614df581614915565b9050919050565b60006020820190508181036000830152614e1581614938565b9050919050565b60006020820190508181036000830152614e358161495b565b9050919050565b60006020820190508181036000830152614e558161497e565b9050919050565b60006020820190508181036000830152614e75816149a1565b9050919050565b60006020820190508181036000830152614e95816149c4565b9050919050565b60006020820190508181036000830152614eb5816149e7565b9050919050565b60006020820190508181036000830152614ed581614a0a565b9050919050565b60006020820190508181036000830152614ef581614a2d565b9050919050565b60006020820190508181036000830152614f1581614a50565b9050919050565b60006020820190508181036000830152614f3581614a73565b9050919050565b60006020820190508181036000830152614f5581614a96565b9050919050565b60006020820190508181036000830152614f7581614ab9565b9050919050565b60006020820190508181036000830152614f9581614adc565b9050919050565b60006020820190508181036000830152614fb581614aff565b9050919050565b60006020820190508181036000830152614fd581614b22565b9050919050565b60006020820190508181036000830152614ff581614b45565b9050919050565b6000602082019050818103600083015261501581614b68565b9050919050565b6000602082019050818103600083015261503581614b8b565b9050919050565b6000602082019050818103600083015261505581614bae565b9050919050565b6000602082019050818103600083015261507581614bd1565b9050919050565b6000602082019050818103600083015261509581614bf4565b9050919050565b60006020820190506150b16000830184614c17565b92915050565b60006060820190506150cc6000830186614c17565b6150d96020830185614c17565b6150e66040830184614c17565b949350505050565b60006150f8615109565b90506151048282615384565b919050565b6000604051905090565b600067ffffffffffffffff82111561512e5761512d61545c565b5b602082029050602081019050919050565b600067ffffffffffffffff82111561515a5761515961545c565b5b6151638261548b565b9050602081019050919050565b600067ffffffffffffffff82111561518b5761518a61545c565b5b6151948261548b565b9050602081019050919050565b600081519050919050565b600081519050919050565b600082825260208201905092915050565b600082825260208201905092915050565b600081905092915050565b60006151ef826152e2565b91506151fa836152e2565b9250827fffffffffffffffffffffffffffffffffffffffffffffffffffffffffffffffff0382111561522f5761522e6153fe565b5b828201905092915050565b6000615245826152e2565b9150615250836152e2565b925082821015615263576152626153fe565b5b828203905092915050565b6000615279826152c2565b9050919050565b60008115159050919050565b6000819050919050565b60007fffffffff0000000000000000000000000000000000000000000000000000000082169050919050565b600073ffffffffffffffffffffffffffffffffffffffff82169050919050565b6000819050919050565b60006152f7826152fe565b9050919050565b6000615309826152c2565b9050919050565b82818337600083830152505050565b60005b8381101561533d578082015181840152602081019050615322565b8381111561534c576000848401525b50505050565b6000600282049050600182168061536a57607f821691505b6020821081141561537e5761537d61542d565b5b50919050565b61538d8261548b565b810181811067ffffffffffffffff821117156153ac576153ab61545c565b5b80604052505050565b60006153c0826152e2565b91507fffffffffffffffffffffffffffffffffffffffffffffffffffffffffffffffff8214156153f3576153f26153fe565b5b600182019050919050565b7f4e487b7100000000000000000000000000000000000000000000000000000000600052601160045260246000fd5b7f4e487b7100000000000000000000000000000000000000000000000000000000600052602260045260246000fd5b7f4e487b7100000000000000000000000000000000000000000000000000000000600052604160045260246000fd5b6000601f19601f8301169050919050565b7f5458204641494c45440000000000000000000000000000000000000000000000600082015250565b7f4552433732313a207472616e7366657220746f206e6f6e20455243373231526560008201527f63656976657220696d706c656d656e7465720000000000000000000000000000602082015250565b7f4f776e61626c653a206e6577206f776e657220697320746865207a65726f206160008201527f6464726573730000000000000000000000000000000000000000000000000000602082015250565b7f494e53554646494349454e5420414d4f554e5400000000000000000000000000600082015250565b7f4552433732313a207472616e736665722066726f6d20696e636f72726563742060008201527f6f776e6572000000000000000000000000000000000000000000000000000000602082015250565b7f4552433732313a20746f6b656e20616c7265616479206d696e74656400000000600082015250565b7f4552433732313a207472616e7366657220746f20746865207a65726f2061646460008201527f7265737300000000000000000000000000000000000000000000000000000000602082015250565b7f4552433732313a20617070726f766520746f2063616c6c657200000000000000600082015250565b7f4552433732313a206f70657261746f7220717565727920666f72206e6f6e657860008201527f697374656e7420746f6b656e0000000000000000000000000000000000000000602082015250565b7f4552433732313a20617070726f76652063616c6c6572206973206e6f74206f7760008201527f6e6572206e6f7220617070726f76656420666f7220616c6c0000000000000000602082015250565b7f4d555354204245204e4f4e4520484f4c44455200000000000000000000000000600082015250565b7f57524f4e4720414e535745520000000000000000000000000000000000000000600082015250565b7f4552433732313a2062616c616e636520717565727920666f7220746865207a6560008201527f726f206164647265737300000000000000000000000000000000000000000000602082015250565b7f4552433732313a206f776e657220717565727920666f72206e6f6e657869737460008201527f656e7420746f6b656e0000000000000000000000000000000000000000000000602082015250565b7f4552433732313a206d696e7420746f20746865207a65726f2061646472657373600082015250565b7f4552433732313a20617070726f76656420717565727920666f72206e6f6e657860008201527f697374656e7420746f6b656e0000000000000000000000000000000000000000602082015250565b7f4552433732314d657461646174613a2055524920736574206f66206e6f6e657860008201527f697374656e7420746f6b656e0000000000000000000000000000000000000000602082015250565b7f4f776e61626c653a2063616c6c6572206973206e6f7420746865206f776e6572600082015250565b7f494e53554646494349454e5420464f554e440000000000000000000000000000600082015250565b7f496e76616c696420746f6b656e55524900000000000000000000000000000000600082015250565b7f4d55535420424520475445203165313800000000000000000000000000000000600082015250565b7f4552433732313a20617070726f76616c20746f2063757272656e74206f776e6560008201527f7200000000000000000000000000000000000000000000000000000000000000602082015250565b7f4552433732313a207472616e736665722063616c6c6572206973206e6f74206f60008201527f776e6572206e6f7220617070726f766564000000000000000000000000000000602082015250565b7f4e4f54204e4654204f574e455200000000000000000000000000000000000000600082015250565b7f414c524541445920414e53574552454400000000000000000000000000000000600082015250565b7f4d55535420424520484f4c444552000000000000000000000000000000000000600082015250565b615a978161526e565b8114615aa257600080fd5b50565b615aae81615280565b8114615ab957600080fd5b50565b615ac58161528c565b8114615ad057600080fd5b50565b615adc81615296565b8114615ae757600080fd5b50565b615af3816152e2565b8114615afe57600080fd5b5056fea264697066735822122033b8d97d72f98fe4f20d73d4f5e044c897337092193b9ffad63182ba1c26c15864736f6c63430008040033",
  "linkReferences": {},
  "deployedLinkReferences": {}
}