{
  "_format": "hh-sol-artifact-1",
  "contractName": "KamonNFT",
  "sourceName": "contracts/kamonNFT.sol",
  "abi": [
    {
      "inputs": [
        {
          "internalType": "address",
          "name": "_erc20",
          "type": "address"
        },
        {
          "internalType": "address",
          "name": "_fundAddress",
          "type": "address"
        }
      ],
      "stateMutability": "nonpayable",
      "type": "constructor"
    },
    {
      "anonymous": false,
      "inputs": [
        {
          "indexed": true,
          "internalType": "address",
          "name": "owner",
          "type": "address"
        },
        {
          "indexed": true,
          "internalType": "address",
          "name": "approved",
          "type": "address"
        },
        {
          "indexed": true,
          "internalType": "uint256",
          "name": "tokenId",
          "type": "uint256"
        }
      ],
      "name": "Approval",
      "type": "event"
    },
    {
      "anonymous": false,
      "inputs": [
        {
          "indexed": true,
          "internalType": "address",
          "name": "owner",
          "type": "address"
        },
        {
          "indexed": true,
          "internalType": "address",
          "name": "operator",
          "type": "address"
        },
        {
          "indexed": false,
          "internalType": "bool",
          "name": "approved",
          "type": "bool"
        }
      ],
      "name": "ApprovalForAll",
      "type": "event"
    },
    {
      "anonymous": false,
      "inputs": [
        {
          "indexed": false,
          "internalType": "address",
          "name": "_owner",
          "type": "address"
        },
        {
          "indexed": false,
          "internalType": "uint256",
          "name": "_tokenId",
          "type": "uint256"
        }
      ],
      "name": "BoughtMemberShipNFT",
      "type": "event"
    },
    {
      "anonymous": false,
      "inputs": [
        {
          "indexed": false,
          "internalType": "address",
          "name": "_by",
          "type": "address"
        },
        {
          "indexed": false,
          "internalType": "uint256",
          "name": "_at",
          "type": "uint256"
        }
      ],
      "name": "CheckedAnswer",
      "type": "event"
    },
    {
      "anonymous": false,
      "inputs": [
        {
          "indexed": false,
          "internalType": "address",
          "name": "_by",
          "type": "address"
        },
        {
          "indexed": false,
          "internalType": "uint256",
          "name": "_amount",
          "type": "uint256"
        }
      ],
      "name": "ClaimedToken",
      "type": "event"
    },
    {
      "anonymous": false,
      "inputs": [
        {
          "indexed": true,
          "internalType": "address",
          "name": "previousOwner",
          "type": "address"
        },
        {
          "indexed": true,
          "internalType": "address",
          "name": "newOwner",
          "type": "address"
        }
      ],
      "name": "OwnershipTransferred",
      "type": "event"
    },
    {
      "anonymous": false,
      "inputs": [
        {
          "indexed": true,
          "internalType": "address",
          "name": "from",
          "type": "address"
        },
        {
          "indexed": true,
          "internalType": "address",
          "name": "to",
          "type": "address"
        },
        {
          "indexed": true,
          "internalType": "uint256",
          "name": "tokenId",
          "type": "uint256"
        }
      ],
      "name": "Transfer",
      "type": "event"
    },
    {
      "inputs": [
        {
          "internalType": "uint256",
          "name": "",
          "type": "uint256"
        }
      ],
      "name": "_tokenURIs",
      "outputs": [
        {
          "internalType": "string",
          "name": "",
          "type": "string"
        }
      ],
      "stateMutability": "view",
      "type": "function"
    },
    {
      "inputs": [
        {
          "internalType": "address",
          "name": "_to",
          "type": "address"
        },
        {
          "internalType": "string",
          "name": "_role",
          "type": "string"
        }
      ],
      "name": "addRole",
      "outputs": [],
      "stateMutability": "nonpayable",
      "type": "function"
    },
    {
      "inputs": [
        {
          "internalType": "address",
          "name": "to",
          "type": "address"
        },
        {
          "internalType": "uint256",
          "name": "tokenId",
          "type": "uint256"
        }
      ],
      "name": "approve",
      "outputs": [],
      "stateMutability": "nonpayable",
      "type": "function"
    },
    {
      "inputs": [
        {
          "internalType": "address",
          "name": "owner",
          "type": "address"
        }
      ],
      "name": "balanceOf",
      "outputs": [
        {
          "internalType": "uint256",
          "name": "",
          "type": "uint256"
        }
      ],
      "stateMutability": "view",
      "type": "function"
    },
    {
      "inputs": [
        {
          "internalType": "uint256",
          "name": "_tokenId",
          "type": "uint256"
        }
      ],
      "name": "burn",
      "outputs": [],
      "stateMutability": "nonpayable",
      "type": "function"
    },
    {
      "inputs": [
        {
          "internalType": "string",
          "name": "_keyword",
          "type": "string"
        }
      ],
      "name": "checkAnswer",
      "outputs": [],
      "stateMutability": "nonpayable",
      "type": "function"
    },
    {
      "inputs": [],
      "name": "claimToken",
      "outputs": [],
      "stateMutability": "nonpayable",
      "type": "function"
    },
    {
      "inputs": [],
      "name": "contractURI",
      "outputs": [
        {
          "internalType": "string",
          "name": "",
          "type": "string"
        }
      ],
      "stateMutability": "view",
      "type": "function"
    },
    {
      "inputs": [],
      "name": "fundAddress",
      "outputs": [
        {
          "internalType": "address",
          "name": "",
          "type": "address"
        }
      ],
      "stateMutability": "view",
      "type": "function"
    },
    {
      "inputs": [
        {
          "internalType": "uint256",
          "name": "tokenId",
          "type": "uint256"
        }
      ],
      "name": "getApproved",
      "outputs": [
        {
          "internalType": "address",
          "name": "",
          "type": "address"
        }
      ],
      "stateMutability": "view",
      "type": "function"
    },
    {
      "inputs": [
        {
          "internalType": "address",
          "name": "_to",
          "type": "address"
        },
        {
          "internalType": "uint256",
          "name": "_point",
          "type": "uint256"
        },
        {
          "internalType": "uint256",
          "name": "_claimableToken",
          "type": "uint256"
        }
      ],
      "name": "giveAwayPoint",
      "outputs": [],
      "stateMutability": "nonpayable",
      "type": "function"
    },
    {
      "inputs": [
        {
          "internalType": "address",
          "name": "_address",
          "type": "address"
        },
        {
          "internalType": "string",
          "name": "_role",
          "type": "string"
        }
      ],
      "name": "hasRoleOf",
      "outputs": [
        {
          "internalType": "bool",
          "name": "",
          "type": "bool"
        }
      ],
      "stateMutability": "view",
      "type": "function"
    },
    {
      "inputs": [],
      "name": "henkakuToken",
      "outputs": [
        {
          "internalType": "contract IERC20",
          "name": "",
          "type": "address"
        }
      ],
      "stateMutability": "view",
      "type": "function"
    },
    {
      "inputs": [
        {
          "internalType": "address",
          "name": "owner",
          "type": "address"
        },
        {
          "internalType": "address",
          "name": "operator",
          "type": "address"
        }
      ],
      "name": "isApprovedForAll",
      "outputs": [
        {
          "internalType": "bool",
          "name": "",
          "type": "bool"
        }
      ],
      "stateMutability": "view",
      "type": "function"
    },
    {
      "inputs": [
        {
          "internalType": "string",
          "name": "_tokenURI",
          "type": "string"
        },
        {
          "internalType": "string[]",
          "name": "_roles",
          "type": "string[]"
        },
        {
          "internalType": "address",
          "name": "_to",
          "type": "address"
        }
      ],
      "name": "mint",
      "outputs": [
        {
          "internalType": "uint256",
          "name": "",
          "type": "uint256"
        }
      ],
      "stateMutability": "nonpayable",
      "type": "function"
    },
    {
      "inputs": [
        {
          "internalType": "string",
          "name": "_tokenURI",
          "type": "string"
        },
        {
          "internalType": "uint256",
          "name": "_amount",
          "type": "uint256"
        }
      ],
      "name": "mintWithHenkaku",
      "outputs": [],
      "stateMutability": "nonpayable",
      "type": "function"
    },
    {
      "inputs": [],
      "name": "name",
      "outputs": [
        {
          "internalType": "string",
          "name": "",
          "type": "string"
        }
      ],
      "stateMutability": "view",
      "type": "function"
    },
    {
      "inputs": [],
      "name": "owner",
      "outputs": [
        {
          "internalType": "address",
          "name": "",
          "type": "address"
        }
      ],
      "stateMutability": "view",
      "type": "function"
    },
    {
      "inputs": [
        {
          "internalType": "uint256",
          "name": "tokenId",
          "type": "uint256"
        }
      ],
      "name": "ownerOf",
      "outputs": [
        {
          "internalType": "address",
          "name": "",
          "type": "address"
        }
      ],
      "stateMutability": "view",
      "type": "function"
    },
    {
      "inputs": [],
      "name": "price",
      "outputs": [
        {
          "internalType": "uint256",
          "name": "",
          "type": "uint256"
        }
      ],
      "stateMutability": "view",
      "type": "function"
    },
    {
      "inputs": [],
      "name": "renounceOwnership",
      "outputs": [],
      "stateMutability": "nonpayable",
      "type": "function"
    },
    {
      "inputs": [],
      "name": "rewardHenkaku",
      "outputs": [
        {
          "internalType": "uint256",
          "name": "",
          "type": "uint256"
        }
      ],
      "stateMutability": "view",
      "type": "function"
    },
    {
      "inputs": [],
      "name": "rewardPoint",
      "outputs": [
        {
          "internalType": "uint256",
          "name": "",
          "type": "uint256"
        }
      ],
      "stateMutability": "view",
      "type": "function"
    },
    {
      "inputs": [
        {
          "internalType": "address",
          "name": "",
          "type": "address"
        },
        {
          "internalType": "uint256",
          "name": "",
          "type": "uint256"
        }
      ],
      "name": "roles",
      "outputs": [
        {
          "internalType": "string",
          "name": "",
          "type": "string"
        }
      ],
      "stateMutability": "view",
      "type": "function"
    },
    {
      "inputs": [
        {
          "internalType": "address",
          "name": "from",
          "type": "address"
        },
        {
          "internalType": "address",
          "name": "to",
          "type": "address"
        },
        {
          "internalType": "uint256",
          "name": "tokenId",
          "type": "uint256"
        }
      ],
      "name": "safeTransferFrom",
      "outputs": [],
      "stateMutability": "nonpayable",
      "type": "function"
    },
    {
      "inputs": [
        {
          "internalType": "address",
          "name": "from",
          "type": "address"
        },
        {
          "internalType": "address",
          "name": "to",
          "type": "address"
        },
        {
          "internalType": "uint256",
          "name": "tokenId",
          "type": "uint256"
        },
        {
          "internalType": "bytes",
          "name": "_data",
          "type": "bytes"
        }
      ],
      "name": "safeTransferFrom",
      "outputs": [],
      "stateMutability": "nonpayable",
      "type": "function"
    },
    {
      "inputs": [
        {
          "internalType": "address",
          "name": "operator",
          "type": "address"
        },
        {
          "internalType": "bool",
          "name": "approved",
          "type": "bool"
        }
      ],
      "name": "setApprovalForAll",
      "outputs": [],
      "stateMutability": "nonpayable",
      "type": "function"
    },
    {
      "inputs": [
        {
          "internalType": "string",
          "name": "uri",
          "type": "string"
        }
      ],
      "name": "setContractURI",
      "outputs": [],
      "stateMutability": "nonpayable",
      "type": "function"
    },
    {
      "inputs": [
        {
          "internalType": "address",
          "name": "_fundAddress",
          "type": "address"
        }
      ],
      "name": "setFundAddress",
      "outputs": [],
      "stateMutability": "nonpayable",
      "type": "function"
    },
    {
      "inputs": [
        {
          "internalType": "bytes32",
          "name": "_keyword",
          "type": "bytes32"
        },
        {
          "internalType": "uint256",
          "name": "startedAt",
          "type": "uint256"
        }
      ],
      "name": "setKeyword",
      "outputs": [],
      "stateMutability": "nonpayable",
      "type": "function"
    },
    {
      "inputs": [
        {
          "internalType": "uint256",
          "name": "_price",
          "type": "uint256"
        }
      ],
      "name": "setPrice",
      "outputs": [],
      "stateMutability": "nonpayable",
      "type": "function"
    },
    {
      "inputs": [
        {
          "internalType": "uint256",
          "name": "_rewardHenkaku",
          "type": "uint256"
        }
      ],
      "name": "setRewardHenkaku",
      "outputs": [],
      "stateMutability": "nonpayable",
      "type": "function"
    },
    {
      "inputs": [
        {
          "internalType": "uint256",
          "name": "_rewardPoint",
          "type": "uint256"
        }
      ],
      "name": "setRewardPoint",
      "outputs": [],
      "stateMutability": "nonpayable",
      "type": "function"
    },
    {
      "inputs": [
        {
          "internalType": "address",
          "name": "_to",
          "type": "address"
        },
        {
          "internalType": "string[]",
          "name": "_roles",
          "type": "string[]"
        }
      ],
      "name": "setRoles",
      "outputs": [],
      "stateMutability": "nonpayable",
      "type": "function"
    },
    {
      "inputs": [
        {
          "internalType": "address",
          "name": "_erc20",
          "type": "address"
        }
      ],
      "name": "setTokenAddr",
      "outputs": [],
      "stateMutability": "nonpayable",
      "type": "function"
    },
    {
      "inputs": [
        {
          "internalType": "bytes4",
          "name": "interfaceId",
          "type": "bytes4"
        }
      ],
      "name": "supportsInterface",
      "outputs": [
        {
          "internalType": "bool",
          "name": "",
          "type": "bool"
        }
      ],
      "stateMutability": "view",
      "type": "function"
    },
    {
      "inputs": [],
      "name": "symbol",
      "outputs": [
        {
          "internalType": "string",
          "name": "",
          "type": "string"
        }
      ],
      "stateMutability": "view",
      "type": "function"
    },
    {
      "inputs": [
        {
          "internalType": "uint256",
          "name": "tokenId",
          "type": "uint256"
        }
      ],
      "name": "tokenURI",
      "outputs": [
        {
          "internalType": "string",
          "name": "",
          "type": "string"
        }
      ],
      "stateMutability": "view",
      "type": "function"
    },
    {
      "inputs": [],
      "name": "totalSupply",
      "outputs": [
        {
          "internalType": "uint256",
          "name": "",
          "type": "uint256"
        }
      ],
      "stateMutability": "view",
      "type": "function"
    },
    {
      "inputs": [
        {
          "internalType": "address",
          "name": "_from",
          "type": "address"
        },
        {
          "internalType": "address",
          "name": "_to",
          "type": "address"
        },
        {
          "internalType": "uint256",
          "name": "_tokenId",
          "type": "uint256"
        }
      ],
      "name": "transferFrom",
      "outputs": [],
      "stateMutability": "nonpayable",
      "type": "function"
    },
    {
      "inputs": [
        {
          "internalType": "address",
          "name": "newOwner",
          "type": "address"
        }
      ],
      "name": "transferOwnership",
      "outputs": [],
      "stateMutability": "nonpayable",
      "type": "function"
    },
    {
      "inputs": [
        {
          "internalType": "uint256",
          "name": "tokenId",
          "type": "uint256"
        },
        {
          "internalType": "string",
          "name": "finalTokenUri",
          "type": "string"
        }
      ],
      "name": "updateNFT",
      "outputs": [],
      "stateMutability": "nonpayable",
      "type": "function"
    },
    {
      "inputs": [
        {
          "internalType": "uint256",
          "name": "tokenId",
          "type": "uint256"
        },
        {
          "internalType": "string",
          "name": "finalTokenUri",
          "type": "string"
        }
      ],
      "name": "updateOwnNFT",
      "outputs": [],
      "stateMutability": "nonpayable",
      "type": "function"
    },
    {
      "inputs": [
        {
          "internalType": "address",
          "name": "",
          "type": "address"
        }
      ],
      "name": "userAttribute",
      "outputs": [
        {
          "internalType": "uint256",
          "name": "point",
          "type": "uint256"
        },
        {
          "internalType": "uint256",
          "name": "claimableToken",
          "type": "uint256"
        },
        {
          "internalType": "uint256",
          "name": "answeredAt",
          "type": "uint256"
        }
      ],
      "stateMutability": "view",
      "type": "function"
    },
    {
      "inputs": [],
      "name": "withdraw",
      "outputs": [],
      "stateMutability": "nonpayable",
      "type": "function"
    }
  ],
  "bytecode": "0x60806040523480156200001157600080fd5b506040516200630638038062006306833981810160405281019062000037919062000733565b6040518060400160405280600c81526020017f48656e6b616b752076302e3200000000000000000000000000000000000000008152506040518060400160405280600781526020017f68656e6b616b75000000000000000000000000000000000000000000000000008152508160009080519060200190620000bb9291906200066c565b508060019080519060200190620000d49291906200066c565b505050620000f7620000eb6200016760201b60201c565b6200016f60201b60201c565b62000108826200023560201b60201c565b62000122683635c9adc5dea000006200030860201b60201c565b620001346064620003ef60201b60201c565b6200014e68056bc75e2d631000006200048860201b60201c565b6200015f816200056f60201b60201c565b50506200091c565b600033905090565b6000600660009054906101000a900473ffffffffffffffffffffffffffffffffffffffff16905081600660006101000a81548173ffffffffffffffffffffffffffffffffffffffff021916908373ffffffffffffffffffffffffffffffffffffffff1602179055508173ffffffffffffffffffffffffffffffffffffffff168173ffffffffffffffffffffffffffffffffffffffff167f8be0079c531659141344cd1fd0a4f28419497f9722a3daafe3b4186f6b6457e060405160405180910390a35050565b620002456200016760201b60201c565b73ffffffffffffffffffffffffffffffffffffffff166200026b6200064260201b60201c565b73ffffffffffffffffffffffffffffffffffffffff1614620002c4576040517f08c379a0000000000000000000000000000000000000000000000000000000008152600401620002bb90620007c2565b60405180910390fd5b80600860006101000a81548173ffffffffffffffffffffffffffffffffffffffff021916908373ffffffffffffffffffffffffffffffffffffffff16021790555050565b620003186200016760201b60201c565b73ffffffffffffffffffffffffffffffffffffffff166200033e6200064260201b60201c565b73ffffffffffffffffffffffffffffffffffffffff161462000397576040517f08c379a00000000000000000000000000000000000000000000000000000000081526004016200038e90620007c2565b60405180910390fd5b670de0b6b3a7640000811015620003e5576040517f08c379a0000000000000000000000000000000000000000000000000000000008152600401620003dc90620007e4565b60405180910390fd5b8060098190555050565b620003ff6200016760201b60201c565b73ffffffffffffffffffffffffffffffffffffffff16620004256200064260201b60201c565b73ffffffffffffffffffffffffffffffffffffffff16146200047e576040517f08c379a00000000000000000000000000000000000000000000000000000000081526004016200047590620007c2565b60405180910390fd5b80600a8190555050565b620004986200016760201b60201c565b73ffffffffffffffffffffffffffffffffffffffff16620004be6200064260201b60201c565b73ffffffffffffffffffffffffffffffffffffffff161462000517576040517f08c379a00000000000000000000000000000000000000000000000000000000081526004016200050e90620007c2565b60405180910390fd5b670de0b6b3a764000081101562000565576040517f08c379a00000000000000000000000000000000000000000000000000000000081526004016200055c90620007e4565b60405180910390fd5b80600b8190555050565b6200057f6200016760201b60201c565b73ffffffffffffffffffffffffffffffffffffffff16620005a56200064260201b60201c565b73ffffffffffffffffffffffffffffffffffffffff1614620005fe576040517f08c379a0000000000000000000000000000000000000000000000000000000008152600401620005f590620007c2565b60405180910390fd5b80600c60006101000a81548173ffffffffffffffffffffffffffffffffffffffff021916908373ffffffffffffffffffffffffffffffffffffffff16021790555050565b6000600660009054906101000a900473ffffffffffffffffffffffffffffffffffffffff16905090565b8280546200067a906200084b565b90600052602060002090601f0160209004810192826200069e5760008555620006ea565b82601f10620006b957805160ff1916838001178555620006ea565b82800160010185558215620006ea579182015b82811115620006e9578251825591602001919060010190620006cc565b5b509050620006f99190620006fd565b5090565b5b8082111562000718576000816000905550600101620006fe565b5090565b6000815190506200072d8162000902565b92915050565b600080604083850312156200074757600080fd5b600062000757858286016200071c565b92505060206200076a858286016200071c565b9150509250929050565b60006200078360208362000806565b91506200079082620008b0565b602082019050919050565b6000620007aa60108362000806565b9150620007b782620008d9565b602082019050919050565b60006020820190508181036000830152620007dd8162000774565b9050919050565b60006020820190508181036000830152620007ff816200079b565b9050919050565b600082825260208201905092915050565b600062000824826200082b565b9050919050565b600073ffffffffffffffffffffffffffffffffffffffff82169050919050565b600060028204905060018216806200086457607f821691505b602082108114156200087b576200087a62000881565b5b50919050565b7f4e487b7100000000000000000000000000000000000000000000000000000000600052602260045260246000fd5b7f4f776e61626c653a2063616c6c6572206973206e6f7420746865206f776e6572600082015250565b7f4d55535420424520475445203165313800000000000000000000000000000000600082015250565b6200090d8162000817565b81146200091957600080fd5b50565b6159da806200092c6000396000f3fe608060405234801561001057600080fd5b506004361061027f5760003560e01c806381c95fd21161015c578063a53696ac116100ce578063e82bef2911610087578063e82bef2914610744578063e8a3d48514610762578063e985e9c514610780578063f0723d97146107b0578063f2fde38b146107e0578063fc70d5fd146107fc5761027f565b8063a53696ac14610670578063b52bd9c6146106a2578063b88d4fde146106be578063c318d8f8146106da578063c68b9dfa146106f6578063c87b56dd146107145761027f565b8063938e3d7b11610120578063938e3d7b146105c457806395d89b41146105e05780639bd68fa4146105fe5780639c0a71de1461061a578063a035b1fe14610636578063a22cb465146106545761027f565b806381c95fd21461053657806385dc3004146105525780638da5cb5b1461056e57806391b7f5ed1461058c57806391c55855146105a85761027f565b806342842e0e116101f55780636e8b2a48116101b95780636e8b2a481461048a57806370a08231146104a6578063715018a6146104d657806374cc31f2146104e05780637d72aa65146104fc578063809a6cd6146105185761027f565b806342842e0e146103e857806342966c68146104045780634451d89f146104205780635d764b3e1461042a5780636352211e1461045a5761027f565b806318160ddd1161024757806318160ddd1461034e57806320d83a061461036c57806323b872dd1461038a5780632ebd1e28146103a65780633451eee8146103c25780633ccfd60b146103de5761027f565b806301ffc9a71461028457806306fdde03146102b4578063081812fc146102d2578063095ea7b3146103025780630bb78ec11461031e575b600080fd5b61029e60048036038101906102999190614450565b61082c565b6040516102ab9190614ba7565b60405180910390f35b6102bc61090e565b6040516102c99190614bdd565b60405180910390f35b6102ec60048036038101906102e791906145b6565b6109a0565b6040516102f99190614ae0565b60405180910390f35b61031c60048036038101906103179190614360565b610a25565b005b610338600480360381019061033391906145b6565b610b3d565b6040516103459190614bdd565b60405180910390f35b610356610bdd565b6040516103639190614f3f565b60405180910390f35b610374610bee565b6040516103819190614f3f565b60405180910390f35b6103a4600480360381019061039f91906141b2565b610bf4565b005b6103c060048036038101906103bb919061414d565b610c80565b005b6103dc60048036038101906103d791906145b6565b610d40565b005b6103e6610dc6565b005b61040260048036038101906103fd91906141b2565b61100a565b005b61041e600480360381019061041991906145b6565b61102a565b005b6104286110b2565b005b610444600480360381019061043f919061430c565b6113ef565b6040516104519190614ba7565b60405180910390f35b610474600480360381019061046f91906145b6565b611590565b6040516104819190614ae0565b60405180910390f35b6104a4600480360381019061049f9190614562565b611642565b005b6104c060048036038101906104bb919061414d565b6119cb565b6040516104cd9190614f3f565b60405180910390f35b6104de611a83565b005b6104fa60048036038101906104f59190614414565b611b0b565b005b6105166004803603810190610511919061430c565b611bb9565b005b610520611d00565b60405161052d9190614bc2565b60405180910390f35b610550600480360381019061054b91906145b6565b611d26565b005b61056c6004803603810190610567919061414d565b611df7565b005b610576611eb7565b6040516105839190614ae0565b60405180910390f35b6105a660048036038101906105a191906145b6565b611ee1565b005b6105c260048036038101906105bd919061427c565b611fb2565b005b6105de60048036038101906105d991906144a2565b6120d4565b005b6105e861216a565b6040516105f59190614bdd565b60405180910390f35b61061860048036038101906106139190614608565b6121fc565b005b610634600480360381019061062f919061439c565b612280565b005b61063e612401565b60405161064b9190614f3f565b60405180910390f35b61066e600480360381019061066991906142d0565b612407565b005b61068a6004803603810190610685919061414d565b61241d565b60405161069993929190614f5a565b60405180910390f35b6106bc60048036038101906106b791906144a2565b612447565b005b6106d860048036038101906106d39190614201565b612707565b005b6106f460048036038101906106ef9190614608565b612769565b005b6106fe6127f3565b60405161070b9190614f3f565b60405180910390f35b61072e600480360381019061072991906145b6565b6127f9565b60405161073b9190614bdd565b60405180910390f35b61074c6128e8565b6040516107599190614ae0565b60405180910390f35b61076a61290e565b6040516107779190614bdd565b60405180910390f35b61079a60048036038101906107959190614176565b6129a0565b6040516107a79190614ba7565b60405180910390f35b6107ca60048036038101906107c59190614360565b612a34565b6040516107d79190614bdd565b60405180910390f35b6107fa60048036038101906107f5919061414d565b612aed565b005b610816600480360381019061081191906144e3565b612be5565b6040516108239190614f3f565b60405180910390f35b60007f80ac58cd000000000000000000000000000000000000000000000000000000007bffffffffffffffffffffffffffffffffffffffffffffffffffffffff1916827bffffffffffffffffffffffffffffffffffffffffffffffffffffffff191614806108f757507f5b5e139f000000000000000000000000000000000000000000000000000000007bffffffffffffffffffffffffffffffffffffffffffffffffffffffff1916827bffffffffffffffffffffffffffffffffffffffffffffffffffffffff1916145b80610907575061090682612cc4565b5b9050919050565b60606000805461091d906151f5565b80601f0160208091040260200160405190810160405280929190818152602001828054610949906151f5565b80156109965780601f1061096b57610100808354040283529160200191610996565b820191906000526020600020905b81548152906001019060200180831161097957829003601f168201915b5050505050905090565b60006109ab82612d2e565b6109ea576040517f08c379a00000000000000000000000000000000000000000000000000000000081526004016109e190614ddf565b60405180910390fd5b6004600083815260200190815260200160002060009054906101000a900473ffffffffffffffffffffffffffffffffffffffff169050919050565b6000610a3082611590565b90508073ffffffffffffffffffffffffffffffffffffffff168373ffffffffffffffffffffffffffffffffffffffff161415610aa1576040517f08c379a0000000000000000000000000000000000000000000000000000000008152600401610a9890614e9f565b60405180910390fd5b8073ffffffffffffffffffffffffffffffffffffffff16610ac0612d9a565b73ffffffffffffffffffffffffffffffffffffffff161480610aef5750610aee81610ae9612d9a565b6129a0565b5b610b2e576040517f08c379a0000000000000000000000000000000000000000000000000000000008152600401610b2590614d1f565b60405180910390fd5b610b388383612da2565b505050565b60106020528060005260406000206000915090508054610b5c906151f5565b80601f0160208091040260200160405190810160405280929190818152602001828054610b88906151f5565b8015610bd55780601f10610baa57610100808354040283529160200191610bd5565b820191906000526020600020905b815481529060010190602001808311610bb857829003601f168201915b505050505081565b6000610be96007612e5b565b905090565b600b5481565b610bfc612d9a565b73ffffffffffffffffffffffffffffffffffffffff16610c1a611eb7565b73ffffffffffffffffffffffffffffffffffffffff1614610c70576040517f08c379a0000000000000000000000000000000000000000000000000000000008152600401610c6790614e1f565b60405180910390fd5b610c7b838383612e69565b505050565b610c88612d9a565b73ffffffffffffffffffffffffffffffffffffffff16610ca6611eb7565b73ffffffffffffffffffffffffffffffffffffffff1614610cfc576040517f08c379a0000000000000000000000000000000000000000000000000000000008152600401610cf390614e1f565b60405180910390fd5b80600860006101000a81548173ffffffffffffffffffffffffffffffffffffffff021916908373ffffffffffffffffffffffffffffffffffffffff16021790555050565b610d48612d9a565b73ffffffffffffffffffffffffffffffffffffffff16610d66611eb7565b73ffffffffffffffffffffffffffffffffffffffff1614610dbc576040517f08c379a0000000000000000000000000000000000000000000000000000000008152600401610db390614e1f565b60405180910390fd5b80600a8190555050565b610dce612d9a565b73ffffffffffffffffffffffffffffffffffffffff16610dec611eb7565b73ffffffffffffffffffffffffffffffffffffffff1614610e42576040517f08c379a0000000000000000000000000000000000000000000000000000000008152600401610e3990614e1f565b60405180910390fd5b6000600860009054906101000a900473ffffffffffffffffffffffffffffffffffffffff1673ffffffffffffffffffffffffffffffffffffffff166370a08231306040518263ffffffff1660e01b8152600401610e9f9190614ae0565b60206040518083038186803b158015610eb757600080fd5b505afa158015610ecb573d6000803e3d6000fd5b505050506040513d601f19601f82011682018060405250810190610eef91906145df565b90506000600860009054906101000a900473ffffffffffffffffffffffffffffffffffffffff1673ffffffffffffffffffffffffffffffffffffffff1663a9059cbb600c60009054906101000a900473ffffffffffffffffffffffffffffffffffffffff16846040518363ffffffff1660e01b8152600401610f72929190614b7e565b602060405180830381600087803b158015610f8c57600080fd5b505af1158015610fa0573d6000803e3d6000fd5b505050506040513d601f19601f82011682018060405250810190610fc491906143eb565b905080611006576040517f08c379a0000000000000000000000000000000000000000000000000000000008152600401610ffd90614bff565b60405180910390fd5b5050565b61102583838360405180602001604052806000815250612707565b505050565b611032612d9a565b73ffffffffffffffffffffffffffffffffffffffff16611050611eb7565b73ffffffffffffffffffffffffffffffffffffffff16146110a6576040517f08c379a000000000000000000000000000000000000000000000000000000000815260040161109d90614e1f565b60405180910390fd5b6110af816130d0565b50565b3360006110be826119cb565b14156110ff576040517f08c379a00000000000000000000000000000000000000000000000000000000081526004016110f690614f1f565b60405180910390fd5b6000601260003373ffffffffffffffffffffffffffffffffffffffff1673ffffffffffffffffffffffffffffffffffffffff16815260200190815260200160002060010154905060008111611189576040517f08c379a000000000000000000000000000000000000000000000000000000000815260040161118090614c5f565b60405180910390fd5b80600860009054906101000a900473ffffffffffffffffffffffffffffffffffffffff1673ffffffffffffffffffffffffffffffffffffffff166370a08231306040518263ffffffff1660e01b81526004016111e59190614ae0565b60206040518083038186803b1580156111fd57600080fd5b505afa158015611211573d6000803e3d6000fd5b505050506040513d601f19601f8201168201806040525081019061123591906145df565b1015611276576040517f08c379a000000000000000000000000000000000000000000000000000000000815260040161126d90614e3f565b60405180910390fd5b6000600860009054906101000a900473ffffffffffffffffffffffffffffffffffffffff1673ffffffffffffffffffffffffffffffffffffffff1663a9059cbb33846040518363ffffffff1660e01b81526004016112d5929190614b7e565b602060405180830381600087803b1580156112ef57600080fd5b505af1158015611303573d6000803e3d6000fd5b505050506040513d601f19601f8201168201806040525081019061132791906143eb565b905080611369576040517f08c379a000000000000000000000000000000000000000000000000000000000815260040161136090614bff565b60405180910390fd5b6000601260003373ffffffffffffffffffffffffffffffffffffffff1673ffffffffffffffffffffffffffffffffffffffff168152602001908152602001600020600101819055507f9f2482fecb753a122941f19538876a5b4fdc080a83d01c5f28edde774561cc7433836040516113e2929190614b7e565b60405180910390a1505050565b600080601160008573ffffffffffffffffffffffffffffffffffffffff1673ffffffffffffffffffffffffffffffffffffffff168152602001908152602001600020805480602002602001604051908101604052809291908181526020016000905b828210156114fd578382906000526020600020018054611470906151f5565b80601f016020809104026020016040519081016040528092919081815260200182805461149c906151f5565b80156114e95780601f106114be576101008083540402835291602001916114e9565b820191906000526020600020905b8154815290600101906020018083116114cc57829003601f168201915b505050505081526020019060010190611451565b50505050905060005b8151811015611583578380519060200120828281518110611550577f4e487b7100000000000000000000000000000000000000000000000000000000600052603260045260246000fd5b60200260200101518051906020012014156115705760019250505061158a565b808061157b90615258565b915050611506565b5060009150505b92915050565b6000806002600084815260200190815260200160002060009054906101000a900473ffffffffffffffffffffffffffffffffffffffff169050600073ffffffffffffffffffffffffffffffffffffffff168173ffffffffffffffffffffffffffffffffffffffff161415611639576040517f08c379a000000000000000000000000000000000000000000000000000000000815260040161163090614d9f565b60405180910390fd5b80915050919050565b33600061164e826119cb565b1461168e576040517f08c379a000000000000000000000000000000000000000000000000000000000815260040161168590614d3f565b60405180910390fd5b60008351116116d2576040517f08c379a00000000000000000000000000000000000000000000000000000000081526004016116c990614e5f565b60405180910390fd5b600954821015611717576040517f08c379a000000000000000000000000000000000000000000000000000000000815260040161170e90614c5f565b60405180910390fd5b6000600860009054906101000a900473ffffffffffffffffffffffffffffffffffffffff1673ffffffffffffffffffffffffffffffffffffffff166323b872dd3330866040518463ffffffff1660e01b815260040161177893929190614afb565b602060405180830381600087803b15801561179257600080fd5b505af11580156117a6573d6000803e3d6000fd5b505050506040513d601f19601f820116820180604052508101906117ca91906143eb565b90508061180c576040517f08c379a000000000000000000000000000000000000000000000000000000000815260040161180390614bff565b60405180910390fd5b6000600267ffffffffffffffff81111561184f577f4e487b7100000000000000000000000000000000000000000000000000000000600052604160045260246000fd5b60405190808252806020026020018201604052801561188257816020015b606081526020019060019003908161186d5790505b5090506040518060400160405280600681526020017f4d454d4245520000000000000000000000000000000000000000000000000000815250816000815181106118f5577f4e487b7100000000000000000000000000000000000000000000000000000000600052603260045260246000fd5b60200260200101819052506040518060400160405280600681526020017f4d494e544552000000000000000000000000000000000000000000000000000081525081600181518110611970577f4e487b7100000000000000000000000000000000000000000000000000000000600052603260045260246000fd5b602002602001018190525060006119888683336131ed565b90507f0ba0a4f7c9cffadda8819a89af023adc6cea0f94e3b91ec4dd2544993a2ad8d833826040516119bb929190614b7e565b60405180910390a1505050505050565b60008073ffffffffffffffffffffffffffffffffffffffff168273ffffffffffffffffffffffffffffffffffffffff161415611a3c576040517f08c379a0000000000000000000000000000000000000000000000000000000008152600401611a3390614d7f565b60405180910390fd5b600360008373ffffffffffffffffffffffffffffffffffffffff1673ffffffffffffffffffffffffffffffffffffffff168152602001908152602001600020549050919050565b611a8b612d9a565b73ffffffffffffffffffffffffffffffffffffffff16611aa9611eb7565b73ffffffffffffffffffffffffffffffffffffffff1614611aff576040517f08c379a0000000000000000000000000000000000000000000000000000000008152600401611af690614e1f565b60405180910390fd5b611b0960006132c7565b565b611b13612d9a565b73ffffffffffffffffffffffffffffffffffffffff16611b31611eb7565b73ffffffffffffffffffffffffffffffffffffffff1614611b87576040517f08c379a0000000000000000000000000000000000000000000000000000000008152600401611b7e90614e1f565b60405180910390fd5b604051806040016040528082815260200183815250600e60008201518160000155602082015181600101559050505050565b611bc1612d9a565b73ffffffffffffffffffffffffffffffffffffffff16611bdf611eb7565b73ffffffffffffffffffffffffffffffffffffffff1614611c35576040517f08c379a0000000000000000000000000000000000000000000000000000000008152600401611c2c90614e1f565b60405180910390fd5b816000611c41826119cb565b1415611c82576040517f08c379a0000000000000000000000000000000000000000000000000000000008152600401611c7990614f1f565b60405180910390fd5b601160008473ffffffffffffffffffffffffffffffffffffffff1673ffffffffffffffffffffffffffffffffffffffff16815260200190815260200160002082908060018154018082558091505060019003906000526020600020016000909190919091509080519060200190611cfa929190613ca8565b50505050565b600860009054906101000a900473ffffffffffffffffffffffffffffffffffffffff1681565b611d2e612d9a565b73ffffffffffffffffffffffffffffffffffffffff16611d4c611eb7565b73ffffffffffffffffffffffffffffffffffffffff1614611da2576040517f08c379a0000000000000000000000000000000000000000000000000000000008152600401611d9990614e1f565b60405180910390fd5b670de0b6b3a7640000811015611ded576040517f08c379a0000000000000000000000000000000000000000000000000000000008152600401611de490614e7f565b60405180910390fd5b80600b8190555050565b611dff612d9a565b73ffffffffffffffffffffffffffffffffffffffff16611e1d611eb7565b73ffffffffffffffffffffffffffffffffffffffff1614611e73576040517f08c379a0000000000000000000000000000000000000000000000000000000008152600401611e6a90614e1f565b60405180910390fd5b80600c60006101000a81548173ffffffffffffffffffffffffffffffffffffffff021916908373ffffffffffffffffffffffffffffffffffffffff16021790555050565b6000600660009054906101000a900473ffffffffffffffffffffffffffffffffffffffff16905090565b611ee9612d9a565b73ffffffffffffffffffffffffffffffffffffffff16611f07611eb7565b73ffffffffffffffffffffffffffffffffffffffff1614611f5d576040517f08c379a0000000000000000000000000000000000000000000000000000000008152600401611f5490614e1f565b60405180910390fd5b670de0b6b3a7640000811015611fa8576040517f08c379a0000000000000000000000000000000000000000000000000000000008152600401611f9f90614e7f565b60405180910390fd5b8060098190555050565b611fba612d9a565b73ffffffffffffffffffffffffffffffffffffffff16611fd8611eb7565b73ffffffffffffffffffffffffffffffffffffffff161461202e576040517f08c379a000000000000000000000000000000000000000000000000000000000815260040161202590614e1f565b60405180910390fd5b81600061203a826119cb565b141561207b576040517f08c379a000000000000000000000000000000000000000000000000000000000815260040161207290614f1f565b60405180910390fd5b81601160008573ffffffffffffffffffffffffffffffffffffffff1673ffffffffffffffffffffffffffffffffffffffff16815260200190815260200160002090805190602001906120ce929190613d2e565b50505050565b6120dc612d9a565b73ffffffffffffffffffffffffffffffffffffffff166120fa611eb7565b73ffffffffffffffffffffffffffffffffffffffff1614612150576040517f08c379a000000000000000000000000000000000000000000000000000000000815260040161214790614e1f565b60405180910390fd5b80600d9080519060200190612166929190613ca8565b5050565b606060018054612179906151f5565b80601f01602080910402602001604051908101604052809291908181526020018280546121a5906151f5565b80156121f25780601f106121c7576101008083540402835291602001916121f2565b820191906000526020600020905b8154815290600101906020018083116121d557829003601f168201915b5050505050905090565b3373ffffffffffffffffffffffffffffffffffffffff1661221c83611590565b73ffffffffffffffffffffffffffffffffffffffff1614612272576040517f08c379a000000000000000000000000000000000000000000000000000000000815260040161226990614edf565b60405180910390fd5b61227c828261338d565b5050565b612288612d9a565b73ffffffffffffffffffffffffffffffffffffffff166122a6611eb7565b73ffffffffffffffffffffffffffffffffffffffff16146122fc576040517f08c379a00000000000000000000000000000000000000000000000000000000081526004016122f390614e1f565b60405180910390fd5b826000612308826119cb565b1415612349576040517f08c379a000000000000000000000000000000000000000000000000000000000815260040161234090614f1f565b60405180910390fd5b82601260008673ffffffffffffffffffffffffffffffffffffffff1673ffffffffffffffffffffffffffffffffffffffff168152602001908152602001600020600001600082825461239b9190615087565b9250508190555081601260008673ffffffffffffffffffffffffffffffffffffffff1673ffffffffffffffffffffffffffffffffffffffff16815260200190815260200160002060010160008282546123f49190615087565b9250508190555050505050565b60095481565b612419612412612d9a565b8383613403565b5050565b60126020528060005260406000206000915090508060000154908060010154908060020154905083565b336000612453826119cb565b1415612494576040517f08c379a000000000000000000000000000000000000000000000000000000000815260040161248b90614f1f565b60405180910390fd5b816040516020016124a59190614ac9565b60405160208183030381529060405280519060200120600e6001015414612501576040517f08c379a00000000000000000000000000000000000000000000000000000000081526004016124f890614d5f565b60405180910390fd5b600e60000154601260003373ffffffffffffffffffffffffffffffffffffffff1673ffffffffffffffffffffffffffffffffffffffff16815260200190815260200160002060020154111561258b576040517f08c379a000000000000000000000000000000000000000000000000000000000815260040161258290614eff565b60405180910390fd5b600a54601260003373ffffffffffffffffffffffffffffffffffffffff1673ffffffffffffffffffffffffffffffffffffffff16815260200190815260200160002060000160008282546125df9190615087565b92505081905550600b54601260003373ffffffffffffffffffffffffffffffffffffffff1673ffffffffffffffffffffffffffffffffffffffff168152602001908152602001600020600101600082825461263a9190615087565b9250508190555042601260003373ffffffffffffffffffffffffffffffffffffffff1673ffffffffffffffffffffffffffffffffffffffff168152602001908152602001600020600201819055507f6d60c7436b41e3e4b19b35cdca2fc514b81aac6096d8aa0729c8ab3585f7f93b33601260003373ffffffffffffffffffffffffffffffffffffffff1673ffffffffffffffffffffffffffffffffffffffff168152602001908152602001600020600201546040516126fb929190614b7e565b60405180910390a15050565b612718612712612d9a565b83613570565b612757576040517f08c379a000000000000000000000000000000000000000000000000000000000815260040161274e90614ebf565b60405180910390fd5b6127638484848461364e565b50505050565b612771612d9a565b73ffffffffffffffffffffffffffffffffffffffff1661278f611eb7565b73ffffffffffffffffffffffffffffffffffffffff16146127e5576040517f08c379a00000000000000000000000000000000000000000000000000000000081526004016127dc90614e1f565b60405180910390fd5b6127ef828261338d565b5050565b600a5481565b60608161280581612d2e565b612844576040517f08c379a000000000000000000000000000000000000000000000000000000000815260040161283b90614dff565b60405180910390fd5b601060008481526020019081526020016000208054612862906151f5565b80601f016020809104026020016040519081016040528092919081815260200182805461288e906151f5565b80156128db5780601f106128b0576101008083540402835291602001916128db565b820191906000526020600020905b8154815290600101906020018083116128be57829003601f168201915b5050505050915050919050565b600c60009054906101000a900473ffffffffffffffffffffffffffffffffffffffff1681565b6060600d805461291d906151f5565b80601f0160208091040260200160405190810160405280929190818152602001828054612949906151f5565b80156129965780601f1061296b57610100808354040283529160200191612996565b820191906000526020600020905b81548152906001019060200180831161297957829003601f168201915b5050505050905090565b6000600560008473ffffffffffffffffffffffffffffffffffffffff1673ffffffffffffffffffffffffffffffffffffffff16815260200190815260200160002060008373ffffffffffffffffffffffffffffffffffffffff1673ffffffffffffffffffffffffffffffffffffffff16815260200190815260200160002060009054906101000a900460ff16905092915050565b60116020528160005260406000208181548110612a5057600080fd5b90600052602060002001600091509150508054612a6c906151f5565b80601f0160208091040260200160405190810160405280929190818152602001828054612a98906151f5565b8015612ae55780601f10612aba57610100808354040283529160200191612ae5565b820191906000526020600020905b815481529060010190602001808311612ac857829003601f168201915b505050505081565b612af5612d9a565b73ffffffffffffffffffffffffffffffffffffffff16612b13611eb7565b73ffffffffffffffffffffffffffffffffffffffff1614612b69576040517f08c379a0000000000000000000000000000000000000000000000000000000008152600401612b6090614e1f565b60405180910390fd5b600073ffffffffffffffffffffffffffffffffffffffff168173ffffffffffffffffffffffffffffffffffffffff161415612bd9576040517f08c379a0000000000000000000000000000000000000000000000000000000008152600401612bd090614c3f565b60405180910390fd5b612be2816132c7565b50565b6000612bef612d9a565b73ffffffffffffffffffffffffffffffffffffffff16612c0d611eb7565b73ffffffffffffffffffffffffffffffffffffffff1614612c63576040517f08c379a0000000000000000000000000000000000000000000000000000000008152600401612c5a90614e1f565b60405180910390fd5b816000612c6f826119cb565b14612caf576040517f08c379a0000000000000000000000000000000000000000000000000000000008152600401612ca690614d3f565b60405180910390fd5b612cba8585856131ed565b9150509392505050565b60007f01ffc9a7000000000000000000000000000000000000000000000000000000007bffffffffffffffffffffffffffffffffffffffffffffffffffffffff1916827bffffffffffffffffffffffffffffffffffffffffffffffffffffffff1916149050919050565b60008073ffffffffffffffffffffffffffffffffffffffff166002600084815260200190815260200160002060009054906101000a900473ffffffffffffffffffffffffffffffffffffffff1673ffffffffffffffffffffffffffffffffffffffff1614159050919050565b600033905090565b816004600083815260200190815260200160002060006101000a81548173ffffffffffffffffffffffffffffffffffffffff021916908373ffffffffffffffffffffffffffffffffffffffff160217905550808273ffffffffffffffffffffffffffffffffffffffff16612e1583611590565b73ffffffffffffffffffffffffffffffffffffffff167f8c5be1e5ebec7d5bd14f71427d1e84f3dd0314c0f7b2291e5b200ac8c7c3b92560405160405180910390a45050565b600081600001549050919050565b8273ffffffffffffffffffffffffffffffffffffffff16612e8982611590565b73ffffffffffffffffffffffffffffffffffffffff1614612edf576040517f08c379a0000000000000000000000000000000000000000000000000000000008152600401612ed690614c7f565b60405180910390fd5b600073ffffffffffffffffffffffffffffffffffffffff168273ffffffffffffffffffffffffffffffffffffffff161415612f4f576040517f08c379a0000000000000000000000000000000000000000000000000000000008152600401612f4690614cbf565b60405180910390fd5b612f5a8383836136aa565b612f65600082612da2565b6001600360008573ffffffffffffffffffffffffffffffffffffffff1673ffffffffffffffffffffffffffffffffffffffff1681526020019081526020016000206000828254612fb591906150dd565b925050819055506001600360008473ffffffffffffffffffffffffffffffffffffffff1673ffffffffffffffffffffffffffffffffffffffff168152602001908152602001600020600082825461300c9190615087565b92505081905550816002600083815260200190815260200160002060006101000a81548173ffffffffffffffffffffffffffffffffffffffff021916908373ffffffffffffffffffffffffffffffffffffffff160217905550808273ffffffffffffffffffffffffffffffffffffffff168473ffffffffffffffffffffffffffffffffffffffff167fddf252ad1be2c89b69c2b068fc378daa952ba7f163c4a11628f55a4df523b3ef60405160405180910390a46130cb8383836136af565b505050565b60006130db82611590565b90506130e9816000846136aa565b6130f4600083612da2565b6001600360008373ffffffffffffffffffffffffffffffffffffffff1673ffffffffffffffffffffffffffffffffffffffff168152602001908152602001600020600082825461314491906150dd565b925050819055506002600083815260200190815260200160002060006101000a81549073ffffffffffffffffffffffffffffffffffffffff021916905581600073ffffffffffffffffffffffffffffffffffffffff168273ffffffffffffffffffffffffffffffffffffffff167fddf252ad1be2c89b69c2b068fc378daa952ba7f163c4a11628f55a4df523b3ef60405160405180910390a46131e9816000846136af565b5050565b60003360006131fb826119cb565b1461323b576040517f08c379a000000000000000000000000000000000000000000000000000000000815260040161323290614d3f565b60405180910390fd5b6132456007613885565b60006132516007612e5b565b905061325d848261389b565b84601160008673ffffffffffffffffffffffffffffffffffffffff1673ffffffffffffffffffffffffffffffffffffffff16815260200190815260200160002090805190602001906132b0929190613d2e565b506132bb818761338d565b80925050509392505050565b6000600660009054906101000a900473ffffffffffffffffffffffffffffffffffffffff16905081600660006101000a81548173ffffffffffffffffffffffffffffffffffffffff021916908373ffffffffffffffffffffffffffffffffffffffff1602179055508173ffffffffffffffffffffffffffffffffffffffff168173ffffffffffffffffffffffffffffffffffffffff167f8be0079c531659141344cd1fd0a4f28419497f9722a3daafe3b4186f6b6457e060405160405180910390a35050565b8161339781612d2e565b6133d6576040517f08c379a00000000000000000000000000000000000000000000000000000000081526004016133cd90614dff565b60405180910390fd5b816010600085815260200190815260200160002090805190602001906133fd929190613ca8565b50505050565b8173ffffffffffffffffffffffffffffffffffffffff168373ffffffffffffffffffffffffffffffffffffffff161415613472576040517f08c379a000000000000000000000000000000000000000000000000000000000815260040161346990614cdf565b60405180910390fd5b80600560008573ffffffffffffffffffffffffffffffffffffffff1673ffffffffffffffffffffffffffffffffffffffff16815260200190815260200160002060008473ffffffffffffffffffffffffffffffffffffffff1673ffffffffffffffffffffffffffffffffffffffff16815260200190815260200160002060006101000a81548160ff0219169083151502179055508173ffffffffffffffffffffffffffffffffffffffff168373ffffffffffffffffffffffffffffffffffffffff167f17307eab39ab6107e8899845ad3d59bd9653f200f220920489ca2b5937696c31836040516135639190614ba7565b60405180910390a3505050565b600061357b82612d2e565b6135ba576040517f08c379a00000000000000000000000000000000000000000000000000000000081526004016135b190614cff565b60405180910390fd5b60006135c583611590565b90508073ffffffffffffffffffffffffffffffffffffffff168473ffffffffffffffffffffffffffffffffffffffff16148061363457508373ffffffffffffffffffffffffffffffffffffffff1661361c846109a0565b73ffffffffffffffffffffffffffffffffffffffff16145b80613645575061364481856129a0565b5b91505092915050565b613659848484612e69565b613665848484846138b9565b6136a4576040517f08c379a000000000000000000000000000000000000000000000000000000000815260040161369b90614c1f565b60405180910390fd5b50505050565b505050565b601160008473ffffffffffffffffffffffffffffffffffffffff1673ffffffffffffffffffffffffffffffffffffffff168152602001908152602001600020601160008473ffffffffffffffffffffffffffffffffffffffff1673ffffffffffffffffffffffffffffffffffffffff16815260200190815260200160002090805461373b929190613d8e565b50601160008473ffffffffffffffffffffffffffffffffffffffff1673ffffffffffffffffffffffffffffffffffffffff16815260200190815260200160002060006137879190613df6565b601260008473ffffffffffffffffffffffffffffffffffffffff1673ffffffffffffffffffffffffffffffffffffffff168152602001908152602001600020601260008473ffffffffffffffffffffffffffffffffffffffff1673ffffffffffffffffffffffffffffffffffffffff168152602001908152602001600020600082015481600001556001820154816001015560028201548160020155905050601260008473ffffffffffffffffffffffffffffffffffffffff1673ffffffffffffffffffffffffffffffffffffffff168152602001908152602001600020600080820160009055600182016000905560028201600090555050505050565b6001816000016000828254019250508190555050565b6138b5828260405180602001604052806000815250613a50565b5050565b60006138da8473ffffffffffffffffffffffffffffffffffffffff16613aab565b15613a43578373ffffffffffffffffffffffffffffffffffffffff1663150b7a02613903612d9a565b8786866040518563ffffffff1660e01b81526004016139259493929190614b32565b602060405180830381600087803b15801561393f57600080fd5b505af192505050801561397057506040513d601f19601f8201168201806040525081019061396d9190614479565b60015b6139f3573d80600081146139a0576040519150601f19603f3d011682016040523d82523d6000602084013e6139a5565b606091505b506000815114156139eb576040517f08c379a00000000000000000000000000000000000000000000000000000000081526004016139e290614c1f565b60405180910390fd5b805181602001fd5b63150b7a0260e01b7bffffffffffffffffffffffffffffffffffffffffffffffffffffffff1916817bffffffffffffffffffffffffffffffffffffffffffffffffffffffff191614915050613a48565b600190505b949350505050565b613a5a8383613ace565b613a6760008484846138b9565b613aa6576040517f08c379a0000000000000000000000000000000000000000000000000000000008152600401613a9d90614c1f565b60405180910390fd5b505050565b6000808273ffffffffffffffffffffffffffffffffffffffff163b119050919050565b600073ffffffffffffffffffffffffffffffffffffffff168273ffffffffffffffffffffffffffffffffffffffff161415613b3e576040517f08c379a0000000000000000000000000000000000000000000000000000000008152600401613b3590614dbf565b60405180910390fd5b613b4781612d2e565b15613b87576040517f08c379a0000000000000000000000000000000000000000000000000000000008152600401613b7e90614c9f565b60405180910390fd5b613b93600083836136aa565b6001600360008473ffffffffffffffffffffffffffffffffffffffff1673ffffffffffffffffffffffffffffffffffffffff1681526020019081526020016000206000828254613be39190615087565b92505081905550816002600083815260200190815260200160002060006101000a81548173ffffffffffffffffffffffffffffffffffffffff021916908373ffffffffffffffffffffffffffffffffffffffff160217905550808273ffffffffffffffffffffffffffffffffffffffff16600073ffffffffffffffffffffffffffffffffffffffff167fddf252ad1be2c89b69c2b068fc378daa952ba7f163c4a11628f55a4df523b3ef60405160405180910390a4613ca4600083836136af565b5050565b828054613cb4906151f5565b90600052602060002090601f016020900481019282613cd65760008555613d1d565b82601f10613cef57805160ff1916838001178555613d1d565b82800160010185558215613d1d579182015b82811115613d1c578251825591602001919060010190613d01565b5b509050613d2a9190613e17565b5090565b828054828255906000526020600020908101928215613d7d579160200282015b82811115613d7c578251829080519060200190613d6c929190613ca8565b5091602001919060010190613d4e565b5b509050613d8a9190613e34565b5090565b828054828255906000526020600020908101928215613de55760005260206000209182015b82811115613de4578282908054613dc9906151f5565b613dd4929190613e58565b5091600101919060010190613db3565b5b509050613df29190613e34565b5090565b5080546000825590600052602060002090810190613e149190613e34565b50565b5b80821115613e30576000816000905550600101613e18565b5090565b5b80821115613e545760008181613e4b9190613ee5565b50600101613e35565b5090565b828054613e64906151f5565b90600052602060002090601f016020900481019282613e865760008555613ed4565b82601f10613e975780548555613ed4565b82800160010185558215613ed457600052602060002091601f016020900482015b82811115613ed3578254825591600101919060010190613eb8565b5b509050613ee19190613e17565b5090565b508054613ef1906151f5565b6000825580601f10613f035750613f22565b601f016020900490600052602060002090810190613f219190613e17565b5b50565b6000613f38613f3384614fb6565b614f91565b90508083825260208201905082856020860282011115613f5757600080fd5b60005b85811015613fa157813567ffffffffffffffff811115613f7957600080fd5b808601613f8689826140f9565b85526020850194506020840193505050600181019050613f5a565b5050509392505050565b6000613fbe613fb984614fe2565b614f91565b905082815260208101848484011115613fd657600080fd5b613fe18482856151b3565b509392505050565b6000613ffc613ff784615013565b614f91565b90508281526020810184848401111561401457600080fd5b61401f8482856151b3565b509392505050565b60008135905061403681615931565b92915050565b600082601f83011261404d57600080fd5b813561405d848260208601613f25565b91505092915050565b60008135905061407581615948565b92915050565b60008151905061408a81615948565b92915050565b60008135905061409f8161595f565b92915050565b6000813590506140b481615976565b92915050565b6000815190506140c981615976565b92915050565b600082601f8301126140e057600080fd5b81356140f0848260208601613fab565b91505092915050565b600082601f83011261410a57600080fd5b813561411a848260208601613fe9565b91505092915050565b6000813590506141328161598d565b92915050565b6000815190506141478161598d565b92915050565b60006020828403121561415f57600080fd5b600061416d84828501614027565b91505092915050565b6000806040838503121561418957600080fd5b600061419785828601614027565b92505060206141a885828601614027565b9150509250929050565b6000806000606084860312156141c757600080fd5b60006141d586828701614027565b93505060206141e686828701614027565b92505060406141f786828701614123565b9150509250925092565b6000806000806080858703121561421757600080fd5b600061422587828801614027565b945050602061423687828801614027565b935050604061424787828801614123565b925050606085013567ffffffffffffffff81111561426457600080fd5b614270878288016140cf565b91505092959194509250565b6000806040838503121561428f57600080fd5b600061429d85828601614027565b925050602083013567ffffffffffffffff8111156142ba57600080fd5b6142c68582860161403c565b9150509250929050565b600080604083850312156142e357600080fd5b60006142f185828601614027565b925050602061430285828601614066565b9150509250929050565b6000806040838503121561431f57600080fd5b600061432d85828601614027565b925050602083013567ffffffffffffffff81111561434a57600080fd5b614356858286016140f9565b9150509250929050565b6000806040838503121561437357600080fd5b600061438185828601614027565b925050602061439285828601614123565b9150509250929050565b6000806000606084860312156143b157600080fd5b60006143bf86828701614027565b93505060206143d086828701614123565b92505060406143e186828701614123565b9150509250925092565b6000602082840312156143fd57600080fd5b600061440b8482850161407b565b91505092915050565b6000806040838503121561442757600080fd5b600061443585828601614090565b925050602061444685828601614123565b9150509250929050565b60006020828403121561446257600080fd5b6000614470848285016140a5565b91505092915050565b60006020828403121561448b57600080fd5b6000614499848285016140ba565b91505092915050565b6000602082840312156144b457600080fd5b600082013567ffffffffffffffff8111156144ce57600080fd5b6144da848285016140f9565b91505092915050565b6000806000606084860312156144f857600080fd5b600084013567ffffffffffffffff81111561451257600080fd5b61451e868287016140f9565b935050602084013567ffffffffffffffff81111561453b57600080fd5b6145478682870161403c565b925050604061455886828701614027565b9150509250925092565b6000806040838503121561457557600080fd5b600083013567ffffffffffffffff81111561458f57600080fd5b61459b858286016140f9565b92505060206145ac85828601614123565b9150509250929050565b6000602082840312156145c857600080fd5b60006145d684828501614123565b91505092915050565b6000602082840312156145f157600080fd5b60006145ff84828501614138565b91505092915050565b6000806040838503121561461b57600080fd5b600061462985828601614123565b925050602083013567ffffffffffffffff81111561464657600080fd5b614652858286016140f9565b9150509250929050565b61466581615111565b82525050565b61467481615123565b82525050565b600061468582615044565b61468f818561505a565b935061469f8185602086016151c2565b6146a88161532e565b840191505092915050565b6146bc8161518f565b82525050565b60006146cd8261504f565b6146d7818561506b565b93506146e78185602086016151c2565b6146f08161532e565b840191505092915050565b60006147068261504f565b614710818561507c565b93506147208185602086016151c2565b80840191505092915050565b600061473960098361506b565b91506147448261533f565b602082019050919050565b600061475c60328361506b565b915061476782615368565b604082019050919050565b600061477f60268361506b565b915061478a826153b7565b604082019050919050565b60006147a260138361506b565b91506147ad82615406565b602082019050919050565b60006147c560258361506b565b91506147d08261542f565b604082019050919050565b60006147e8601c8361506b565b91506147f38261547e565b602082019050919050565b600061480b60248361506b565b9150614816826154a7565b604082019050919050565b600061482e60198361506b565b9150614839826154f6565b602082019050919050565b6000614851602c8361506b565b915061485c8261551f565b604082019050919050565b600061487460388361506b565b915061487f8261556e565b604082019050919050565b600061489760138361506b565b91506148a2826155bd565b602082019050919050565b60006148ba600c8361506b565b91506148c5826155e6565b602082019050919050565b60006148dd602a8361506b565b91506148e88261560f565b604082019050919050565b600061490060298361506b565b915061490b8261565e565b604082019050919050565b600061492360208361506b565b915061492e826156ad565b602082019050919050565b6000614946602c8361506b565b9150614951826156d6565b604082019050919050565b6000614969602c8361506b565b915061497482615725565b604082019050919050565b600061498c60208361506b565b915061499782615774565b602082019050919050565b60006149af60128361506b565b91506149ba8261579d565b602082019050919050565b60006149d260108361506b565b91506149dd826157c6565b602082019050919050565b60006149f560108361506b565b9150614a00826157ef565b602082019050919050565b6000614a1860218361506b565b9150614a2382615818565b604082019050919050565b6000614a3b60318361506b565b9150614a4682615867565b604082019050919050565b6000614a5e600d8361506b565b9150614a69826158b6565b602082019050919050565b6000614a8160108361506b565b9150614a8c826158df565b602082019050919050565b6000614aa4600e8361506b565b9150614aaf82615908565b602082019050919050565b614ac381615185565b82525050565b6000614ad582846146fb565b915081905092915050565b6000602082019050614af5600083018461465c565b92915050565b6000606082019050614b10600083018661465c565b614b1d602083018561465c565b614b2a6040830184614aba565b949350505050565b6000608082019050614b47600083018761465c565b614b54602083018661465c565b614b616040830185614aba565b8181036060830152614b73818461467a565b905095945050505050565b6000604082019050614b93600083018561465c565b614ba06020830184614aba565b9392505050565b6000602082019050614bbc600083018461466b565b92915050565b6000602082019050614bd760008301846146b3565b92915050565b60006020820190508181036000830152614bf781846146c2565b905092915050565b60006020820190508181036000830152614c188161472c565b9050919050565b60006020820190508181036000830152614c388161474f565b9050919050565b60006020820190508181036000830152614c5881614772565b9050919050565b60006020820190508181036000830152614c7881614795565b9050919050565b60006020820190508181036000830152614c98816147b8565b9050919050565b60006020820190508181036000830152614cb8816147db565b9050919050565b60006020820190508181036000830152614cd8816147fe565b9050919050565b60006020820190508181036000830152614cf881614821565b9050919050565b60006020820190508181036000830152614d1881614844565b9050919050565b60006020820190508181036000830152614d3881614867565b9050919050565b60006020820190508181036000830152614d588161488a565b9050919050565b60006020820190508181036000830152614d78816148ad565b9050919050565b60006020820190508181036000830152614d98816148d0565b9050919050565b60006020820190508181036000830152614db8816148f3565b9050919050565b60006020820190508181036000830152614dd881614916565b9050919050565b60006020820190508181036000830152614df881614939565b9050919050565b60006020820190508181036000830152614e188161495c565b9050919050565b60006020820190508181036000830152614e388161497f565b9050919050565b60006020820190508181036000830152614e58816149a2565b9050919050565b60006020820190508181036000830152614e78816149c5565b9050919050565b60006020820190508181036000830152614e98816149e8565b9050919050565b60006020820190508181036000830152614eb881614a0b565b9050919050565b60006020820190508181036000830152614ed881614a2e565b9050919050565b60006020820190508181036000830152614ef881614a51565b9050919050565b60006020820190508181036000830152614f1881614a74565b9050919050565b60006020820190508181036000830152614f3881614a97565b9050919050565b6000602082019050614f546000830184614aba565b92915050565b6000606082019050614f6f6000830186614aba565b614f7c6020830185614aba565b614f896040830184614aba565b949350505050565b6000614f9b614fac565b9050614fa78282615227565b919050565b6000604051905090565b600067ffffffffffffffff821115614fd157614fd06152ff565b5b602082029050602081019050919050565b600067ffffffffffffffff821115614ffd57614ffc6152ff565b5b6150068261532e565b9050602081019050919050565b600067ffffffffffffffff82111561502e5761502d6152ff565b5b6150378261532e565b9050602081019050919050565b600081519050919050565b600081519050919050565b600082825260208201905092915050565b600082825260208201905092915050565b600081905092915050565b600061509282615185565b915061509d83615185565b9250827fffffffffffffffffffffffffffffffffffffffffffffffffffffffffffffffff038211156150d2576150d16152a1565b5b828201905092915050565b60006150e882615185565b91506150f383615185565b925082821015615106576151056152a1565b5b828203905092915050565b600061511c82615165565b9050919050565b60008115159050919050565b6000819050919050565b60007fffffffff0000000000000000000000000000000000000000000000000000000082169050919050565b600073ffffffffffffffffffffffffffffffffffffffff82169050919050565b6000819050919050565b600061519a826151a1565b9050919050565b60006151ac82615165565b9050919050565b82818337600083830152505050565b60005b838110156151e05780820151818401526020810190506151c5565b838111156151ef576000848401525b50505050565b6000600282049050600182168061520d57607f821691505b60208210811415615221576152206152d0565b5b50919050565b6152308261532e565b810181811067ffffffffffffffff8211171561524f5761524e6152ff565b5b80604052505050565b600061526382615185565b91507fffffffffffffffffffffffffffffffffffffffffffffffffffffffffffffffff821415615296576152956152a1565b5b600182019050919050565b7f4e487b7100000000000000000000000000000000000000000000000000000000600052601160045260246000fd5b7f4e487b7100000000000000000000000000000000000000000000000000000000600052602260045260246000fd5b7f4e487b7100000000000000000000000000000000000000000000000000000000600052604160045260246000fd5b6000601f19601f8301169050919050565b7f5458204641494c45440000000000000000000000000000000000000000000000600082015250565b7f4552433732313a207472616e7366657220746f206e6f6e20455243373231526560008201527f63656976657220696d706c656d656e7465720000000000000000000000000000602082015250565b7f4f776e61626c653a206e6577206f776e657220697320746865207a65726f206160008201527f6464726573730000000000000000000000000000000000000000000000000000602082015250565b7f494e53554646494349454e5420414d4f554e5400000000000000000000000000600082015250565b7f4552433732313a207472616e736665722066726f6d20696e636f72726563742060008201527f6f776e6572000000000000000000000000000000000000000000000000000000602082015250565b7f4552433732313a20746f6b656e20616c7265616479206d696e74656400000000600082015250565b7f4552433732313a207472616e7366657220746f20746865207a65726f2061646460008201527f7265737300000000000000000000000000000000000000000000000000000000602082015250565b7f4552433732313a20617070726f766520746f2063616c6c657200000000000000600082015250565b7f4552433732313a206f70657261746f7220717565727920666f72206e6f6e657860008201527f697374656e7420746f6b656e0000000000000000000000000000000000000000602082015250565b7f4552433732313a20617070726f76652063616c6c6572206973206e6f74206f7760008201527f6e6572206e6f7220617070726f76656420666f7220616c6c0000000000000000602082015250565b7f4d555354204245204e4f4e4520484f4c44455200000000000000000000000000600082015250565b7f57524f4e4720414e535745520000000000000000000000000000000000000000600082015250565b7f4552433732313a2062616c616e636520717565727920666f7220746865207a6560008201527f726f206164647265737300000000000000000000000000000000000000000000602082015250565b7f4552433732313a206f776e657220717565727920666f72206e6f6e657869737460008201527f656e7420746f6b656e0000000000000000000000000000000000000000000000602082015250565b7f4552433732313a206d696e7420746f20746865207a65726f2061646472657373600082015250565b7f4552433732313a20617070726f76656420717565727920666f72206e6f6e657860008201527f697374656e7420746f6b656e0000000000000000000000000000000000000000602082015250565b7f4552433732314d657461646174613a2055524920736574206f66206e6f6e657860008201527f697374656e7420746f6b656e0000000000000000000000000000000000000000602082015250565b7f4f776e61626c653a2063616c6c6572206973206e6f7420746865206f776e6572600082015250565b7f494e53554646494349454e5420464f554e440000000000000000000000000000600082015250565b7f496e76616c696420746f6b656e55524900000000000000000000000000000000600082015250565b7f4d55535420424520475445203165313800000000000000000000000000000000600082015250565b7f4552433732313a20617070726f76616c20746f2063757272656e74206f776e6560008201527f7200000000000000000000000000000000000000000000000000000000000000602082015250565b7f4552433732313a207472616e736665722063616c6c6572206973206e6f74206f60008201527f776e6572206e6f7220617070726f766564000000000000000000000000000000602082015250565b7f4e4f54204e4654204f574e455200000000000000000000000000000000000000600082015250565b7f414c524541445920414e53574552454400000000000000000000000000000000600082015250565b7f4d55535420424520484f4c444552000000000000000000000000000000000000600082015250565b61593a81615111565b811461594557600080fd5b50565b61595181615123565b811461595c57600080fd5b50565b6159688161512f565b811461597357600080fd5b50565b61597f81615139565b811461598a57600080fd5b50565b61599681615185565b81146159a157600080fd5b5056fea26469706673582212202b93345349617623d6be22af5d89ce1098803f70b95d438e2ec609b9fe7365ed64736f6c63430008040033",
  "linkReferences": {},
  "deployedLinkReferences": {}
}