{
  "_format": "hh-sol-artifact-1",
  "contractName": "PodCastNFT",
  "sourceName": "contracts/PodCastNFT.sol",
  "abi": [
    {
      "inputs": [
        {
          "internalType": "address",
          "name": "_erc20",
          "type": "address"
        },
        {
          "internalType": "address",
          "name": "_fundAddress",
          "type": "address"
        }
      ],
      "stateMutability": "nonpayable",
      "type": "constructor"
    },
    {
      "anonymous": false,
      "inputs": [
        {
          "indexed": true,
          "internalType": "address",
          "name": "owner",
          "type": "address"
        },
        {
          "indexed": true,
          "internalType": "address",
          "name": "approved",
          "type": "address"
        },
        {
          "indexed": true,
          "internalType": "uint256",
          "name": "tokenId",
          "type": "uint256"
        }
      ],
      "name": "Approval",
      "type": "event"
    },
    {
      "anonymous": false,
      "inputs": [
        {
          "indexed": true,
          "internalType": "address",
          "name": "owner",
          "type": "address"
        },
        {
          "indexed": true,
          "internalType": "address",
          "name": "operator",
          "type": "address"
        },
        {
          "indexed": false,
          "internalType": "bool",
          "name": "approved",
          "type": "bool"
        }
      ],
      "name": "ApprovalForAll",
      "type": "event"
    },
    {
      "anonymous": false,
      "inputs": [
        {
          "indexed": false,
          "internalType": "address",
          "name": "_owner",
          "type": "address"
        },
        {
          "indexed": false,
          "internalType": "uint256",
          "name": "_tokenId",
          "type": "uint256"
        }
      ],
      "name": "BoughtMemberShipNFT",
      "type": "event"
    },
    {
      "anonymous": false,
      "inputs": [
        {
          "indexed": false,
          "internalType": "address",
          "name": "_by",
          "type": "address"
        },
        {
          "indexed": false,
          "internalType": "uint256",
          "name": "_at",
          "type": "uint256"
        }
      ],
      "name": "CheckedAnswer",
      "type": "event"
    },
    {
      "anonymous": false,
      "inputs": [
        {
          "indexed": false,
          "internalType": "address",
          "name": "_by",
          "type": "address"
        },
        {
          "indexed": false,
          "internalType": "uint256",
          "name": "_amount",
          "type": "uint256"
        }
      ],
      "name": "ClaimedToken",
      "type": "event"
    },
    {
      "anonymous": false,
      "inputs": [
        {
          "indexed": true,
          "internalType": "address",
          "name": "previousOwner",
          "type": "address"
        },
        {
          "indexed": true,
          "internalType": "address",
          "name": "newOwner",
          "type": "address"
        }
      ],
      "name": "OwnershipTransferred",
      "type": "event"
    },
    {
      "anonymous": false,
      "inputs": [
        {
          "indexed": true,
          "internalType": "address",
          "name": "from",
          "type": "address"
        },
        {
          "indexed": true,
          "internalType": "address",
          "name": "to",
          "type": "address"
        },
        {
          "indexed": true,
          "internalType": "uint256",
          "name": "tokenId",
          "type": "uint256"
        }
      ],
      "name": "Transfer",
      "type": "event"
    },
    {
      "inputs": [
        {
          "internalType": "uint256",
          "name": "",
          "type": "uint256"
        }
      ],
      "name": "_tokenURIs",
      "outputs": [
        {
          "internalType": "string",
          "name": "",
          "type": "string"
        }
      ],
      "stateMutability": "view",
      "type": "function"
    },
    {
      "inputs": [
        {
          "internalType": "address",
          "name": "_to",
          "type": "address"
        },
        {
          "internalType": "string",
          "name": "_role",
          "type": "string"
        }
      ],
      "name": "addRole",
      "outputs": [],
      "stateMutability": "nonpayable",
      "type": "function"
    },
    {
      "inputs": [
        {
          "internalType": "address",
          "name": "to",
          "type": "address"
        },
        {
          "internalType": "uint256",
          "name": "tokenId",
          "type": "uint256"
        }
      ],
      "name": "approve",
      "outputs": [],
      "stateMutability": "nonpayable",
      "type": "function"
    },
    {
      "inputs": [
        {
          "internalType": "address",
          "name": "owner",
          "type": "address"
        }
      ],
      "name": "balanceOf",
      "outputs": [
        {
          "internalType": "uint256",
          "name": "",
          "type": "uint256"
        }
      ],
      "stateMutability": "view",
      "type": "function"
    },
    {
      "inputs": [
        {
          "internalType": "uint256",
          "name": "_tokenId",
          "type": "uint256"
        }
      ],
      "name": "burn",
      "outputs": [],
      "stateMutability": "nonpayable",
      "type": "function"
    },
    {
      "inputs": [
        {
          "internalType": "string",
          "name": "_keyword",
          "type": "string"
        }
      ],
      "name": "checkAnswer",
      "outputs": [],
      "stateMutability": "nonpayable",
      "type": "function"
    },
    {
      "inputs": [],
      "name": "claimToken",
      "outputs": [],
      "stateMutability": "nonpayable",
      "type": "function"
    },
    {
      "inputs": [],
      "name": "contractURI",
      "outputs": [
        {
          "internalType": "string",
          "name": "",
          "type": "string"
        }
      ],
      "stateMutability": "view",
      "type": "function"
    },
    {
      "inputs": [],
      "name": "fundAddress",
      "outputs": [
        {
          "internalType": "address",
          "name": "",
          "type": "address"
        }
      ],
      "stateMutability": "view",
      "type": "function"
    },
    {
      "inputs": [
        {
          "internalType": "uint256",
          "name": "tokenId",
          "type": "uint256"
        }
      ],
      "name": "getApproved",
      "outputs": [
        {
          "internalType": "address",
          "name": "",
          "type": "address"
        }
      ],
      "stateMutability": "view",
      "type": "function"
    },
    {
      "inputs": [
        {
          "internalType": "address",
          "name": "_to",
          "type": "address"
        },
        {
          "internalType": "uint256",
          "name": "_point",
          "type": "uint256"
        },
        {
          "internalType": "uint256",
          "name": "_claimableToken",
          "type": "uint256"
        }
      ],
      "name": "giveAwayPoint",
      "outputs": [],
      "stateMutability": "nonpayable",
      "type": "function"
    },
    {
      "inputs": [
        {
          "internalType": "address",
          "name": "_address",
          "type": "address"
        },
        {
          "internalType": "string",
          "name": "_role",
          "type": "string"
        }
      ],
      "name": "hasRoleOf",
      "outputs": [
        {
          "internalType": "bool",
          "name": "",
          "type": "bool"
        }
      ],
      "stateMutability": "view",
      "type": "function"
    },
    {
      "inputs": [],
      "name": "henkakuToken",
      "outputs": [
        {
          "internalType": "contract IERC20",
          "name": "",
          "type": "address"
        }
      ],
      "stateMutability": "view",
      "type": "function"
    },
    {
      "inputs": [
        {
          "internalType": "address",
          "name": "owner",
          "type": "address"
        },
        {
          "internalType": "address",
          "name": "operator",
          "type": "address"
        }
      ],
      "name": "isApprovedForAll",
      "outputs": [
        {
          "internalType": "bool",
          "name": "",
          "type": "bool"
        }
      ],
      "stateMutability": "view",
      "type": "function"
    },
    {
      "inputs": [
        {
          "internalType": "string",
          "name": "_tokenURI",
          "type": "string"
        },
        {
          "internalType": "string[]",
          "name": "_roles",
          "type": "string[]"
        },
        {
          "internalType": "address",
          "name": "_to",
          "type": "address"
        }
      ],
      "name": "mint",
      "outputs": [
        {
          "internalType": "uint256",
          "name": "",
          "type": "uint256"
        }
      ],
      "stateMutability": "nonpayable",
      "type": "function"
    },
    {
      "inputs": [
        {
          "internalType": "string",
          "name": "_tokenURI",
          "type": "string"
        },
        {
          "internalType": "uint256",
          "name": "_amount",
          "type": "uint256"
        }
      ],
      "name": "mintWithHenkaku",
      "outputs": [],
      "stateMutability": "nonpayable",
      "type": "function"
    },
    {
      "inputs": [],
      "name": "name",
      "outputs": [
        {
          "internalType": "string",
          "name": "",
          "type": "string"
        }
      ],
      "stateMutability": "view",
      "type": "function"
    },
    {
      "inputs": [],
      "name": "owner",
      "outputs": [
        {
          "internalType": "address",
          "name": "",
          "type": "address"
        }
      ],
      "stateMutability": "view",
      "type": "function"
    },
    {
      "inputs": [
        {
          "internalType": "uint256",
          "name": "tokenId",
          "type": "uint256"
        }
      ],
      "name": "ownerOf",
      "outputs": [
        {
          "internalType": "address",
          "name": "",
          "type": "address"
        }
      ],
      "stateMutability": "view",
      "type": "function"
    },
    {
      "inputs": [],
      "name": "price",
      "outputs": [
        {
          "internalType": "uint256",
          "name": "",
          "type": "uint256"
        }
      ],
      "stateMutability": "view",
      "type": "function"
    },
    {
      "inputs": [],
      "name": "renounceOwnership",
      "outputs": [],
      "stateMutability": "nonpayable",
      "type": "function"
    },
    {
      "inputs": [],
      "name": "rewardHenkaku",
      "outputs": [
        {
          "internalType": "uint256",
          "name": "",
          "type": "uint256"
        }
      ],
      "stateMutability": "view",
      "type": "function"
    },
    {
      "inputs": [],
      "name": "rewardPoint",
      "outputs": [
        {
          "internalType": "uint256",
          "name": "",
          "type": "uint256"
        }
      ],
      "stateMutability": "view",
      "type": "function"
    },
    {
      "inputs": [
        {
          "internalType": "address",
          "name": "",
          "type": "address"
        },
        {
          "internalType": "uint256",
          "name": "",
          "type": "uint256"
        }
      ],
      "name": "roles",
      "outputs": [
        {
          "internalType": "string",
          "name": "",
          "type": "string"
        }
      ],
      "stateMutability": "view",
      "type": "function"
    },
    {
      "inputs": [
        {
          "internalType": "address",
          "name": "from",
          "type": "address"
        },
        {
          "internalType": "address",
          "name": "to",
          "type": "address"
        },
        {
          "internalType": "uint256",
          "name": "tokenId",
          "type": "uint256"
        }
      ],
      "name": "safeTransferFrom",
      "outputs": [],
      "stateMutability": "nonpayable",
      "type": "function"
    },
    {
      "inputs": [
        {
          "internalType": "address",
          "name": "from",
          "type": "address"
        },
        {
          "internalType": "address",
          "name": "to",
          "type": "address"
        },
        {
          "internalType": "uint256",
          "name": "tokenId",
          "type": "uint256"
        },
        {
          "internalType": "bytes",
          "name": "_data",
          "type": "bytes"
        }
      ],
      "name": "safeTransferFrom",
      "outputs": [],
      "stateMutability": "nonpayable",
      "type": "function"
    },
    {
      "inputs": [
        {
          "internalType": "address",
          "name": "operator",
          "type": "address"
        },
        {
          "internalType": "bool",
          "name": "approved",
          "type": "bool"
        }
      ],
      "name": "setApprovalForAll",
      "outputs": [],
      "stateMutability": "nonpayable",
      "type": "function"
    },
    {
      "inputs": [
        {
          "internalType": "string",
          "name": "uri",
          "type": "string"
        }
      ],
      "name": "setContractURI",
      "outputs": [],
      "stateMutability": "nonpayable",
      "type": "function"
    },
    {
      "inputs": [
        {
          "internalType": "address",
          "name": "_fundAddress",
          "type": "address"
        }
      ],
      "name": "setFundAddress",
      "outputs": [],
      "stateMutability": "nonpayable",
      "type": "function"
    },
    {
      "inputs": [
        {
          "internalType": "string",
          "name": "_keyword",
          "type": "string"
        },
        {
          "internalType": "uint256",
          "name": "startedAt",
          "type": "uint256"
        }
      ],
      "name": "setKeyword",
      "outputs": [],
      "stateMutability": "nonpayable",
      "type": "function"
    },
    {
      "inputs": [
        {
          "internalType": "uint256",
          "name": "_price",
          "type": "uint256"
        }
      ],
      "name": "setPrice",
      "outputs": [],
      "stateMutability": "nonpayable",
      "type": "function"
    },
    {
      "inputs": [
        {
          "internalType": "uint256",
          "name": "_rewardHenkaku",
          "type": "uint256"
        }
      ],
      "name": "setRewardHenkaku",
      "outputs": [],
      "stateMutability": "nonpayable",
      "type": "function"
    },
    {
      "inputs": [
        {
          "internalType": "uint256",
          "name": "_rewardPoint",
          "type": "uint256"
        }
      ],
      "name": "setRewardPoint",
      "outputs": [],
      "stateMutability": "nonpayable",
      "type": "function"
    },
    {
      "inputs": [
        {
          "internalType": "address",
          "name": "_to",
          "type": "address"
        },
        {
          "internalType": "string[]",
          "name": "_roles",
          "type": "string[]"
        }
      ],
      "name": "setRoles",
      "outputs": [],
      "stateMutability": "nonpayable",
      "type": "function"
    },
    {
      "inputs": [
        {
          "internalType": "address",
          "name": "_erc20",
          "type": "address"
        }
      ],
      "name": "setTokenAddr",
      "outputs": [],
      "stateMutability": "nonpayable",
      "type": "function"
    },
    {
      "inputs": [
        {
          "internalType": "bytes4",
          "name": "interfaceId",
          "type": "bytes4"
        }
      ],
      "name": "supportsInterface",
      "outputs": [
        {
          "internalType": "bool",
          "name": "",
          "type": "bool"
        }
      ],
      "stateMutability": "view",
      "type": "function"
    },
    {
      "inputs": [],
      "name": "symbol",
      "outputs": [
        {
          "internalType": "string",
          "name": "",
          "type": "string"
        }
      ],
      "stateMutability": "view",
      "type": "function"
    },
    {
      "inputs": [
        {
          "internalType": "uint256",
          "name": "tokenId",
          "type": "uint256"
        }
      ],
      "name": "tokenURI",
      "outputs": [
        {
          "internalType": "string",
          "name": "",
          "type": "string"
        }
      ],
      "stateMutability": "view",
      "type": "function"
    },
    {
      "inputs": [],
      "name": "totalSupply",
      "outputs": [
        {
          "internalType": "uint256",
          "name": "",
          "type": "uint256"
        }
      ],
      "stateMutability": "view",
      "type": "function"
    },
    {
      "inputs": [
        {
          "internalType": "address",
          "name": "_from",
          "type": "address"
        },
        {
          "internalType": "address",
          "name": "_to",
          "type": "address"
        },
        {
          "internalType": "uint256",
          "name": "_tokenId",
          "type": "uint256"
        }
      ],
      "name": "transferFrom",
      "outputs": [],
      "stateMutability": "nonpayable",
      "type": "function"
    },
    {
      "inputs": [
        {
          "internalType": "address",
          "name": "newOwner",
          "type": "address"
        }
      ],
      "name": "transferOwnership",
      "outputs": [],
      "stateMutability": "nonpayable",
      "type": "function"
    },
    {
      "inputs": [
        {
          "internalType": "uint256",
          "name": "tokenId",
          "type": "uint256"
        },
        {
          "internalType": "string",
          "name": "finalTokenUri",
          "type": "string"
        }
      ],
      "name": "updateNFT",
      "outputs": [],
      "stateMutability": "nonpayable",
      "type": "function"
    },
    {
      "inputs": [
        {
          "internalType": "uint256",
          "name": "tokenId",
          "type": "uint256"
        },
        {
          "internalType": "string",
          "name": "finalTokenUri",
          "type": "string"
        }
      ],
      "name": "updateOwnNFT",
      "outputs": [],
      "stateMutability": "nonpayable",
      "type": "function"
    },
    {
      "inputs": [
        {
          "internalType": "address",
          "name": "",
          "type": "address"
        }
      ],
      "name": "userAttribute",
      "outputs": [
        {
          "internalType": "uint256",
          "name": "point",
          "type": "uint256"
        },
        {
          "internalType": "uint256",
          "name": "claimableToken",
          "type": "uint256"
        },
        {
          "internalType": "uint256",
          "name": "answeredAt",
          "type": "uint256"
        }
      ],
      "stateMutability": "view",
      "type": "function"
    },
    {
      "inputs": [],
      "name": "withdraw",
      "outputs": [],
      "stateMutability": "nonpayable",
      "type": "function"
    }
  ],
  "bytecode": "0x60806040523480156200001157600080fd5b50604051620062ba380380620062ba833981810160405281019062000037919062000733565b6040518060400160405280600c81526020017f48656e6b616b752076302e3200000000000000000000000000000000000000008152506040518060400160405280600781526020017f68656e6b616b75000000000000000000000000000000000000000000000000008152508160009080519060200190620000bb9291906200066c565b508060019080519060200190620000d49291906200066c565b505050620000f7620000eb6200016760201b60201c565b6200016f60201b60201c565b62000108826200023560201b60201c565b62000122683635c9adc5dea000006200030860201b60201c565b620001346064620003ef60201b60201c565b6200014e68056bc75e2d631000006200048860201b60201c565b6200015f816200056f60201b60201c565b50506200091c565b600033905090565b6000600660009054906101000a900473ffffffffffffffffffffffffffffffffffffffff16905081600660006101000a81548173ffffffffffffffffffffffffffffffffffffffff021916908373ffffffffffffffffffffffffffffffffffffffff1602179055508173ffffffffffffffffffffffffffffffffffffffff168173ffffffffffffffffffffffffffffffffffffffff167f8be0079c531659141344cd1fd0a4f28419497f9722a3daafe3b4186f6b6457e060405160405180910390a35050565b620002456200016760201b60201c565b73ffffffffffffffffffffffffffffffffffffffff166200026b6200064260201b60201c565b73ffffffffffffffffffffffffffffffffffffffff1614620002c4576040517f08c379a0000000000000000000000000000000000000000000000000000000008152600401620002bb90620007c2565b60405180910390fd5b80600860006101000a81548173ffffffffffffffffffffffffffffffffffffffff021916908373ffffffffffffffffffffffffffffffffffffffff16021790555050565b620003186200016760201b60201c565b73ffffffffffffffffffffffffffffffffffffffff166200033e6200064260201b60201c565b73ffffffffffffffffffffffffffffffffffffffff161462000397576040517f08c379a00000000000000000000000000000000000000000000000000000000081526004016200038e90620007c2565b60405180910390fd5b670de0b6b3a7640000811015620003e5576040517f08c379a0000000000000000000000000000000000000000000000000000000008152600401620003dc90620007e4565b60405180910390fd5b8060098190555050565b620003ff6200016760201b60201c565b73ffffffffffffffffffffffffffffffffffffffff16620004256200064260201b60201c565b73ffffffffffffffffffffffffffffffffffffffff16146200047e576040517f08c379a00000000000000000000000000000000000000000000000000000000081526004016200047590620007c2565b60405180910390fd5b80600a8190555050565b620004986200016760201b60201c565b73ffffffffffffffffffffffffffffffffffffffff16620004be6200064260201b60201c565b73ffffffffffffffffffffffffffffffffffffffff161462000517576040517f08c379a00000000000000000000000000000000000000000000000000000000081526004016200050e90620007c2565b60405180910390fd5b670de0b6b3a764000081101562000565576040517f08c379a00000000000000000000000000000000000000000000000000000000081526004016200055c90620007e4565b60405180910390fd5b80600b8190555050565b6200057f6200016760201b60201c565b73ffffffffffffffffffffffffffffffffffffffff16620005a56200064260201b60201c565b73ffffffffffffffffffffffffffffffffffffffff1614620005fe576040517f08c379a0000000000000000000000000000000000000000000000000000000008152600401620005f590620007c2565b60405180910390fd5b80600c60006101000a81548173ffffffffffffffffffffffffffffffffffffffff021916908373ffffffffffffffffffffffffffffffffffffffff16021790555050565b6000600660009054906101000a900473ffffffffffffffffffffffffffffffffffffffff16905090565b8280546200067a906200084b565b90600052602060002090601f0160209004810192826200069e5760008555620006ea565b82601f10620006b957805160ff1916838001178555620006ea565b82800160010185558215620006ea579182015b82811115620006e9578251825591602001919060010190620006cc565b5b509050620006f99190620006fd565b5090565b5b8082111562000718576000816000905550600101620006fe565b5090565b6000815190506200072d8162000902565b92915050565b600080604083850312156200074757600080fd5b600062000757858286016200071c565b92505060206200076a858286016200071c565b9150509250929050565b60006200078360208362000806565b91506200079082620008b0565b602082019050919050565b6000620007aa60108362000806565b9150620007b782620008d9565b602082019050919050565b60006020820190508181036000830152620007dd8162000774565b9050919050565b60006020820190508181036000830152620007ff816200079b565b9050919050565b600082825260208201905092915050565b600062000824826200082b565b9050919050565b600073ffffffffffffffffffffffffffffffffffffffff82169050919050565b600060028204905060018216806200086457607f821691505b602082108114156200087b576200087a62000881565b5b50919050565b7f4e487b7100000000000000000000000000000000000000000000000000000000600052602260045260246000fd5b7f4f776e61626c653a2063616c6c6572206973206e6f7420746865206f776e6572600082015250565b7f4d55535420424520475445203165313800000000000000000000000000000000600082015250565b6200090d8162000817565b81146200091957600080fd5b50565b61598e806200092c6000396000f3fe608060405234801561001057600080fd5b506004361061027f5760003560e01c806385dc30041161015c578063b52bd9c6116100ce578063e8a3d48511610087578063e8a3d48514610746578063e985e9c514610764578063f0723d9714610794578063f09d31df146107c4578063f2fde38b146107e0578063fc70d5fd146107fc5761027f565b8063b52bd9c614610686578063b88d4fde146106a2578063c318d8f8146106be578063c68b9dfa146106da578063c87b56dd146106f8578063e82bef29146107285761027f565b806395d89b411161012057806395d89b41146105c45780639bd68fa4146105e25780639c0a71de146105fe578063a035b1fe1461061a578063a22cb46514610638578063a53696ac146106545761027f565b806385dc3004146105365780638da5cb5b1461055257806391b7f5ed1461057057806391c558551461058c578063938e3d7b146105a85761027f565b806342842e0e116101f55780636e8b2a48116101b95780636e8b2a481461048a57806370a08231146104a6578063715018a6146104d65780637d72aa65146104e0578063809a6cd6146104fc57806381c95fd21461051a5761027f565b806342842e0e146103e857806342966c68146104045780634451d89f146104205780635d764b3e1461042a5780636352211e1461045a5761027f565b806318160ddd1161024757806318160ddd1461034e57806320d83a061461036c57806323b872dd1461038a5780632ebd1e28146103a65780633451eee8146103c25780633ccfd60b146103de5761027f565b806301ffc9a71461028457806306fdde03146102b4578063081812fc146102d2578063095ea7b3146103025780630bb78ec11461031e575b600080fd5b61029e60048036038101906102999190614425565b61082c565b6040516102ab9190614b7c565b60405180910390f35b6102bc61090e565b6040516102c99190614bb2565b60405180910390f35b6102ec60048036038101906102e7919061458b565b6109a0565b6040516102f99190614ab5565b60405180910390f35b61031c60048036038101906103179190614371565b610a25565b005b6103386004803603810190610333919061458b565b610b3d565b6040516103459190614bb2565b60405180910390f35b610356610bdd565b6040516103639190614f14565b60405180910390f35b610374610bee565b6040516103819190614f14565b60405180910390f35b6103a4600480360381019061039f91906141c3565b610bf4565b005b6103c060048036038101906103bb919061415e565b610c80565b005b6103dc60048036038101906103d7919061458b565b610d40565b005b6103e6610dc6565b005b61040260048036038101906103fd91906141c3565b61100a565b005b61041e6004803603810190610419919061458b565b61102a565b005b6104286110b2565b005b610444600480360381019061043f919061431d565b6113ef565b6040516104519190614b7c565b60405180910390f35b610474600480360381019061046f919061458b565b611590565b6040516104819190614ab5565b60405180910390f35b6104a4600480360381019061049f9190614537565b611642565b005b6104c060048036038101906104bb919061415e565b6119cb565b6040516104cd9190614f14565b60405180910390f35b6104de611a83565b005b6104fa60048036038101906104f5919061431d565b611b0b565b005b610504611c52565b6040516105119190614b97565b60405180910390f35b610534600480360381019061052f919061458b565b611c78565b005b610550600480360381019061054b919061415e565b611d49565b005b61055a611e09565b6040516105679190614ab5565b60405180910390f35b61058a6004803603810190610585919061458b565b611e33565b005b6105a660048036038101906105a1919061428d565b611f04565b005b6105c260048036038101906105bd9190614477565b612026565b005b6105cc6120bc565b6040516105d99190614bb2565b60405180910390f35b6105fc60048036038101906105f791906145dd565b61214e565b005b610618600480360381019061061391906143ad565b6121d2565b005b610622612353565b60405161062f9190614f14565b60405180910390f35b610652600480360381019061064d91906142e1565b612359565b005b61066e6004803603810190610669919061415e565b61236f565b60405161067d93929190614f2f565b60405180910390f35b6106a0600480360381019061069b9190614477565b612399565b005b6106bc60048036038101906106b79190614212565b612659565b005b6106d860048036038101906106d391906145dd565b6126bb565b005b6106e2612745565b6040516106ef9190614f14565b60405180910390f35b610712600480360381019061070d919061458b565b61274b565b60405161071f9190614bb2565b60405180910390f35b61073061283a565b60405161073d9190614ab5565b60405180910390f35b61074e612860565b60405161075b9190614bb2565b60405180910390f35b61077e60048036038101906107799190614187565b6128f2565b60405161078b9190614b7c565b60405180910390f35b6107ae60048036038101906107a99190614371565b612986565b6040516107bb9190614bb2565b60405180910390f35b6107de60048036038101906107d99190614537565b612a3f565b005b6107fa60048036038101906107f5919061415e565b612b13565b005b610816600480360381019061081191906144b8565b612c0b565b6040516108239190614f14565b60405180910390f35b60007f80ac58cd000000000000000000000000000000000000000000000000000000007bffffffffffffffffffffffffffffffffffffffffffffffffffffffff1916827bffffffffffffffffffffffffffffffffffffffffffffffffffffffff191614806108f757507f5b5e139f000000000000000000000000000000000000000000000000000000007bffffffffffffffffffffffffffffffffffffffffffffffffffffffff1916827bffffffffffffffffffffffffffffffffffffffffffffffffffffffff1916145b80610907575061090682612cea565b5b9050919050565b60606000805461091d906151c0565b80601f0160208091040260200160405190810160405280929190818152602001828054610949906151c0565b80156109965780601f1061096b57610100808354040283529160200191610996565b820191906000526020600020905b81548152906001019060200180831161097957829003601f168201915b5050505050905090565b60006109ab82612d54565b6109ea576040517f08c379a00000000000000000000000000000000000000000000000000000000081526004016109e190614db4565b60405180910390fd5b6004600083815260200190815260200160002060009054906101000a900473ffffffffffffffffffffffffffffffffffffffff169050919050565b6000610a3082611590565b90508073ffffffffffffffffffffffffffffffffffffffff168373ffffffffffffffffffffffffffffffffffffffff161415610aa1576040517f08c379a0000000000000000000000000000000000000000000000000000000008152600401610a9890614e74565b60405180910390fd5b8073ffffffffffffffffffffffffffffffffffffffff16610ac0612dc0565b73ffffffffffffffffffffffffffffffffffffffff161480610aef5750610aee81610ae9612dc0565b6128f2565b5b610b2e576040517f08c379a0000000000000000000000000000000000000000000000000000000008152600401610b2590614cf4565b60405180910390fd5b610b388383612dc8565b505050565b60106020528060005260406000206000915090508054610b5c906151c0565b80601f0160208091040260200160405190810160405280929190818152602001828054610b88906151c0565b8015610bd55780601f10610baa57610100808354040283529160200191610bd5565b820191906000526020600020905b815481529060010190602001808311610bb857829003601f168201915b505050505081565b6000610be96007612e81565b905090565b600b5481565b610bfc612dc0565b73ffffffffffffffffffffffffffffffffffffffff16610c1a611e09565b73ffffffffffffffffffffffffffffffffffffffff1614610c70576040517f08c379a0000000000000000000000000000000000000000000000000000000008152600401610c6790614df4565b60405180910390fd5b610c7b838383612e8f565b505050565b610c88612dc0565b73ffffffffffffffffffffffffffffffffffffffff16610ca6611e09565b73ffffffffffffffffffffffffffffffffffffffff1614610cfc576040517f08c379a0000000000000000000000000000000000000000000000000000000008152600401610cf390614df4565b60405180910390fd5b80600860006101000a81548173ffffffffffffffffffffffffffffffffffffffff021916908373ffffffffffffffffffffffffffffffffffffffff16021790555050565b610d48612dc0565b73ffffffffffffffffffffffffffffffffffffffff16610d66611e09565b73ffffffffffffffffffffffffffffffffffffffff1614610dbc576040517f08c379a0000000000000000000000000000000000000000000000000000000008152600401610db390614df4565b60405180910390fd5b80600a8190555050565b610dce612dc0565b73ffffffffffffffffffffffffffffffffffffffff16610dec611e09565b73ffffffffffffffffffffffffffffffffffffffff1614610e42576040517f08c379a0000000000000000000000000000000000000000000000000000000008152600401610e3990614df4565b60405180910390fd5b6000600860009054906101000a900473ffffffffffffffffffffffffffffffffffffffff1673ffffffffffffffffffffffffffffffffffffffff166370a08231306040518263ffffffff1660e01b8152600401610e9f9190614ab5565b60206040518083038186803b158015610eb757600080fd5b505afa158015610ecb573d6000803e3d6000fd5b505050506040513d601f19601f82011682018060405250810190610eef91906145b4565b90506000600860009054906101000a900473ffffffffffffffffffffffffffffffffffffffff1673ffffffffffffffffffffffffffffffffffffffff1663a9059cbb600c60009054906101000a900473ffffffffffffffffffffffffffffffffffffffff16846040518363ffffffff1660e01b8152600401610f72929190614b53565b602060405180830381600087803b158015610f8c57600080fd5b505af1158015610fa0573d6000803e3d6000fd5b505050506040513d601f19601f82011682018060405250810190610fc491906143fc565b905080611006576040517f08c379a0000000000000000000000000000000000000000000000000000000008152600401610ffd90614bd4565b60405180910390fd5b5050565b61102583838360405180602001604052806000815250612659565b505050565b611032612dc0565b73ffffffffffffffffffffffffffffffffffffffff16611050611e09565b73ffffffffffffffffffffffffffffffffffffffff16146110a6576040517f08c379a000000000000000000000000000000000000000000000000000000000815260040161109d90614df4565b60405180910390fd5b6110af816130f6565b50565b3360006110be826119cb565b14156110ff576040517f08c379a00000000000000000000000000000000000000000000000000000000081526004016110f690614ef4565b60405180910390fd5b6000601260003373ffffffffffffffffffffffffffffffffffffffff1673ffffffffffffffffffffffffffffffffffffffff16815260200190815260200160002060010154905060008111611189576040517f08c379a000000000000000000000000000000000000000000000000000000000815260040161118090614c34565b60405180910390fd5b80600860009054906101000a900473ffffffffffffffffffffffffffffffffffffffff1673ffffffffffffffffffffffffffffffffffffffff166370a08231306040518263ffffffff1660e01b81526004016111e59190614ab5565b60206040518083038186803b1580156111fd57600080fd5b505afa158015611211573d6000803e3d6000fd5b505050506040513d601f19601f8201168201806040525081019061123591906145b4565b1015611276576040517f08c379a000000000000000000000000000000000000000000000000000000000815260040161126d90614e14565b60405180910390fd5b6000600860009054906101000a900473ffffffffffffffffffffffffffffffffffffffff1673ffffffffffffffffffffffffffffffffffffffff1663a9059cbb33846040518363ffffffff1660e01b81526004016112d5929190614b53565b602060405180830381600087803b1580156112ef57600080fd5b505af1158015611303573d6000803e3d6000fd5b505050506040513d601f19601f8201168201806040525081019061132791906143fc565b905080611369576040517f08c379a000000000000000000000000000000000000000000000000000000000815260040161136090614bd4565b60405180910390fd5b6000601260003373ffffffffffffffffffffffffffffffffffffffff1673ffffffffffffffffffffffffffffffffffffffff168152602001908152602001600020600101819055507f9f2482fecb753a122941f19538876a5b4fdc080a83d01c5f28edde774561cc7433836040516113e2929190614b53565b60405180910390a1505050565b600080601160008573ffffffffffffffffffffffffffffffffffffffff1673ffffffffffffffffffffffffffffffffffffffff168152602001908152602001600020805480602002602001604051908101604052809291908181526020016000905b828210156114fd578382906000526020600020018054611470906151c0565b80601f016020809104026020016040519081016040528092919081815260200182805461149c906151c0565b80156114e95780601f106114be576101008083540402835291602001916114e9565b820191906000526020600020905b8154815290600101906020018083116114cc57829003601f168201915b505050505081526020019060010190611451565b50505050905060005b8151811015611583578380519060200120828281518110611550577f4e487b7100000000000000000000000000000000000000000000000000000000600052603260045260246000fd5b60200260200101518051906020012014156115705760019250505061158a565b808061157b90615223565b915050611506565b5060009150505b92915050565b6000806002600084815260200190815260200160002060009054906101000a900473ffffffffffffffffffffffffffffffffffffffff169050600073ffffffffffffffffffffffffffffffffffffffff168173ffffffffffffffffffffffffffffffffffffffff161415611639576040517f08c379a000000000000000000000000000000000000000000000000000000000815260040161163090614d74565b60405180910390fd5b80915050919050565b33600061164e826119cb565b1461168e576040517f08c379a000000000000000000000000000000000000000000000000000000000815260040161168590614d14565b60405180910390fd5b60008351116116d2576040517f08c379a00000000000000000000000000000000000000000000000000000000081526004016116c990614e34565b60405180910390fd5b600954821015611717576040517f08c379a000000000000000000000000000000000000000000000000000000000815260040161170e90614c34565b60405180910390fd5b6000600860009054906101000a900473ffffffffffffffffffffffffffffffffffffffff1673ffffffffffffffffffffffffffffffffffffffff166323b872dd3330866040518463ffffffff1660e01b815260040161177893929190614ad0565b602060405180830381600087803b15801561179257600080fd5b505af11580156117a6573d6000803e3d6000fd5b505050506040513d601f19601f820116820180604052508101906117ca91906143fc565b90508061180c576040517f08c379a000000000000000000000000000000000000000000000000000000000815260040161180390614bd4565b60405180910390fd5b6000600267ffffffffffffffff81111561184f577f4e487b7100000000000000000000000000000000000000000000000000000000600052604160045260246000fd5b60405190808252806020026020018201604052801561188257816020015b606081526020019060019003908161186d5790505b5090506040518060400160405280600681526020017f4d454d4245520000000000000000000000000000000000000000000000000000815250816000815181106118f5577f4e487b7100000000000000000000000000000000000000000000000000000000600052603260045260246000fd5b60200260200101819052506040518060400160405280600681526020017f4d494e544552000000000000000000000000000000000000000000000000000081525081600181518110611970577f4e487b7100000000000000000000000000000000000000000000000000000000600052603260045260246000fd5b60200260200101819052506000611988868333613213565b90507f0ba0a4f7c9cffadda8819a89af023adc6cea0f94e3b91ec4dd2544993a2ad8d833826040516119bb929190614b53565b60405180910390a1505050505050565b60008073ffffffffffffffffffffffffffffffffffffffff168273ffffffffffffffffffffffffffffffffffffffff161415611a3c576040517f08c379a0000000000000000000000000000000000000000000000000000000008152600401611a3390614d54565b60405180910390fd5b600360008373ffffffffffffffffffffffffffffffffffffffff1673ffffffffffffffffffffffffffffffffffffffff168152602001908152602001600020549050919050565b611a8b612dc0565b73ffffffffffffffffffffffffffffffffffffffff16611aa9611e09565b73ffffffffffffffffffffffffffffffffffffffff1614611aff576040517f08c379a0000000000000000000000000000000000000000000000000000000008152600401611af690614df4565b60405180910390fd5b611b0960006132ed565b565b611b13612dc0565b73ffffffffffffffffffffffffffffffffffffffff16611b31611e09565b73ffffffffffffffffffffffffffffffffffffffff1614611b87576040517f08c379a0000000000000000000000000000000000000000000000000000000008152600401611b7e90614df4565b60405180910390fd5b816000611b93826119cb565b1415611bd4576040517f08c379a0000000000000000000000000000000000000000000000000000000008152600401611bcb90614ef4565b60405180910390fd5b601160008473ffffffffffffffffffffffffffffffffffffffff1673ffffffffffffffffffffffffffffffffffffffff16815260200190815260200160002082908060018154018082558091505060019003906000526020600020016000909190919091509080519060200190611c4c929190613cce565b50505050565b600860009054906101000a900473ffffffffffffffffffffffffffffffffffffffff1681565b611c80612dc0565b73ffffffffffffffffffffffffffffffffffffffff16611c9e611e09565b73ffffffffffffffffffffffffffffffffffffffff1614611cf4576040517f08c379a0000000000000000000000000000000000000000000000000000000008152600401611ceb90614df4565b60405180910390fd5b670de0b6b3a7640000811015611d3f576040517f08c379a0000000000000000000000000000000000000000000000000000000008152600401611d3690614e54565b60405180910390fd5b80600b8190555050565b611d51612dc0565b73ffffffffffffffffffffffffffffffffffffffff16611d6f611e09565b73ffffffffffffffffffffffffffffffffffffffff1614611dc5576040517f08c379a0000000000000000000000000000000000000000000000000000000008152600401611dbc90614df4565b60405180910390fd5b80600c60006101000a81548173ffffffffffffffffffffffffffffffffffffffff021916908373ffffffffffffffffffffffffffffffffffffffff16021790555050565b6000600660009054906101000a900473ffffffffffffffffffffffffffffffffffffffff16905090565b611e3b612dc0565b73ffffffffffffffffffffffffffffffffffffffff16611e59611e09565b73ffffffffffffffffffffffffffffffffffffffff1614611eaf576040517f08c379a0000000000000000000000000000000000000000000000000000000008152600401611ea690614df4565b60405180910390fd5b670de0b6b3a7640000811015611efa576040517f08c379a0000000000000000000000000000000000000000000000000000000008152600401611ef190614e54565b60405180910390fd5b8060098190555050565b611f0c612dc0565b73ffffffffffffffffffffffffffffffffffffffff16611f2a611e09565b73ffffffffffffffffffffffffffffffffffffffff1614611f80576040517f08c379a0000000000000000000000000000000000000000000000000000000008152600401611f7790614df4565b60405180910390fd5b816000611f8c826119cb565b1415611fcd576040517f08c379a0000000000000000000000000000000000000000000000000000000008152600401611fc490614ef4565b60405180910390fd5b81601160008573ffffffffffffffffffffffffffffffffffffffff1673ffffffffffffffffffffffffffffffffffffffff1681526020019081526020016000209080519060200190612020929190613d54565b50505050565b61202e612dc0565b73ffffffffffffffffffffffffffffffffffffffff1661204c611e09565b73ffffffffffffffffffffffffffffffffffffffff16146120a2576040517f08c379a000000000000000000000000000000000000000000000000000000000815260040161209990614df4565b60405180910390fd5b80600d90805190602001906120b8929190613cce565b5050565b6060600180546120cb906151c0565b80601f01602080910402602001604051908101604052809291908181526020018280546120f7906151c0565b80156121445780601f1061211957610100808354040283529160200191612144565b820191906000526020600020905b81548152906001019060200180831161212757829003601f168201915b5050505050905090565b3373ffffffffffffffffffffffffffffffffffffffff1661216e83611590565b73ffffffffffffffffffffffffffffffffffffffff16146121c4576040517f08c379a00000000000000000000000000000000000000000000000000000000081526004016121bb90614eb4565b60405180910390fd5b6121ce82826133b3565b5050565b6121da612dc0565b73ffffffffffffffffffffffffffffffffffffffff166121f8611e09565b73ffffffffffffffffffffffffffffffffffffffff161461224e576040517f08c379a000000000000000000000000000000000000000000000000000000000815260040161224590614df4565b60405180910390fd5b82600061225a826119cb565b141561229b576040517f08c379a000000000000000000000000000000000000000000000000000000000815260040161229290614ef4565b60405180910390fd5b82601260008673ffffffffffffffffffffffffffffffffffffffff1673ffffffffffffffffffffffffffffffffffffffff16815260200190815260200160002060000160008282546122ed919061505c565b9250508190555081601260008673ffffffffffffffffffffffffffffffffffffffff1673ffffffffffffffffffffffffffffffffffffffff1681526020019081526020016000206001016000828254612346919061505c565b9250508190555050505050565b60095481565b61236b612364612dc0565b8383613429565b5050565b60126020528060005260406000206000915090508060000154908060010154908060020154905083565b3360006123a5826119cb565b14156123e6576040517f08c379a00000000000000000000000000000000000000000000000000000000081526004016123dd90614ef4565b60405180910390fd5b816040516020016123f79190614a9e565b60405160208183030381529060405280519060200120600e6001015414612453576040517f08c379a000000000000000000000000000000000000000000000000000000000815260040161244a90614d34565b60405180910390fd5b600e60000154601260003373ffffffffffffffffffffffffffffffffffffffff1673ffffffffffffffffffffffffffffffffffffffff1681526020019081526020016000206002015411156124dd576040517f08c379a00000000000000000000000000000000000000000000000000000000081526004016124d490614ed4565b60405180910390fd5b600a54601260003373ffffffffffffffffffffffffffffffffffffffff1673ffffffffffffffffffffffffffffffffffffffff1681526020019081526020016000206000016000828254612531919061505c565b92505081905550600b54601260003373ffffffffffffffffffffffffffffffffffffffff1673ffffffffffffffffffffffffffffffffffffffff168152602001908152602001600020600101600082825461258c919061505c565b9250508190555042601260003373ffffffffffffffffffffffffffffffffffffffff1673ffffffffffffffffffffffffffffffffffffffff168152602001908152602001600020600201819055507f6d60c7436b41e3e4b19b35cdca2fc514b81aac6096d8aa0729c8ab3585f7f93b33601260003373ffffffffffffffffffffffffffffffffffffffff1673ffffffffffffffffffffffffffffffffffffffff1681526020019081526020016000206002015460405161264d929190614b53565b60405180910390a15050565b61266a612664612dc0565b83613596565b6126a9576040517f08c379a00000000000000000000000000000000000000000000000000000000081526004016126a090614e94565b60405180910390fd5b6126b584848484613674565b50505050565b6126c3612dc0565b73ffffffffffffffffffffffffffffffffffffffff166126e1611e09565b73ffffffffffffffffffffffffffffffffffffffff1614612737576040517f08c379a000000000000000000000000000000000000000000000000000000000815260040161272e90614df4565b60405180910390fd5b61274182826133b3565b5050565b600a5481565b60608161275781612d54565b612796576040517f08c379a000000000000000000000000000000000000000000000000000000000815260040161278d90614dd4565b60405180910390fd5b6010600084815260200190815260200160002080546127b4906151c0565b80601f01602080910402602001604051908101604052809291908181526020018280546127e0906151c0565b801561282d5780601f106128025761010080835404028352916020019161282d565b820191906000526020600020905b81548152906001019060200180831161281057829003601f168201915b5050505050915050919050565b600c60009054906101000a900473ffffffffffffffffffffffffffffffffffffffff1681565b6060600d805461286f906151c0565b80601f016020809104026020016040519081016040528092919081815260200182805461289b906151c0565b80156128e85780601f106128bd576101008083540402835291602001916128e8565b820191906000526020600020905b8154815290600101906020018083116128cb57829003601f168201915b5050505050905090565b6000600560008473ffffffffffffffffffffffffffffffffffffffff1673ffffffffffffffffffffffffffffffffffffffff16815260200190815260200160002060008373ffffffffffffffffffffffffffffffffffffffff1673ffffffffffffffffffffffffffffffffffffffff16815260200190815260200160002060009054906101000a900460ff16905092915050565b601160205281600052604060002081815481106129a257600080fd5b906000526020600020016000915091505080546129be906151c0565b80601f01602080910402602001604051908101604052809291908181526020018280546129ea906151c0565b8015612a375780601f10612a0c57610100808354040283529160200191612a37565b820191906000526020600020905b815481529060010190602001808311612a1a57829003601f168201915b505050505081565b612a47612dc0565b73ffffffffffffffffffffffffffffffffffffffff16612a65611e09565b73ffffffffffffffffffffffffffffffffffffffff1614612abb576040517f08c379a0000000000000000000000000000000000000000000000000000000008152600401612ab290614df4565b60405180910390fd5b604051806040016040528082815260200183604051602001612add9190614a9e565b60405160208183030381529060405280519060200120815250600e60008201518160000155602082015181600101559050505050565b612b1b612dc0565b73ffffffffffffffffffffffffffffffffffffffff16612b39611e09565b73ffffffffffffffffffffffffffffffffffffffff1614612b8f576040517f08c379a0000000000000000000000000000000000000000000000000000000008152600401612b8690614df4565b60405180910390fd5b600073ffffffffffffffffffffffffffffffffffffffff168173ffffffffffffffffffffffffffffffffffffffff161415612bff576040517f08c379a0000000000000000000000000000000000000000000000000000000008152600401612bf690614c14565b60405180910390fd5b612c08816132ed565b50565b6000612c15612dc0565b73ffffffffffffffffffffffffffffffffffffffff16612c33611e09565b73ffffffffffffffffffffffffffffffffffffffff1614612c89576040517f08c379a0000000000000000000000000000000000000000000000000000000008152600401612c8090614df4565b60405180910390fd5b816000612c95826119cb565b14612cd5576040517f08c379a0000000000000000000000000000000000000000000000000000000008152600401612ccc90614d14565b60405180910390fd5b612ce0858585613213565b9150509392505050565b60007f01ffc9a7000000000000000000000000000000000000000000000000000000007bffffffffffffffffffffffffffffffffffffffffffffffffffffffff1916827bffffffffffffffffffffffffffffffffffffffffffffffffffffffff1916149050919050565b60008073ffffffffffffffffffffffffffffffffffffffff166002600084815260200190815260200160002060009054906101000a900473ffffffffffffffffffffffffffffffffffffffff1673ffffffffffffffffffffffffffffffffffffffff1614159050919050565b600033905090565b816004600083815260200190815260200160002060006101000a81548173ffffffffffffffffffffffffffffffffffffffff021916908373ffffffffffffffffffffffffffffffffffffffff160217905550808273ffffffffffffffffffffffffffffffffffffffff16612e3b83611590565b73ffffffffffffffffffffffffffffffffffffffff167f8c5be1e5ebec7d5bd14f71427d1e84f3dd0314c0f7b2291e5b200ac8c7c3b92560405160405180910390a45050565b600081600001549050919050565b8273ffffffffffffffffffffffffffffffffffffffff16612eaf82611590565b73ffffffffffffffffffffffffffffffffffffffff1614612f05576040517f08c379a0000000000000000000000000000000000000000000000000000000008152600401612efc90614c54565b60405180910390fd5b600073ffffffffffffffffffffffffffffffffffffffff168273ffffffffffffffffffffffffffffffffffffffff161415612f75576040517f08c379a0000000000000000000000000000000000000000000000000000000008152600401612f6c90614c94565b60405180910390fd5b612f808383836136d0565b612f8b600082612dc8565b6001600360008573ffffffffffffffffffffffffffffffffffffffff1673ffffffffffffffffffffffffffffffffffffffff1681526020019081526020016000206000828254612fdb91906150b2565b925050819055506001600360008473ffffffffffffffffffffffffffffffffffffffff1673ffffffffffffffffffffffffffffffffffffffff1681526020019081526020016000206000828254613032919061505c565b92505081905550816002600083815260200190815260200160002060006101000a81548173ffffffffffffffffffffffffffffffffffffffff021916908373ffffffffffffffffffffffffffffffffffffffff160217905550808273ffffffffffffffffffffffffffffffffffffffff168473ffffffffffffffffffffffffffffffffffffffff167fddf252ad1be2c89b69c2b068fc378daa952ba7f163c4a11628f55a4df523b3ef60405160405180910390a46130f18383836136d5565b505050565b600061310182611590565b905061310f816000846136d0565b61311a600083612dc8565b6001600360008373ffffffffffffffffffffffffffffffffffffffff1673ffffffffffffffffffffffffffffffffffffffff168152602001908152602001600020600082825461316a91906150b2565b925050819055506002600083815260200190815260200160002060006101000a81549073ffffffffffffffffffffffffffffffffffffffff021916905581600073ffffffffffffffffffffffffffffffffffffffff168273ffffffffffffffffffffffffffffffffffffffff167fddf252ad1be2c89b69c2b068fc378daa952ba7f163c4a11628f55a4df523b3ef60405160405180910390a461320f816000846136d5565b5050565b6000336000613221826119cb565b14613261576040517f08c379a000000000000000000000000000000000000000000000000000000000815260040161325890614d14565b60405180910390fd5b61326b60076138ab565b60006132776007612e81565b905061328384826138c1565b84601160008673ffffffffffffffffffffffffffffffffffffffff1673ffffffffffffffffffffffffffffffffffffffff16815260200190815260200160002090805190602001906132d6929190613d54565b506132e181876133b3565b80925050509392505050565b6000600660009054906101000a900473ffffffffffffffffffffffffffffffffffffffff16905081600660006101000a81548173ffffffffffffffffffffffffffffffffffffffff021916908373ffffffffffffffffffffffffffffffffffffffff1602179055508173ffffffffffffffffffffffffffffffffffffffff168173ffffffffffffffffffffffffffffffffffffffff167f8be0079c531659141344cd1fd0a4f28419497f9722a3daafe3b4186f6b6457e060405160405180910390a35050565b816133bd81612d54565b6133fc576040517f08c379a00000000000000000000000000000000000000000000000000000000081526004016133f390614dd4565b60405180910390fd5b81601060008581526020019081526020016000209080519060200190613423929190613cce565b50505050565b8173ffffffffffffffffffffffffffffffffffffffff168373ffffffffffffffffffffffffffffffffffffffff161415613498576040517f08c379a000000000000000000000000000000000000000000000000000000000815260040161348f90614cb4565b60405180910390fd5b80600560008573ffffffffffffffffffffffffffffffffffffffff1673ffffffffffffffffffffffffffffffffffffffff16815260200190815260200160002060008473ffffffffffffffffffffffffffffffffffffffff1673ffffffffffffffffffffffffffffffffffffffff16815260200190815260200160002060006101000a81548160ff0219169083151502179055508173ffffffffffffffffffffffffffffffffffffffff168373ffffffffffffffffffffffffffffffffffffffff167f17307eab39ab6107e8899845ad3d59bd9653f200f220920489ca2b5937696c31836040516135899190614b7c565b60405180910390a3505050565b60006135a182612d54565b6135e0576040517f08c379a00000000000000000000000000000000000000000000000000000000081526004016135d790614cd4565b60405180910390fd5b60006135eb83611590565b90508073ffffffffffffffffffffffffffffffffffffffff168473ffffffffffffffffffffffffffffffffffffffff16148061365a57508373ffffffffffffffffffffffffffffffffffffffff16613642846109a0565b73ffffffffffffffffffffffffffffffffffffffff16145b8061366b575061366a81856128f2565b5b91505092915050565b61367f848484612e8f565b61368b848484846138df565b6136ca576040517f08c379a00000000000000000000000000000000000000000000000000000000081526004016136c190614bf4565b60405180910390fd5b50505050565b505050565b601160008473ffffffffffffffffffffffffffffffffffffffff1673ffffffffffffffffffffffffffffffffffffffff168152602001908152602001600020601160008473ffffffffffffffffffffffffffffffffffffffff1673ffffffffffffffffffffffffffffffffffffffff168152602001908152602001600020908054613761929190613db4565b50601160008473ffffffffffffffffffffffffffffffffffffffff1673ffffffffffffffffffffffffffffffffffffffff16815260200190815260200160002060006137ad9190613e1c565b601260008473ffffffffffffffffffffffffffffffffffffffff1673ffffffffffffffffffffffffffffffffffffffff168152602001908152602001600020601260008473ffffffffffffffffffffffffffffffffffffffff1673ffffffffffffffffffffffffffffffffffffffff168152602001908152602001600020600082015481600001556001820154816001015560028201548160020155905050601260008473ffffffffffffffffffffffffffffffffffffffff1673ffffffffffffffffffffffffffffffffffffffff168152602001908152602001600020600080820160009055600182016000905560028201600090555050505050565b6001816000016000828254019250508190555050565b6138db828260405180602001604052806000815250613a76565b5050565b60006139008473ffffffffffffffffffffffffffffffffffffffff16613ad1565b15613a69578373ffffffffffffffffffffffffffffffffffffffff1663150b7a02613929612dc0565b8786866040518563ffffffff1660e01b815260040161394b9493929190614b07565b602060405180830381600087803b15801561396557600080fd5b505af192505050801561399657506040513d601f19601f82011682018060405250810190613993919061444e565b60015b613a19573d80600081146139c6576040519150601f19603f3d011682016040523d82523d6000602084013e6139cb565b606091505b50600081511415613a11576040517f08c379a0000000000000000000000000000000000000000000000000000000008152600401613a0890614bf4565b60405180910390fd5b805181602001fd5b63150b7a0260e01b7bffffffffffffffffffffffffffffffffffffffffffffffffffffffff1916817bffffffffffffffffffffffffffffffffffffffffffffffffffffffff191614915050613a6e565b600190505b949350505050565b613a808383613af4565b613a8d60008484846138df565b613acc576040517f08c379a0000000000000000000000000000000000000000000000000000000008152600401613ac390614bf4565b60405180910390fd5b505050565b6000808273ffffffffffffffffffffffffffffffffffffffff163b119050919050565b600073ffffffffffffffffffffffffffffffffffffffff168273ffffffffffffffffffffffffffffffffffffffff161415613b64576040517f08c379a0000000000000000000000000000000000000000000000000000000008152600401613b5b90614d94565b60405180910390fd5b613b6d81612d54565b15613bad576040517f08c379a0000000000000000000000000000000000000000000000000000000008152600401613ba490614c74565b60405180910390fd5b613bb9600083836136d0565b6001600360008473ffffffffffffffffffffffffffffffffffffffff1673ffffffffffffffffffffffffffffffffffffffff1681526020019081526020016000206000828254613c09919061505c565b92505081905550816002600083815260200190815260200160002060006101000a81548173ffffffffffffffffffffffffffffffffffffffff021916908373ffffffffffffffffffffffffffffffffffffffff160217905550808273ffffffffffffffffffffffffffffffffffffffff16600073ffffffffffffffffffffffffffffffffffffffff167fddf252ad1be2c89b69c2b068fc378daa952ba7f163c4a11628f55a4df523b3ef60405160405180910390a4613cca600083836136d5565b5050565b828054613cda906151c0565b90600052602060002090601f016020900481019282613cfc5760008555613d43565b82601f10613d1557805160ff1916838001178555613d43565b82800160010185558215613d43579182015b82811115613d42578251825591602001919060010190613d27565b5b509050613d509190613e3d565b5090565b828054828255906000526020600020908101928215613da3579160200282015b82811115613da2578251829080519060200190613d92929190613cce565b5091602001919060010190613d74565b5b509050613db09190613e5a565b5090565b828054828255906000526020600020908101928215613e0b5760005260206000209182015b82811115613e0a578282908054613def906151c0565b613dfa929190613e7e565b5091600101919060010190613dd9565b5b509050613e189190613e5a565b5090565b5080546000825590600052602060002090810190613e3a9190613e5a565b50565b5b80821115613e56576000816000905550600101613e3e565b5090565b5b80821115613e7a5760008181613e719190613f0b565b50600101613e5b565b5090565b828054613e8a906151c0565b90600052602060002090601f016020900481019282613eac5760008555613efa565b82601f10613ebd5780548555613efa565b82800160010185558215613efa57600052602060002091601f016020900482015b82811115613ef9578254825591600101919060010190613ede565b5b509050613f079190613e3d565b5090565b508054613f17906151c0565b6000825580601f10613f295750613f48565b601f016020900490600052602060002090810190613f479190613e3d565b5b50565b6000613f5e613f5984614f8b565b614f66565b90508083825260208201905082856020860282011115613f7d57600080fd5b60005b85811015613fc757813567ffffffffffffffff811115613f9f57600080fd5b808601613fac898261410a565b85526020850194506020840193505050600181019050613f80565b5050509392505050565b6000613fe4613fdf84614fb7565b614f66565b905082815260208101848484011115613ffc57600080fd5b61400784828561517e565b509392505050565b600061402261401d84614fe8565b614f66565b90508281526020810184848401111561403a57600080fd5b61404584828561517e565b509392505050565b60008135905061405c816158fc565b92915050565b600082601f83011261407357600080fd5b8135614083848260208601613f4b565b91505092915050565b60008135905061409b81615913565b92915050565b6000815190506140b081615913565b92915050565b6000813590506140c58161592a565b92915050565b6000815190506140da8161592a565b92915050565b600082601f8301126140f157600080fd5b8135614101848260208601613fd1565b91505092915050565b600082601f83011261411b57600080fd5b813561412b84826020860161400f565b91505092915050565b60008135905061414381615941565b92915050565b60008151905061415881615941565b92915050565b60006020828403121561417057600080fd5b600061417e8482850161404d565b91505092915050565b6000806040838503121561419a57600080fd5b60006141a88582860161404d565b92505060206141b98582860161404d565b9150509250929050565b6000806000606084860312156141d857600080fd5b60006141e68682870161404d565b93505060206141f78682870161404d565b925050604061420886828701614134565b9150509250925092565b6000806000806080858703121561422857600080fd5b60006142368782880161404d565b94505060206142478782880161404d565b935050604061425887828801614134565b925050606085013567ffffffffffffffff81111561427557600080fd5b614281878288016140e0565b91505092959194509250565b600080604083850312156142a057600080fd5b60006142ae8582860161404d565b925050602083013567ffffffffffffffff8111156142cb57600080fd5b6142d785828601614062565b9150509250929050565b600080604083850312156142f457600080fd5b60006143028582860161404d565b92505060206143138582860161408c565b9150509250929050565b6000806040838503121561433057600080fd5b600061433e8582860161404d565b925050602083013567ffffffffffffffff81111561435b57600080fd5b6143678582860161410a565b9150509250929050565b6000806040838503121561438457600080fd5b60006143928582860161404d565b92505060206143a385828601614134565b9150509250929050565b6000806000606084860312156143c257600080fd5b60006143d08682870161404d565b93505060206143e186828701614134565b92505060406143f286828701614134565b9150509250925092565b60006020828403121561440e57600080fd5b600061441c848285016140a1565b91505092915050565b60006020828403121561443757600080fd5b6000614445848285016140b6565b91505092915050565b60006020828403121561446057600080fd5b600061446e848285016140cb565b91505092915050565b60006020828403121561448957600080fd5b600082013567ffffffffffffffff8111156144a357600080fd5b6144af8482850161410a565b91505092915050565b6000806000606084860312156144cd57600080fd5b600084013567ffffffffffffffff8111156144e757600080fd5b6144f38682870161410a565b935050602084013567ffffffffffffffff81111561451057600080fd5b61451c86828701614062565b925050604061452d8682870161404d565b9150509250925092565b6000806040838503121561454a57600080fd5b600083013567ffffffffffffffff81111561456457600080fd5b6145708582860161410a565b925050602061458185828601614134565b9150509250929050565b60006020828403121561459d57600080fd5b60006145ab84828501614134565b91505092915050565b6000602082840312156145c657600080fd5b60006145d484828501614149565b91505092915050565b600080604083850312156145f057600080fd5b60006145fe85828601614134565b925050602083013567ffffffffffffffff81111561461b57600080fd5b6146278582860161410a565b9150509250929050565b61463a816150e6565b82525050565b614649816150f8565b82525050565b600061465a82615019565b614664818561502f565b935061467481856020860161518d565b61467d816152f9565b840191505092915050565b6146918161515a565b82525050565b60006146a282615024565b6146ac8185615040565b93506146bc81856020860161518d565b6146c5816152f9565b840191505092915050565b60006146db82615024565b6146e58185615051565b93506146f581856020860161518d565b80840191505092915050565b600061470e600983615040565b91506147198261530a565b602082019050919050565b6000614731603283615040565b915061473c82615333565b604082019050919050565b6000614754602683615040565b915061475f82615382565b604082019050919050565b6000614777601383615040565b9150614782826153d1565b602082019050919050565b600061479a602583615040565b91506147a5826153fa565b604082019050919050565b60006147bd601c83615040565b91506147c882615449565b602082019050919050565b60006147e0602483615040565b91506147eb82615472565b604082019050919050565b6000614803601983615040565b915061480e826154c1565b602082019050919050565b6000614826602c83615040565b9150614831826154ea565b604082019050919050565b6000614849603883615040565b915061485482615539565b604082019050919050565b600061486c601383615040565b915061487782615588565b602082019050919050565b600061488f600c83615040565b915061489a826155b1565b602082019050919050565b60006148b2602a83615040565b91506148bd826155da565b604082019050919050565b60006148d5602983615040565b91506148e082615629565b604082019050919050565b60006148f8602083615040565b915061490382615678565b602082019050919050565b600061491b602c83615040565b9150614926826156a1565b604082019050919050565b600061493e602c83615040565b9150614949826156f0565b604082019050919050565b6000614961602083615040565b915061496c8261573f565b602082019050919050565b6000614984601283615040565b915061498f82615768565b602082019050919050565b60006149a7601083615040565b91506149b282615791565b602082019050919050565b60006149ca601083615040565b91506149d5826157ba565b602082019050919050565b60006149ed602183615040565b91506149f8826157e3565b604082019050919050565b6000614a10603183615040565b9150614a1b82615832565b604082019050919050565b6000614a33600d83615040565b9150614a3e82615881565b602082019050919050565b6000614a56601083615040565b9150614a61826158aa565b602082019050919050565b6000614a79600e83615040565b9150614a84826158d3565b602082019050919050565b614a9881615150565b82525050565b6000614aaa82846146d0565b915081905092915050565b6000602082019050614aca6000830184614631565b92915050565b6000606082019050614ae56000830186614631565b614af26020830185614631565b614aff6040830184614a8f565b949350505050565b6000608082019050614b1c6000830187614631565b614b296020830186614631565b614b366040830185614a8f565b8181036060830152614b48818461464f565b905095945050505050565b6000604082019050614b686000830185614631565b614b756020830184614a8f565b9392505050565b6000602082019050614b916000830184614640565b92915050565b6000602082019050614bac6000830184614688565b92915050565b60006020820190508181036000830152614bcc8184614697565b905092915050565b60006020820190508181036000830152614bed81614701565b9050919050565b60006020820190508181036000830152614c0d81614724565b9050919050565b60006020820190508181036000830152614c2d81614747565b9050919050565b60006020820190508181036000830152614c4d8161476a565b9050919050565b60006020820190508181036000830152614c6d8161478d565b9050919050565b60006020820190508181036000830152614c8d816147b0565b9050919050565b60006020820190508181036000830152614cad816147d3565b9050919050565b60006020820190508181036000830152614ccd816147f6565b9050919050565b60006020820190508181036000830152614ced81614819565b9050919050565b60006020820190508181036000830152614d0d8161483c565b9050919050565b60006020820190508181036000830152614d2d8161485f565b9050919050565b60006020820190508181036000830152614d4d81614882565b9050919050565b60006020820190508181036000830152614d6d816148a5565b9050919050565b60006020820190508181036000830152614d8d816148c8565b9050919050565b60006020820190508181036000830152614dad816148eb565b9050919050565b60006020820190508181036000830152614dcd8161490e565b9050919050565b60006020820190508181036000830152614ded81614931565b9050919050565b60006020820190508181036000830152614e0d81614954565b9050919050565b60006020820190508181036000830152614e2d81614977565b9050919050565b60006020820190508181036000830152614e4d8161499a565b9050919050565b60006020820190508181036000830152614e6d816149bd565b9050919050565b60006020820190508181036000830152614e8d816149e0565b9050919050565b60006020820190508181036000830152614ead81614a03565b9050919050565b60006020820190508181036000830152614ecd81614a26565b9050919050565b60006020820190508181036000830152614eed81614a49565b9050919050565b60006020820190508181036000830152614f0d81614a6c565b9050919050565b6000602082019050614f296000830184614a8f565b92915050565b6000606082019050614f446000830186614a8f565b614f516020830185614a8f565b614f5e6040830184614a8f565b949350505050565b6000614f70614f81565b9050614f7c82826151f2565b919050565b6000604051905090565b600067ffffffffffffffff821115614fa657614fa56152ca565b5b602082029050602081019050919050565b600067ffffffffffffffff821115614fd257614fd16152ca565b5b614fdb826152f9565b9050602081019050919050565b600067ffffffffffffffff821115615003576150026152ca565b5b61500c826152f9565b9050602081019050919050565b600081519050919050565b600081519050919050565b600082825260208201905092915050565b600082825260208201905092915050565b600081905092915050565b600061506782615150565b915061507283615150565b9250827fffffffffffffffffffffffffffffffffffffffffffffffffffffffffffffffff038211156150a7576150a661526c565b5b828201905092915050565b60006150bd82615150565b91506150c883615150565b9250828210156150db576150da61526c565b5b828203905092915050565b60006150f182615130565b9050919050565b60008115159050919050565b60007fffffffff0000000000000000000000000000000000000000000000000000000082169050919050565b600073ffffffffffffffffffffffffffffffffffffffff82169050919050565b6000819050919050565b60006151658261516c565b9050919050565b600061517782615130565b9050919050565b82818337600083830152505050565b60005b838110156151ab578082015181840152602081019050615190565b838111156151ba576000848401525b50505050565b600060028204905060018216806151d857607f821691505b602082108114156151ec576151eb61529b565b5b50919050565b6151fb826152f9565b810181811067ffffffffffffffff8211171561521a576152196152ca565b5b80604052505050565b600061522e82615150565b91507fffffffffffffffffffffffffffffffffffffffffffffffffffffffffffffffff8214156152615761526061526c565b5b600182019050919050565b7f4e487b7100000000000000000000000000000000000000000000000000000000600052601160045260246000fd5b7f4e487b7100000000000000000000000000000000000000000000000000000000600052602260045260246000fd5b7f4e487b7100000000000000000000000000000000000000000000000000000000600052604160045260246000fd5b6000601f19601f8301169050919050565b7f5458204641494c45440000000000000000000000000000000000000000000000600082015250565b7f4552433732313a207472616e7366657220746f206e6f6e20455243373231526560008201527f63656976657220696d706c656d656e7465720000000000000000000000000000602082015250565b7f4f776e61626c653a206e6577206f776e657220697320746865207a65726f206160008201527f6464726573730000000000000000000000000000000000000000000000000000602082015250565b7f494e53554646494349454e5420414d4f554e5400000000000000000000000000600082015250565b7f4552433732313a207472616e736665722066726f6d20696e636f72726563742060008201527f6f776e6572000000000000000000000000000000000000000000000000000000602082015250565b7f4552433732313a20746f6b656e20616c7265616479206d696e74656400000000600082015250565b7f4552433732313a207472616e7366657220746f20746865207a65726f2061646460008201527f7265737300000000000000000000000000000000000000000000000000000000602082015250565b7f4552433732313a20617070726f766520746f2063616c6c657200000000000000600082015250565b7f4552433732313a206f70657261746f7220717565727920666f72206e6f6e657860008201527f697374656e7420746f6b656e0000000000000000000000000000000000000000602082015250565b7f4552433732313a20617070726f76652063616c6c6572206973206e6f74206f7760008201527f6e6572206e6f7220617070726f76656420666f7220616c6c0000000000000000602082015250565b7f4d555354204245204e4f4e4520484f4c44455200000000000000000000000000600082015250565b7f57524f4e4720414e535745520000000000000000000000000000000000000000600082015250565b7f4552433732313a2062616c616e636520717565727920666f7220746865207a6560008201527f726f206164647265737300000000000000000000000000000000000000000000602082015250565b7f4552433732313a206f776e657220717565727920666f72206e6f6e657869737460008201527f656e7420746f6b656e0000000000000000000000000000000000000000000000602082015250565b7f4552433732313a206d696e7420746f20746865207a65726f2061646472657373600082015250565b7f4552433732313a20617070726f76656420717565727920666f72206e6f6e657860008201527f697374656e7420746f6b656e0000000000000000000000000000000000000000602082015250565b7f4552433732314d657461646174613a2055524920736574206f66206e6f6e657860008201527f697374656e7420746f6b656e0000000000000000000000000000000000000000602082015250565b7f4f776e61626c653a2063616c6c6572206973206e6f7420746865206f776e6572600082015250565b7f494e53554646494349454e5420464f554e440000000000000000000000000000600082015250565b7f496e76616c696420746f6b656e55524900000000000000000000000000000000600082015250565b7f4d55535420424520475445203165313800000000000000000000000000000000600082015250565b7f4552433732313a20617070726f76616c20746f2063757272656e74206f776e6560008201527f7200000000000000000000000000000000000000000000000000000000000000602082015250565b7f4552433732313a207472616e736665722063616c6c6572206973206e6f74206f60008201527f776e6572206e6f7220617070726f766564000000000000000000000000000000602082015250565b7f4e4f54204e4654204f574e455200000000000000000000000000000000000000600082015250565b7f414c524541445920414e53574552454400000000000000000000000000000000600082015250565b7f4d55535420424520484f4c444552000000000000000000000000000000000000600082015250565b615905816150e6565b811461591057600080fd5b50565b61591c816150f8565b811461592757600080fd5b50565b61593381615104565b811461593e57600080fd5b50565b61594a81615150565b811461595557600080fd5b5056fea2646970667358221220941883f9fd26d4225d6e2b63e4dc4381b1e9a69a68b17385a0de8ed92cbb1fd064736f6c63430008040033",
  "linkReferences": {},
  "deployedLinkReferences": {}
}